:100000000C946B000C9493000C9493000C9493004C
:100010000C9493000C9493000C9493000C94E10BBB
:100020000C9493000C943C030C9493000C94930058
:100030000C9493000C9493000C9493000C949300F4
:100040000C947B0F0C9493000C9453070C9485072D
:100050000C9493000C9493000C9493000C949300D4
:100060000C9493000C9493005D048C04A804AD04DC
:10007000EB0409050E053105B505D60502000000A3
:100080000800020100000304070000000000000057
:100090000001020408102040800102040810200121
:1000A00002040810200404040404040404020202EC
:1000B00002020203030303030300000000250028DB
:1000C000002B0000000000240027002A0000E402AA
:1000D0000306B5070A0611241FBECFEFD8E0DEBF26
:1000E000CDBF12E0A0E0B1E0EEE1F9E202C0059080
:1000F0000D92A833B107D9F723E0A8E3B2E001C01D
:100100001D92AD37B207E1F710E0C4EDD0E004C0B6
:100110002297FE010E940F11CE3CD107C9F70E9421
:10012000F4050C9482140C9400009B0190936902D6
:10013000809368026091530270915402C9010E9439
:100140005F021092570210925802109259021092B8
:100150005A020E94C50F60936302709364028093F9
:10016000650290936602089580915B0290915C0213
:10017000A0915D02B0915E024091570250915802E9
:100180006091590270915A02841B950BA60BB70B14
:1001900040910B0150910C0160E070E04817590745
:1001A0006A077B0708F043C080910D020E94171078
:1001B00090937802809377024AE050E0BC018EEB86
:1001C00092E00E94180961E771E08EEB92E00E94D4
:1001D000440860915B0270915C0280915D02909195
:1001E0005E0220E137E240E050E00E94CC10AB011B
:1001F000BC012AE030E08EEB92E00E94430920919E
:100200000B0130910C018091570290915802A091FE
:100210005902B0915A02820F931FA11DB11D809304
:10022000570290935802A0935902B0935A0208952E
:10023000CF93DF93CDB7DEB762970FB6F894DEBFEA
:100240000FBECDBF65E171E08EEB92E00E944408E5
:100250008EEB92E00E940E06892BD1F36EEB72E0DA
:10026000CE010D960E948309CE010D960E94BF0D0E
:10027000AB01BC012AE0CE0107960E94400D63E26B
:1002800071E0CE0101960E94CF0CBE01695F7F4FE5
:10029000CE0101960E94AC0DBC018BE692E00E945B
:1002A000E50CCE0101960E94610CCE0107960E94DA
:1002B000610CCE010D960E94610C6AE271E0CE01E4
:1002C00001960E94CF0C6BE672E0CE0101960E946F
:1002D000AC0DBC018EEB92E00E945108CE0101965C
:1002E0000E94610C6CE271E08EEB92E00E94440887
:1002F0008EEB92E00E940E06892BD1F36EEB72E03A
:10030000CE0101960E948309CE0101960E94BF0D85
:100310007093120160931101CE0101960E94610C4D
:100320006091110170911201665D7E4F8EEB92E03B
:100330000E94630862E471E08EEB92E00E94440840
:100340008EEB92E00E940E06892BD1F36EEB72E0E9
:10035000CE0101960E948309CE0101960E94BF0D35
:100360007093100160930F01CE0101960E94610C01
:1003700060910F0170911001665D7E4F8EEB92E0EF
:100380000E9463086DE471E08EEB92E00E946308C6
:100390000E94BA020497E1F70E94C50F60937102B0
:1003A00070937202809373029093740281E0809341
:1003B000520241E060E08AE392E00E947A0E69EB2B
:1003C00071E08AE392E00E94440841E061E08AE340
:1003D00092E00E947A0E60910F01709110014AE044
:1003E00050E08AE392E00E94180941E064E08AE369
:1003F00092E00E947A0E62E072E08AE392E00E944C
:10040000440840E060E08AE392E00E947A0E6BE6E6
:1004100072E08AE392E00E94360840E068E08AE3F6
:1004200092E00E947A0EE0911101F0911201EE0F1C
:10043000FF1FE357FE4F608171818AE392E00E94C3
:10044000440841E066E08AE392E00E947A0E68E6A2
:1004500071E08AE392E00E94440863E771E08EEB6A
:1004600092E00E94630869E771E08EEB92E00E94DF
:1004700063086BE771E08EEB92E00E9463086FE720
:1004800071E08EEB92E00E946308809111019091DF
:100490001201029729F410920E0110920D0106C06C
:1004A0008AEF90E090930E0180930D0162960FB653
:1004B000F894DEBF0FBECDBFDF91CF910895CF92EC
:1004C000DF92EF92FF920F931F93CF93DF93EC0194
:1004D0008B010E94C50FC0907102D0907202E09013
:1004E0007302F09074026C197D098E099F0920E651
:1004F0003AEE40E050E00E94CC1069017A0140E001
:100500006EE08AE392E00E947A0E4AE050E0B60183
:100510008AE392E00E94180941E065E08AE392E0F4
:100520000E947A0EC830D10531F4B80161507109CA
:100530004AE050E003C04AE050E0B8018AE392E0AC
:100540000E94180941E069E08AE392E00E947A0E75
:10055000CC0FDD1FCD51DE4F688179818AE392E0B7
:10056000DF91CF911F910F91FF90EF90DF90CF908F
:100570000C9444088EE00E941710909339028093E7
:100580003802893E23E0920794F4823691058CF07C
:100590008E3F910584F0883921E0920774F0883508
:1005A00022E0920764F0843893405CF0089585E07F
:1005B00009C080E007C081E005C082E003C083E09D
:1005C00001C084E090E00895CF92EF920F9397E0FE
:1005D000C92E26E0E22E05E024E049E068E08AE347
:1005E00092E00E944F0F0F91EF90CF9008950C94DE
:1005F0009610089580E090E0FC01EE0FFF1FEE578B
:10060000FD4F1182108201968E319105A9F7089550
:100610000F931F93CF93DF9381E080937F0210921B
:10062000810210928002C0E0D0E04AE050E0BE01BA
:100630008EEB92E00E94180961E771E08EEB92E088
:100640000E9444088E01000F111F0E571D4FF80124
:10065000608171814AE050E08EEB92E00E942D09AA
:10066000F801118210822196CE31D105F1F6DF9189
:10067000CF911F910F9108951F920F920FB60F9275
:1006800011242F938F939F93EF93FF9380917D027B
:1006900090917E02019690937E0280937D028091DC
:1006A0007D0290917E02883E9340A1F480917C026D
:1006B0008F5F80937C0210927E0210927D02809167
:1006C0007C028C3339F410927C0280917B028F5F24
:1006D00080937B02E0918002F0918102EE0FFF1F78
:1006E000EE57FD4F808191810196918380838091A7
:1006F00079028093B200FF91EF919F918F912F919A
:100700000F900FBE0F901F901895E0E7F0E08081EA
:100710008E7F8083A0EBB0E08C918C7F8C93A6EBD6
:10072000B0E08C918F7D8C9380818D7F8083A1EB55
:10073000B0E08C9185608C938C918D7F8C9383E855
:1007400090E090937A028093790283E88093B200DC
:100750008081816080837894089510928102109244
:10076000800210927F020E94FA0226E040E855E2E1
:1007700060E070E08EEB92E00E94F10610927E0243
:1007800010927D0210927C0210927B020E948503DF
:1007900061E08BE00E945D1020E042E060E18AE3CE
:1007A00092E00E94940E41E064E08AE392E00E94AD
:1007B0007A0E67EF71E08AE392E00C9444085F924E
:1007C0006F927F928F929F92AF92BF92CF92DF9261
:1007D000EF92FF920F931F93CF93DF93809152027A
:1007E000811102C00E94180198E0692E712C5524D5
:1007F000539426E0E22EF12C35E0C32ED12CC4E038
:10080000D0E043E0A42EB12C52E0852E912C01E0E3
:1008100010E080915202882309F4D6C180915302DE
:1008200090915402892BF9F40E94C50F60936302E2
:100830007093640280936502909366020E94C50FD4
:1008400060935F02709360028093610290936202F2
:10085000109354020093530261E070E080E090E056
:100860000E945F02D6CF0E94C50F20916302309193
:1008700064024091650250916602621B730B840B07
:10088000950B60935B0270935C0280935D02909382
:100890005E020E94C50F0E94BA02892B11F4509289
:1008A0006702E0916802F0916902EA30F10508F010
:1008B000B0CFEC5CFF4F0C940D11109381020093AC
:1008C00080020E94B40080915B0290915C02A09132
:1008D0005D02B0915E02883E9340A105B10508F427
:1008E00098CF80910A0120E030E0A901882351F0DF
:1008F0006CE175E283E00E949D0961E070E081E0B7
:1009000090E05FC160EA7FE083E00E949D0962E0C1
:1009100070E082E090E055C1909281028092800266
:100920000E94B40080915B0290915C02A0915D02F4
:10093000B0915E02803B9440A105B10508F469CFF7
:1009400083E00E94CC0B63E070E083E090E039C16B
:10095000B0928102A0928002E3CFD0938102C09333
:1009600080020E94B40080910D0190910E01AA278F
:1009700097FDA095BA2F40915B0250915C02609167
:100980005D0270915E02481759076A077B0708F4F9
:1009900040CF8091110190911201892B91F08091AB
:1009A0000A01882371F061E08BE090E00E94F70279
:1009B000D0936902C093680264E070E084E090E044
:1009C00000C160E08BE090E00E94F70265E070E01B
:1009D00085E090E0F6C0D0928102C09280020E9431
:1009E000B40080915B0290915C02A0915D02B09195
:1009F0005E02883E9340A105B10508F40ACF60E08D
:100A00008BE090E00E94F70266E070E086E090E004
:100A1000D8C0F0928102E0928002E1CF87E090E0BE
:100A200090938102809380020E94B40080915B02C7
:100A300090915C02A0915D02B0915E02883E93406D
:100A4000A105B10508F4E5CE68EE73E080E090E022
:100A50000E943D0C68517C4F709356026093550282
:100A6000ACC07092810260928002809167028823FC
:100A700029F069E070E089E090E0A3C08091550220
:100A800090915602AA2797FDA095BA2F40915B023C
:100A900050915C0260915D0270915E0248175907A7
:100AA0006A077B0708F4B5CE8091530290915402F7
:100AB0000196909354028093530210927602109202
:100AC000750264E072E003974CF08EEB92E00E94B6
:100AD000630868E070E088E090E073C08EEB92E01D
:100AE0000E9463086AE070E080E090E00E943D0CA4
:100AF00020915302309154026530710581059105B2
:100B000064F050920A014AE050E0B9018EEB92E0A5
:100B10000E9418096CE771E00BC010920A014AE0CC
:100B200050E0B9018EEB92E00E94180966E072E095
:100B30008EEB92E00E946308609153027091540220
:100B400080E090E00E945F0260E070E080E090E072
:100B50000E9495000E94C50F60935F02709360022F
:100B6000809361029093620254CE80916A0288233E
:100B7000B1F069E072E08EEB92E00E9463086FE7EB
:100B800071E08EEB92E00E9463080E94080364E02B
:100B900072E08EEB92E00E94630810926A026BE0B2
:100BA00072E08EEB92E00E946308FFCF0E94BA02CF
:100BB000039709F02ECE1092670267E070E087E09D
:100BC00090E00E94950025CEDF91CF911F910F916B
:100BD000FF90EF90DF90CF90BF90AF909F908F905D
:100BE0007F906F905F9008950E94DC0F0E94F90241
:100BF0000E94AD03CBE3D6E00E94DF032097E1F330
:100C00000E943B06F9CF4AE061E070E08BE692E09B
:100C10000C94140D8BE692E00C94610CFC01818D18
:100C2000228D90E0805C9F4F821B91098F739927E2
:100C30000895FC01918D828D981731F0828DE80F17
:100C4000F11D858D90E008958FEF9FEF0895FC01D1
:100C5000918D828D981761F0828DDF01A80FB11DF3
:100C60005D968C91928D9F5F9F73928F90E0089517
:100C70008FEF9FEF08958BEA97E0892B49F080E092
:100C800090E0892B29F00E94AB0781110C940000A1
:100C90000895FC01848DDF01A80FB11DA35ABF4F39
:100CA0002C91848D90E001968F739927848FA6896B
:100CB000B7892C93A089B1898C9180648C93938D92
:100CC000848D981306C00288F389E02D80818F7D82
:100CD00080830895CF93DF93EC01888D8823C9F03A
:100CE000EA89FB89808185FD05C0A889B9898C9135
:100CF00086FD0FC00FB607FCF5CF808185FFF2CFD0
:100D0000A889B9898C9185FFEDCFCE010E94490653
:100D1000E7CFDF91CF910895CF92DF92FF920F93AB
:100D20001F93CF93DF931F92CDB7DEB76C0181E0A5
:100D3000D60158968C9358975B969C915B975C96DE
:100D40008C915C97981307C05096ED91FC91519748
:100D5000808185FD2EC0F601038D10E00F5F1F4FCF
:100D60000F731127F02EF601848DF81211C00FB603
:100D700007FCF9CFD6015096ED91FC9151978081F7
:100D800085FFF1CFC60169830E9449066981EBCFD7
:100D9000838DE80FF11DE35AFF4F6083D6015B9608
:100DA0000C935B975296ED91FC91539780818062F2
:100DB0000CC0D6015696ED91FC91579760835096E2
:100DC000ED91FC91519780818064808381E090E077
:100DD0000F90DF91CF911F910F91FF90DF90CF90F7
:100DE0000895BF92CF92DF92EF92FF92CF93DF935D
:100DF000EC016A017B01B22EE889F98982E08083E7
:100E0000411581EE580761057105A1F060E079E0B8
:100E10008DE390E0A70196010E94CC10215031098A
:100E2000410951095695479537952795211580E138
:100E3000380798F0E889F989108260E874E88EE153
:100E400090E0A70196010E94CC1021503109410980
:100E500051095695479537952795EC85FD85308343
:100E6000EE85FF852083188EEC89FD89B082EA89A2
:100E7000FB89808180618083EA89FB898081886029
:100E80008083EA89FB89808180688083EA89FB8985
:100E900080818F7D8083DF91CF91FF90EF90DF90F5
:100EA000CF90BF9008951F920F920FB60F9211240A
:100EB0002F938F939F93EF93FF93E091CE02F09146
:100EC000CF028081E091D402F091D50282FD12C060
:100ED00090818091D7028F5F8F732091D802821703
:100EE00051F0E091D702F0E0E254FD4F958F8093EE
:100EF000D70201C08081FF91EF919F918F912F9137
:100F00000F900FBE0F901F9018951F920F920FB663
:100F10000F9211242F933F934F935F936F937F937F
:100F20008F939F93AF93BF93EF93FF938EEB92E0DA
:100F30000E944906FF91EF91BF91AF919F918F91D0
:100F40007F916F915F914F913F912F910F900FBEC5
:100F50000F901F9018958EEB92E00E940E0621E0F4
:100F6000892B09F420E0822F08951092C10210927B
:100F7000C00288EE93E0A0E0B0E08093C2029093BC
:100F8000C302A093C402B093C50283E192E09093A0
:100F9000BF028093BE0285EC90E09093CB028093D9
:100FA000CA0284EC90E09093CD028093CC0280EC56
:100FB00090E09093CF028093CE0281EC90E09093EA
:100FC000D1028093D00282EC90E09093D302809380
:100FD000D20286EC90E09093D5028093D4021092D6
:100FE000D7021092D8021092D9021092DA02089514
:100FF000CF92DF92EF92FF920F931F93CF93DF93E5
:101000006C017A01EB01E60EF71E00E010E0CE1550
:10101000DF0561F06991D601ED91FC910190F081BD
:10102000E02DC6010995080F191FF1CFC801DF9106
:10103000CF911F910F91FF90EF90DF90CF90089587
:101040006115710581F0DB010D900020E9F7AD011C
:1010500041505109461B570BDC01ED91FC91028078
:10106000F381E02D099480E090E00895DC01ED919A
:10107000FC91DB0114964D915C9115976D917C91DB
:101080000280F381E02D09940C942008DC01ED919D
:10109000FC910190F081E02D09946FE172E00C94D5
:1010A00020080F931F93CF93DF93EC010E94360823
:1010B0008C01CE010E944D08800F911FDF91CF91CE
:1010C0001F910F9108950F931F93CF93DF93EC011E
:1010D0000E9420088C01CE010E944D08800F911FB4
:1010E000DF91CF911F910F9108958F929F92AF92B0
:1010F000BF92CF92DF92EF92FF920F931F93CF9305
:10110000DF93CDB7DEB7A1970FB6F894DEBF0FBE61
:10111000CDBF7C01C42EE52FCB01D22E19A221E038
:101120002D1510F02AE0D22E8E010F5D1F4F8D2C51
:10113000912CA12CB12C6C2D7E2FA50194010E9425
:10114000CC108C2DD29E80191124015011098A30A7
:1011500014F4805D01C0895CF8018083211531059C
:101160004105510521F0C22EE32FCA01E4CFB80199
:10117000C7010E942008A1960FB6F894DEBF0FBEEB
:10118000CDBFDF91CF911F910F91FF90EF90DF9036
:10119000CF90BF90AF909F908F900895CF92DF92A5
:1011A000EF92FF920F931F93CF93DF93EC016A01AD
:1011B0007B012115310579F4E881F9810190F081F5
:1011C000E02D642FDF91CF911F910F91FF90EF9051
:1011D000DF90CF9009942A303105E9F477FF1AC0E7
:1011E0006DE20E9446088C0144275527BA014C192C
:1011F0005D096E097F092AE0CE010E947508800F03
:10120000911FDF91CF911F910F91FF90EF90DF9091
:10121000CF9008952AE0B701A601CE01DF91CF91CA
:101220001F910F91FF90EF90DF90CF900C94750875
:101230009A01AB01662757FD6095762F0C94CE0876
:101240002115310541F4DC01ED91FC910190F08113
:10125000E02D642F09940C9475080F931F93CF937E
:10126000DF93EC019A01AB0160E070E00E9420097D
:101270008C01CE010E944D08800F911FDF91CF910C
:101280001F910F9108950F931F93CF93DF93EC015C
:101290000E9420098C01CE010E944D08800F911FF1
:1012A000DF91CF911F910F9108950F931F93CF93CB
:1012B000DF93EC010E94C50F688779878A879B8737
:1012C000E881F9810680F781E02DCE01099597FF2D
:1012D00015C00E94C50F088519852A853B85601BAE
:1012E000710B820B930B0C811D812E813F81601746
:1012F00071078207930720F38FEF9FEFDF91CF9164
:101300001F910F9108950F931F93CF93DF93EC01DB
:101310008B0161E272E00E94CF0CC8010E94550966
:1013200097FD05C0682FCE010E94990DF6CFCE0122
:10133000DF91CF911F910F9108953F924F925F924D
:101340006F927F928F929F92AF92BF92CF92DF92D5
:10135000EF92FF920F931F93CF93DF9300D000D0B3
:10136000CDB7DEB78B0129013A019091130198178F
:1013700021F09F3F09F0DAC104C0ECE7F0E03490BF
:1013800081C080931301ECE7F0E0E491EF3F09F4B2
:10139000CDC1E13031F1E23009F44BC0E11171C04F
:1013A00014BC15BC94B5926094BD95B5916095BD83
:1013B000282F30E0F901EB55FF4FE491F0E0EE0FFC
:1013C000FF1FE754FF4F4591549150936B03409397
:1013D0006A03F901EF56FF4F249120936903312CE2
:1013E00053C010928000109281009091810098600B
:1013F0009093810090918100916090938100282FBB
:1014000030E0F901EB55FF4FE491F0E0EE0FFF1FE4
:10141000E754FF4F45915491509364034093630305
:10142000F901EF56FF4F2491209362033324339444
:101430002BC01092B0001092B1009091B000926059
:101440009093B0009091B10091609093B100282FDB
:1014500030E0F901EB55FF4FE491F0E0EE0FFF1F94
:10146000E754FF4F4591549150935D0340935C03C3
:10147000F901EF56FF4F249120935B0352E0352E84
:1014800003C03E2E37FC52C161E00E945D1048014E
:10149000A12CB12C832D8D7F09F0C7C060E072E1D3
:1014A0008AE790E0A50194010E94EE1029833A8317
:1014B0004B835C8369017A0181E0C81AD108E10895
:1014C000F1089FEFC916D104E104F10409F008F412
:1014D0009AC060E472E48FE090E0A50194010E945C
:1014E000EE1069017A01E1E0CE1AD108E108F108B5
:1014F000F2E03F1219C08FEFC816D104E104F104E5
:1015000009F008F48AC060E970ED83E090E0A5017D
:1015100094010E94EE1069017A0191E0C91AD10884
:10152000E108F10883E001C082E0EFEFCE16D104BC
:10153000E104F10409F008F467C068E478EE81E0A2
:1015400090E0A50194010E94EE1069017A01F1E09A
:10155000CF1AD108E108F1083320E1F082E0381217
:101560001BC09FEFC916D104E104F10409F008F48F
:10157000DBC064E274EF80E090E0A50194010E947A
:10158000EE1069017A01E1E0CE1AD108E108F10814
:1015900085E003C083E001C084E0FFEFCF16D104F3
:1015A000E104F10489F180F162E17AE780E090E002
:1015B000A50194010E94EE1069017A0181E0C81A28
:1015C000D108E108F108311002C084E001C086E0D2
:1015D0009FEFC916D104E104F104B1F0A8F0C9806D
:1015E000DA80EB80FC809AE0F594E794D794C79476
:1015F0009A95D1F7E1E0CE1AD108E108F10833203D
:1016000031F087E00BC081E0332011F007C085E0A6
:1016100095B5987F982B95BD38C082E09091B10028
:10162000987F982B9093B10030C060E072E18AE718
:1016300090E0A50194010E94EE1069017A01F1E0A9
:10164000CF1AD108E108F108C114D10481E0E806FD
:10165000F10488F068E478EE81E090E0A50194015F
:101660000E94EE1069017A0191E0C91AD108E108DF
:10167000F10893E001C091E0E1E03E1206C08091E4
:101680008100887F892B809381004114510461047B
:10169000710471F0D801AA0FBB1FA30192010E942F
:1016A000131128EE33E040E050E00E94CC1003C05C
:1016B0002FEF3FEFA901F1E03F16A1F082E03816CD
:1016C00019F1311033C0C7BC20936C0330936D0304
:1016D00040936E0350936F0380916E0082608093FD
:1016E0006E0024C0D0928900C092880020936503C8
:1016F00030936603409367035093680380916F00B3
:10170000826080936F0012C0C092B30020935E038A
:1017100030935F03409360035093610380917000A6
:1017200082608093700002C084E078CF0F900F90A9
:101730000F900F90DF91CF911F910F91FF90EF903D
:10174000DF90CF90BF90AF909F908F907F906F90E1
:101750005F904F903F900895813039F018F08230BB
:1017600051F0089510926E00089580916F008D7F62
:1017700080936F000895809170008D7F809370003A
:1017800081E08093B0008091B100887F8460809375
:10179000B1001092B3000895CF93C82F8091130128
:1017A0008C1307C0ECE7F0E084919FEF9093130156
:1017B00001C08FEF0E94AC0B60E08C2FCF910C9496
:1017C00096101F920F920FB60F9211242F933F93F2
:1017D0004F935F936F937F938F939F93AF93BF9339
:1017E000EF93FF9380915E0390915F03A09160035C
:1017F000B0916103892B8A2B8B2B51F190915B0364
:10180000E0915C03F0915D03808189278083809162
:101810005E0390915F03A0916003B091610318167D
:1018200019061A061B06C4F480915E0390915F03AB
:10183000A0916003B09161030197A109B109809360
:101840005E0390935F03A0936003B093610304C0B1
:10185000809113010E94CC0BFF91EF91BF91AF914A
:101860009F918F917F916F915F914F913F912F91B8
:101870000F900FBE0F901F901895CF93DF9300D05D
:1018800000D0CDB7DEB79B01AC01611571058105B4
:10189000910569F069833A834B835C830E94A312AC
:1018A00029813A814B815C810E94EE1003C060E087
:1018B00070E0CB010F900F900F900F90DF91CF91C0
:1018C0000895FC01808191810C94C511CF93DF9321
:1018D000EC0188819981009711F00E94C51119824D
:1018E00018821D821C821B821A82DF91CF9108957B
:1018F0000F931F93CF93DF93EC018B016F5F7F4FAB
:10190000888199810E94B112009731F09983888370
:101910001B830A8381E001C080E0DF91CF911F919A
:101920000F910895CF93DF93EC0188819981892BE2
:1019300029F08A819B818617970760F4CE010E9467
:10194000780C882341F08C819D81892B19F4E881E2
:10195000F981108281E0DF91CF910895EF92FF929B
:101960000F931F93CF93DF93EC017B018A01BA01A0
:101970000E94920C811104C0CE010E94660C07C027
:101980001D830C83B701888199810E94AB13CE011E
:10199000DF91CF911F910F91FF90EF900895FC017F
:1019A00011821082138212821582148261157105D0
:1019B00059F0FB0101900020E9F7AF0141505109B6
:1019C000461B570B0C94AE0C0895CF93DF93EC019C
:1019D000FB018617970761F06081718161157105C0
:1019E00029F0448155810E94AE0C02C00E94660C11
:1019F000CE01DF91CF910895CF93DF93EC01611574
:101A0000710561F0FB0101900020E9F7AF01415041
:101A10005109461B570B0E94AE0C02C00E94660C77
:101A2000CE01DF91CF9108950F931F93CF93DF9352
:101A3000CDB7DEB762970FB6F894DEBF0FBECDBF4D
:101A40008C01CB01F801118210821382128215825F
:101A5000148250E0BE016F5F7F4F0E94B213BE013F
:101A60006F5F7F4FC8010E94FC0C62960FB6F8941E
:101A7000DEBF0FBECDBFDF91CF911F910F910895B3
:101A80000F931F93CF93DF93CDB7DEB7A2970FB617
:101A9000F894DEBF0FBECDBF8C01CB01BA01F801B7
:101AA00011821082138212821582148230E0AE01FC
:101AB0004F5F5F4F0E94C813BE016F5F7F4FC80129
:101AC0000E94FC0CA2960FB6F894DEBF0FBECDBFED
:101AD000DF91CF911F910F910895EF92FF920F9395
:101AE0001F93CF93DF93EC017B010C811D81611566
:101AF000710511F480E016C04115510591F0040FF5
:101B0000151FB8010E94920C8823A1F32881398106
:101B10008C819D81B701820F931F0E94AB131D839F
:101B20000C8381E0DF91CF911F910F91FF90EF9097
:101B30000895CF93DF9300D0CDB7DEB769831A82C3
:101B400041E050E0BE016F5F7F4F0E946D0D0F902E
:101B50000F90DF91CF910895CF93DF93EC01FB01BC
:101B600044815581608171810E946D0D811103C096
:101B7000CE010E94660CCE01DF91CF910895FC0149
:101B800080819181009711F00C947B1360E070E0EC
:101B9000CB010895CF93DF93EC0160E08E810E942A
:101BA000961081E090E00E94D10F61E08E810E944A
:101BB000961081E090E00E94D10F60E08E810E943B
:101BC000961084E690E0DF91CF910C94D10FCF92E4
:101BD000DF92EF92FF920F931F93CF93DF937C01DD
:101BE000C0E0D0E0C62ED12C87010C0F1D1F61E094
:101BF000F80187810E945D10B6010C2E02C0759518
:101C000067950A94E2F76170F80187810E94961047
:101C10002196C430D10541F7C701DF91CF911F91C3
:101C20000F91FF90EF90DF90CF900C94CA0DCF9260
:101C3000DF92EF92FF920F931F93CF93DF937C017C
:101C4000C0E0D0E0C62ED12C87010C0F1D1F61E033
:101C5000F80187810E945D10B6010C2E02C07595B7
:101C600067950A94E2F76170F80187810E949610E7
:101C70002196C830D10541F7C701DF91CF911F915F
:101C80000F91FF90EF90DF90CF900C94CA0D1F93AF
:101C9000CF93DF93EC01162F642F8C810E94961056
:101CA0008D818F3F19F060E00E9496108F85612F23
:101CB00084FF06C0CE01DF91CF911F910C94170EC7
:101CC00070E084E0759567958A95E1F7CE010E94F2
:101CD000E70D612FCE01DF91CF911F910C94E70D9D
:101CE00040E00C94470E61E00E94700E80ED97E09A
:101CF0000C94D10F443008F043E0FC0123894217D3
:101D000010F04FEF420FFC01E40FF11D2489260F64
:101D10002068622F0C94700EFC016089262F2460CD
:101D2000208B6C600C94700ECF93DF93EC014230EB
:101D300018F08F8588608F874B8B1C8A80E48D8B91
:101D40006E8B70E0605C7F4F6F8B222329F04130F7
:101D500019F48F8584608F8780E593EC0E94D10F02
:101D600060E08C810E94961060E08E810E94961047
:101D70008D818F3F19F060E00E9496106F8564FDA1
:101D80001DC063E0CE010E94E70D84E991E10E944D
:101D9000D10F63E0CE010E94E70D84E991E10E943A
:101DA000D10F63E0CE010E94E70D86E990E00E942A
:101DB000D10F62E0CE010E94E70D16C06062CE0135
:101DC0000E94700E84E991E10E94D10F6F856062DC
:101DD000CE010E94700E86E990E00E94D10F6F85BF
:101DE0006062CE010E94700E6F856062CE010E941B
:101DF000700E84E0888BCE010E948C0ECE010E9472
:101E0000730E82E0898B66E0CE01DF91CF910C9456
:101E1000700E6F927F928F92AF92CF92EF920F934C
:101E20001F93CF93DF93CDB7DEB73C01162F842FDE
:101E30005D854E853F859889F301848325830683DC
:101E4000E782C086A1868286538744873587968736
:101E500061E00E945D10F30185818F3F19F061E020
:101E60000E945D1061E0F30186810E945D101123E4
:101E700019F0F301178603C080E1F301878720E0A2
:101E800041E060E1C301DF91CF911F910F91EF908D
:101E9000CF90AF908F907F906F900C94940E8F9214
:101EA000AF92CF92EF920F93DC0113961C921E9289
:101EB0001297E4E3F2E0ED93FC931F921F921F92BE
:101EC0001F928C2CAE2CC02EE22E042F2FEF462F0B
:101ED00061E00E94090F0F900F900F900F900F91EB
:101EE000EF90CF90AF908F90089541E00E94470E01
:101EF00081E090E008951F920F920FB60F92112487
:101F00002F933F938F939F93AF93BF9380917103D0
:101F100090917203A0917303B09174033091700398
:101F200023E0230F2D3720F40196A11DB11D05C01C
:101F300026E8230F0296A11DB11D20937003809304
:101F4000710390937203A0937303B0937403809111
:101F5000750390917603A0917703B0917803019671
:101F6000A11DB11D8093750390937603A093770311
:101F7000B0937803BF91AF919F918F913F912F9133
:101F80000F900FBE0F901F9018952FB7F894609187
:101F900071037091720380917303909174032FBF4A
:101FA00008958230910538F0880F991F880F991F86
:101FB00005970197F1F70895789484B5826084BD00
:101FC00084B5816084BD85B5826085BD85B581603D
:101FD00085BDEEE6F0E0808181608083E1E8F0E09D
:101FE0001082808182608083808181608083E0E8CC
:101FF000F0E0808181608083E1EBF0E080818460AB
:102000008083E0EBF0E0808181608083EAE7F0E0AC
:102010008081846080838081826080838081816010
:1020200080838081806880831092C10008958E3003
:1020300008F08E5087702091140190E4299F900140
:102040001124822B80937C0080917A00806480939D
:102050007A0080917A0086FDFCCF809178002091F3
:10206000790090E0922B0895833081F028F481303C
:1020700099F08230A1F008958730A9F08830B9F046
:102080008430D1F4809180008F7D03C080918000E6
:102090008F7780938000089584B58F7702C084B5D0
:1020A0008F7D84BD08958091B0008F7703C08091AB
:1020B000B0008F7D8093B0000895CF93DF9390E0C0
:1020C000FC01EF56FF4F2491FC01EB55FF4F84912B
:1020D000882349F190E0880F991FFC01ED53FF4FD1
:1020E000A591B49187549F4FFC01C591D4919FB79E
:1020F000611108C0F8948C91209582238C9388817B
:1021000082230AC0623051F4F8948C91322F3095BA
:1021100083238C938881822B888304C0F8948C91CC
:10212000822B8C939FBFDF91CF9108950F931F93C4
:10213000CF93DF931F92CDB7DEB7282F30E0F901A0
:10214000E358FF4F8491F901EF56FF4F1491F901C5
:10215000EB55FF4F04910023C9F0882321F06983D8
:102160000E9434106981E02FF0E0EE0FFF1FE7546A
:10217000FF4FA591B4919FB7F8948C91611103C062
:102180001095812301C0812B8C939FBF0F90DF910D
:10219000CF911F910F910895A1E21A2EAA1BBB1B8C
:1021A000FD010DC0AA1FBB1FEE1FFF1FA217B30723
:1021B000E407F50720F0A21BB30BE40BF50B661F39
:1021C000771F881F991F1A9469F7609570958095FD
:1021D00090959B01AC01BD01CF010895052E97FBA1
:1021E0001EF400940E94051157FD07D00E94CC10E8
:1021F00007FC03D04EF40C94051150954095309592
:1022000021953F4F4F4F5F4F089590958095709562
:1022100061957F4F8F4F9F4F0895EE0FFF1F0590E1
:10222000F491E02D09940E941E11A59F900DB49F7A
:10223000900DA49F800D911D11240895A29FB001BF
:10224000B39FC001A39F700D811D1124911DB29FEA
:10225000700D811D1124911D0895CF93DF9382305D
:10226000910510F482E090E0E0917B03F0917C0313
:1022700020E030E0A0E0B0E0309739F140815181BA
:1022800048175907B8F04817590771F482819381AC
:10229000109729F013969C938E9312972CC09093CD
:1022A0007C0380937B0327C02115310531F0421751
:1022B000530718F0A901DB0101C0EF019A01BD012C
:1022C000DF010280F381E02DD7CF21153105F9F030
:1022D000281B390B2430310580F48A819B816115DC
:1022E000710521F0FB019383828304C090937C03EA
:1022F00080937B03FE01329644C0FE01E20FF31F80
:102300008193919322503109398328833AC02091D7
:10231000790330917A03232B41F42091020130910B
:10232000030130937A0320937903209100013091C7
:1023300001012115310541F42DB73EB7409104014B
:1023400050910501241B350BE0917903F0917A033C
:10235000E217F307A0F42E1B3F0B2817390778F07C
:10236000AC014E5F5F4F2417350748F04E0F5F1FDB
:1023700050937A03409379038193919302C0E0E0F4
:10238000F0E0CF01DF91CF910895CF93DF930097D5
:1023900009F487C0FC01329713821282C0917B033B
:1023A000D0917C03209781F420813181280F391F3F
:1023B0008091790390917A038217930779F5F093CE
:1023C0007A03E09379036DC0DE0120E030E0AE17C0
:1023D000BF0750F412964D915C9113979D014115E2
:1023E000510509F1DA01F3CFB383A2834081518112
:1023F000840F951F8A179B0771F48D919C911197FB
:10240000840F951F02969183808312968D919C91E3
:102410001397938382832115310529F4F0937C036C
:10242000E0937B033EC0D9011396FC93EE93129781
:102430004D915D91A40FB51FEA17FB0779F48081D8
:102440009181840F951F0296D90111969C938E93CA
:102450008281938113969C938E931297E0E0F0E033
:102460008A819B81009719F0FE01EC01F9CFCE0122
:10247000029628813981820F931F20917903309130
:102480007A032817390769F4309729F410927C03EE
:1024900010927B0302C013821282D0937A03C093FE
:1024A0007903DF91CF9108958F929F92AF92BF925F
:1024B000CF92DF92EF92FF92CF93DF93EC0168818E
:1024C00079818A819B81611571058105910521F4CE
:1024D00064E279ED8BE597E02DE133EF41E050E0E8
:1024E0000E94EE1049015A019B01AC01A7EAB1E438
:1024F0000E9413116B017C01ACEEB4EFA5019401B5
:102500000E944614C60ED71EE81EF91EF7FE06C02E
:1025100081E0C81AD108E10880E8F80AC882D982A7
:10252000EA82FB82C701B6019F77DF91CF91FF90CE
:10253000EF90DF90CF90BF90AF909F908F900895D5
:102540000E945412089586E091E00E94541208956A
:10255000609306017093070180930801909309012D
:102560000895A0E0B0E0E7EBF2E10C944F14EC0129
:10257000CB01209719F40E942D11B8C0FE01E60F7F
:10258000F71F9E0122503109E217F30708F4ACC08F
:10259000D9010D911C91119706171707B8F0053056
:1025A000110508F49FC0A801445051094617570768
:1025B00008F498C002501109061B170B01931193E0
:1025C0006D937C93CF010E94C5118CC05B01A01A52
:1025D000B10A4E01800E911EA0917B03B0917C0345
:1025E000612C712C60E070E0109709F449C0A815C7
:1025F000B905C9F5ED90FC901197670142E0C40E52
:10260000D11CCA14DB0478F147018A189B086401C5
:1026100042E0C40ED11C1296BC9012971396AC9156
:10262000B5E0CB16D10440F0B282A38391828082C0
:10263000D9018D939C9309C00E5F1F4F0E0D1F1D76
:10264000F90111830083EB2DFA2F6115710531F02B
:10265000DB011396FC93EE93129744C0F0937C0336
:10266000E0937B033FC06D917C91119766167706CE
:1026700008F43B01BD0112960D90BC91A02DB4CF82
:102680006091790370917A0368157905E9F4681609
:102690007906D0F440910001509101014115510596
:1026A00041F44DB75EB76091040170910501461B7E
:1026B000570BE417F507C0F4F0937A03E09379031E
:1026C000F901918380830EC00E942D117C01009737
:1026D00059F0A801BE010E94A213CE010E94C511AB
:1026E000C70104C0CE0102C080E090E0CDB7DEB7E4
:1026F000EEE00C946B141F93FC0199278827BC0112
:10270000E89411911032E9F3193010F01E30C8F33B
:102710001B3251F01D3249F4689406C00E94E21346
:10272000610F711D811D911D119110531A30B0F36D
:102730003EF490958095709561957F4F8F4F9F4F98
:102740001F910895FB01DC0102C001900D924150E0
:102750005040D8F70895FB01DC0101900D92002054
:10276000E1F708954532510520F4423010F00C9401
:10277000BD13FB011082CB010895BB274A3031F411
:10278000992322F4BDE2909581959F4F0C941A14E1
:102790002532310520F4223010F00C94D313FA01C5
:1027A0001082CA010895BB272A3051F4992342F4BC
:1027B000BDE290958095709561957F4F8F4F9F4FAB
:1027C0000C94F813592F482F372F262F660F771F99
:1027D000881F991F660F771F881F991F620F731F2D
:1027E000841F951F660F771F881F991F0895BB27A9
:1027F000FA01A62F6217710581059105330B30FB95
:1028000066F0AA27660F771F881F991FAA1FA217B5
:1028100010F0A21B63953850A9F7A05DAA3308F009
:10282000A95DA19336F7B111B1931082CA010C943E
:102830003314BB27FB015527AA27880F991FAA1F0E
:10284000A41710F0A41B83955051B9F7A05DAA33CB
:1028500008F0A95DA193009779F7B111B193119296
:10286000CB010C943314DC01FC01672F71917723A9
:10287000E1F7329704C07C916D9370836291AE173B
:10288000BF07C8F30895B7FF0C9413110E941311EA
:10289000821B930B08952F923F924F925F926F92FB
:1028A0007F928F929F92AF92BF92CF92DF92EF92E0
:1028B000FF920F931F93CF93DF93CDB7DEB7CA1B61
:1028C000DB0B0FB6F894DEBF0FBECDBF09942A888C
:1028D000398848885F846E847D848C849B84AA8434
:1028E000B984C884DF80EE80FD800C811B81AA81C1
:1028F000B981CE0FD11D0FB6F894DEBF0FBECDBF8C
:10290000ED01089510E0C4EDD0E004C0FE010E9486
:0E2910000F112296C63DD107C9F7F894FFCFEC
:10291E0000007D03800001000000010A00FA0001A2
:10292E00000100FF01234D6F757365204E616D65CB
:10293E003A20004D6F7573654B002300235365736A
:10294E0073696F6E205479706520496E6465783AAC
:10295E0020002353657373696F6E3A200023507203
:10296E00657373207468652053454C45435420624B
:10297E00757474626F6E210020202020202020208C
:10298E002020007374617274004000312031005BAE
:10299E0000436E74726C0044656C6179008101AD08
:1029AE000187012020202050726500202020204326
:1029BE00532B002020202043532D002020547261E1
:1029CE0063650020202020205553004E6F2D50753A
:1029DE00666600202020504F5354002020202049AE
:1029EE0054490020202020454E440020506175732C
:1029FE0065200093019B01A301AB01B301BB01C391
:102A0E0001CB01D301DB0150524553532053454CAA
:102A1E00454354005D0020300024003E00130000AA
:102A2E000000008C06F8070E06270619066A060D2A
:102A3E000A006E616E00696E66006F7666002E008B
:082A4E0000000000750FF807FD
:040000050080025223
:00000001FF
