:100000000C946B000C9493000C9493000C9493004C
:100010000C9493000C9493000C9493000C94E00ABD
:100020000C9493000C9493000C9493000C94930004
:100030000C9493000C9493000C9493000C949300F4
:100040000C942F0E0C9493000C94FB050C942D062D
:100050000C9493000C9493000C9493000C949300D4
:100060000C9493000C949300D50206032C033F03D9
:1000700075038703A003C50381048C0402000000FC
:100080000800020100000304070000000000000057
:100090000001020408102040800102040810200121
:1000A00002040810200404040404040404020202EC
:1000B00002020203030303030300000000250028DB
:1000C000002B0000000000240027002A00002A0165
:1000D00060015D06670111241FBECFEFD8E0DEBFCF
:1000E000CDBF12E0A0E0B1E0E6E9F5E202C0059084
:1000F0000D92AC30B107D9F723E0ACE0B2E001C01B
:100100001D92A930B207E1F710E0C4EDD0E004C0C1
:100110002297FE010E94C30FCE3CD107C9F70E946F
:10012000A7040C94BE120C9400008091DA010E9486
:10013000CB0E90934902809348024AE050E0BC0104
:100140008AE492E00E94C80780914602909147029B
:10015000019690934702809346020895CF92DF92D2
:10016000EF92FF920F931F93CF93DF93EC018B01DC
:100170000E94790EC0904202D0904302E090440267
:10018000F09045026C197D098E099F0920E63AEE30
:1001900040E050E00E94800F69017A0140E06EE08B
:1001A0008EE092E00E942E0D4AE050E0B6018EE013
:1001B00092E00E94C00741E065E08EE092E00E947C
:1001C0002E0D4AE050E0B8018EE092E00E94C00798
:1001D00041E069E08EE092E00E942E0DCC0FDD1F21
:1001E000CD59DE4F688179818EE092E0DF91CF9129
:1001F0001F910F91FF90EF90DF90CF900C94EC0641
:100200008EE00E94CB0E90930D0280930C02893EEB
:1002100023E0920794F4823691058CF08E3F91058D
:1002200084F0883921E0920774F0883522E0920743
:1002300064F0843893405CF0089585E009C080E064
:1002400007C081E005C082E003C083E001C084E014
:1002500090E00895CF92EF920F939DE0C92E22E097
:10026000E22E00E121E149E06FE08EE092E00E94A1
:10027000030E0F91EF90CF9008950C944A0F0895BC
:1002800061E08BE00E94110F26E040E855E260E05B
:1002900070E08AE492E00E94990520E042E060E18B
:1002A0008EE092E00E94480D41E064E08EE092E032
:1002B0000E942E0D67E771E08EE092E00C94EC0650
:1002C0004AE061E070E086E392E00C94130C86E370
:1002D00092E00C94600BCF92DF92EF92FF920F931B
:1002E0001F93CF93DF93CDB7DEB72C970FB6F8945B
:1002F000DEBF0FBECDBF8091260281110BC10CE382
:1003000012E08AE492E00E94B604181619063CF442
:100310008AE492E00E949908F801718360830E5F7D
:100320001F4FF2E002341F0761F760913C027091A9
:100330003D024AE0CE0107960E94130C64E871E08A
:10034000CE0101960E94CE0BBE01695F7F4FCE01A8
:1003500001960E946B0CBC0186E392E00E94E40BC4
:10036000CE0101960E94600BCE0107960E94600BA1
:1003700080913E0290913F029093100180930F0173
:10038000809140029091410290930E0180930D0163
:100390000E940001049709F0BBC00E94790E60938F
:1003A000420270934302809344029093450281E09D
:1003B0008093260241E060E08EE092E00E942E0DE4
:1003C00069E371E08EE092E00E94EC0641E061E0BA
:1003D0008EE092E00E942E0D60910D0170910E0151
:1003E0004AE050E08EE092E00E94C00741E064E005
:1003F0008EE092E00E942E0D62E871E08EE092E0C5
:100400000E94EC0640E060E08EE092E00E942E0D3B
:1004100066E372E08EE092E00E94DE0640E068E073
:100420008EE092E00E942E0DE0910F01F0911001FC
:10043000EE0FFF1FE452FE4F608171818EE092E06B
:100440000E94EC0641E066E08EE092E00E942E0DF4
:100450006BE871E08EE092E00E94EC0666E372E0E9
:100460008AE492E00E94F90666E971E08AE492E08B
:100470000E94EC0660910D0170910E014AE050E07F
:100480008AE492E00E94C0076EE971E08AE492E09B
:100490000E94EC06E0910F01F0911001EE0FFF1F9A
:1004A000E452FE4F608171818AE492E00E940B0762
:1004B00061EA71E08AE492E00E940B0763EA71E06E
:1004C0008AE492E00E94EC066EEA71E08AE492E02F
:1004D0000E94EC0660EB71E08AE492E00E94EC0678
:1004E00063EB71E08AE492E00E940B0780910F01B8
:1004F00090911001029729F410920C0110920B01B7
:1005000009C08AEF90E090930C0180930B0102C028
:100510001092260211E080912602882309F408C275
:100520008091270290912802892BD9F40E94790E9C
:1005300060932F02709330028093310290933202C5
:100540000E94790E60932B0270932C0280932D02EF
:1005500090932E0281E090E09093280280932702EE
:10056000DACF0E94790E6B017C0180912F0290916D
:100570003002A0913102B0913202C81AD90AEA0AB7
:10058000FB0A0E94790E0E940001892B11F410933E
:100590003302E0913402F0913502EA30F10508F0BF
:1005A000BACFEC5CFF4F0C94C10F0E949500609194
:1005B00027027091280280E090E00E94AE0088E857
:1005C000C81683E1D806E104F10408F4A4CF8091B1
:1005D0000A01882361F081E090E0909335028093D6
:1005E000340220E030E0A9016CE175E20BC082E04A
:1005F00090E0909335028093340220E030E0A9012E
:1006000068E97AE38AE00E949C081BC00E9495007A
:10061000609127027091280281E090E00E94AE0074
:10062000EEE5CE16E1E0DE06E104F10408F473CF56
:1006300083E090E090933502809334028AE00E9438
:10064000CB0A0E94790E60932F0270933002809340
:100650003102909332025FCF0E9495006091270291
:100660007091280282E090E00E94AE00FEE5CF1675
:10067000F1E0DF06E104F10408F44DCFD9CF0E9488
:100680009500609127027091280283E090E00E941B
:10069000AE0080910B0190910C01AA2797FDA095C7
:1006A000BA2FC816D906EA06FB0608F434CF8091A3
:1006B0000F0190911001892B61F080910A0188232C
:1006C00041F061E08BE090E00E943D0184E090E029
:1006D00007C060E08BE090E00E943D0185E090E083
:1006E0009093350280933402ACCF0E9495006091C4
:1006F00027027091280284E090E00E94AE0084E618
:10070000C816D104E104F10408F405CF11C00E9419
:100710009500609127027091280285E090E00E9488
:10072000AE00E4E6CE16D104E104F10408F4F3CE01
:1007300060E08BE090E00E943D0186E090E0D0CF49
:100740000E949500609127027091280286E090E057
:100750000E94AE00F4E5CF16F4E2DF06E104F104F6
:1007600008F4D9CE87E090E090933502809334026C
:1007700068E97AE380E090E00E943C0B6856754C93
:1007800070932A02609329025CCF609127027091D6
:10079000280287E090E00E94AE00809129029091AB
:1007A0002A02AA2797FDA095BA2FC816D906EA06ED
:1007B000FB0608F4B0CE80912702909128020196A2
:1007C000909328028093270269EB71E08AE492E01B
:1007D0000E94EC0660914602709147024AE050E0A8
:1007E0008AE492E00E94C8071092470210924602E3
:1007F00080912702909128020B976CF088E090E09E
:10080000909335028093340261EA71E08AE492E0C9
:100810000E940B0780CE109235021092340261EADA
:1008200071E08AE492E00E940B076AE070E080E0E9
:1008300090E00E943C0B6630710581059105DCF06B
:1008400010930A0163EA71E08AE492E00E94EC06E8
:1008500060912702709128024AE050E08AE492E019
:100860000E94C00761EB71E08AE492E00E94EC060E
:1008700063EB71E01AC010920A0163EA71E08AE446
:1008800092E00E94EC0660912702709128024AE0F3
:1008900050E08AE492E00E94C00761EB71E08AE4D4
:1008A00092E00E94EC0668EC71E08AE492E00E941B
:1008B0000B0780913302882379F0609127027091B1
:1008C000280289E090E00E94AE0089E090E09093D9
:1008D0003502809334021FCE0E94790E60932F025E
:1008E0007093300280933102909332020E94790E0D
:1008F00060932B0270932C0280932D0290932E0212
:100900000ACE60912702709128026150710988E037
:1009100090E00E94AE00FFCD0E940001039709F015
:10092000FACD109233021092350210923402F3CDB8
:100930002C960FB6F894DEBF0FBECDBFDF91CF91DE
:100940001F910F91FF90EF90DF90CF9008950E943C
:10095000900E0E943F010E944001C3EED4E00E942D
:100960006B012097E1F30E94E304F9CFFC01818D34
:10097000228D90E0805C9F4F821B91098F73992795
:100980000895FC01918D828D981731F0828DE80FCA
:10099000F11D858D90E008958FEF9FEF0895FC0184
:1009A000918D828D981761F0828DDF01A80FB11DA6
:1009B0005D968C91928D9F5F9F73928F90E00895CA
:1009C0008FEF9FEF089583E596E0892B49F080E053
:1009D00090E0892B29F00E94530681110C940000AD
:1009E0000895FC01848DDF01A80FB11DA35ABF4FEC
:1009F0002C91848D90E001968F739927848FA6891E
:100A0000B7892C93A089B1898C9180648C93938D44
:100A1000848D981306C00288F389E02D80818F7D34
:100A200080830895CF93DF93EC01888D8823C9F0EC
:100A3000EA89FB89808185FD05C0A889B9898C91E7
:100A400086FD0FC00FB607FCF5CF808185FFF2CF82
:100A5000A889B9898C9185FFEDCFCE010E94F10460
:100A6000E7CFDF91CF910895CF92DF92FF920F935E
:100A70001F93CF93DF931F92CDB7DEB76C0181E058
:100A8000D60158968C9358975B969C915B975C9691
:100A90008C915C97981307C05096ED91FC915197FB
:100AA000808185FD2EC0F601038D10E00F5F1F4F82
:100AB0000F731127F02EF601848DF81211C00FB6B6
:100AC00007FCF9CFD6015096ED91FC9151978081AA
:100AD00085FFF1CFC60169830E94F1046981EBCFE4
:100AE000838DE80FF11DE35AFF4F6083D6015B96BB
:100AF0000C935B975296ED91FC91539780818062A5
:100B00000CC0D6015696ED91FC9157976083509694
:100B1000ED91FC91519780818064808381E090E029
:100B20000F90DF91CF911F910F91FF90DF90CF90A9
:100B30000895BF92CF92DF92EF92FF92CF93DF930F
:100B4000EC016A017B01B22EE889F98982E0808399
:100B5000411581EE580761057105A1F060E079E06B
:100B60008DE390E0A70196010E94800F215031098A
:100B7000410951095695479537952795211580E1EB
:100B8000380798F0E889F989108260E874E88EE106
:100B900090E0A70196010E94800F21503109410980
:100BA00051095695479537952795EC85FD853083F6
:100BB000EE85FF852083188EEC89FD89B082EA8955
:100BC000FB89808180618083EA89FB8980818860DC
:100BD0008083EA89FB89808180688083EA89FB8938
:100BE00080818F7D8083DF91CF91FF90EF90DF90A8
:100BF000CF90BF9008951F920F920FB60F921124BD
:100C00002F938F939F93EF93FF93E0915A02F0916C
:100C10005B028081E0916002F091610282FD12C06E
:100C20009081809163028F5F8F732091640282179D
:100C300051F0E0916302F0E0E65BFD4F958F809309
:100C4000630201C08081FF91EF919F918F912F915D
:100C50000F900FBE0F901F9018951F920F920FB616
:100C60000F9211242F933F934F935F936F937F9332
:100C70008F939F93AF93BF93EF93FF938AE492E098
:100C80000E94F104FF91EF91BF91AF919F918F91DD
:100C90007F916F915F914F913F912F910F900FBE78
:100CA0000F901F9018958AE492E00E94B60421E00C
:100CB000892B09F420E0822F089510924D021092A2
:100CC0004C0288EE93E0A0E0B0E080934E02909357
:100CD0004F02A0935002B093510286EE91E09093A0
:100CE0004B0280934A0285EC90E0909357028093E8
:100CF000560284EC90E0909359028093580280EC65
:100D000090E090935B0280935A0281EC90E0909384
:100D10005D0280935C0282EC90E090935F0280938E
:100D20005E0286EC90E090936102809360021092E4
:100D30006302109264021092650210926602089596
:100D4000CF92DF92EF92FF920F931F93CF93DF9397
:100D50006C017A01EB01E60EF71E00E010E0CE1503
:100D6000DF0561F06991D601ED91FC910190F08170
:100D7000E02DC6010995080F191FF1CFC801DF91B9
:100D8000CF911F910F91FF90EF90DF90CF9008953A
:100D90006115710581F0DB010D900020E9F7AD01CF
:100DA00041505109461B570BDC01ED91FC9102802B
:100DB000F381E02D099480E090E00895DC01ED914D
:100DC000FC91DB0114964D915C9115976D917C918E
:100DD0000280F381E02D09940C94C806DC01ED91AA
:100DE000FC910190F081E02D099462EF71E00C9488
:100DF000C8060F931F93CF93DF93EC010E94DE068A
:100E00008C01CE010E94F506800F911FDF91CF91DA
:100E10001F910F9108950F931F93CF93DF93EC01D0
:100E20000E94C8068C01CE010E94F506800F911F1A
:100E3000DF91CF911F910F9108958F929F92AF9262
:100E4000BF92CF92DF92EF92FF920F931F93CF93B7
:100E5000DF93CDB7DEB7A1970FB6F894DEBF0FBE14
:100E6000CDBF7C01C42EE52FCB01D22E19A221E0EB
:100E70002D1510F02AE0D22E8E010F5D1F4F8D2C04
:100E8000912CA12CB12C6C2D7E2FA50194010E94D8
:100E9000800F8C2DD29E80191124015011098A30A7
:100EA00014F4805D01C0895CF8018083211531054F
:100EB0004105510521F0C22EE32FCA01E4CFB8014C
:100EC000C7010E94C806A1960FB6F894DEBF0FBEF8
:100ED000CDBFDF91CF911F910F91FF90EF90DF90E9
:100EE000CF90BF90AF909F908F900895CF92DF9258
:100EF000EF92FF920F931F93CF93DF93EC016A0160
:100F00007B012115310579F4E881F9810190F081A7
:100F1000E02D642FDF91CF911F910F91FF90EF9003
:100F2000DF90CF9009942A303105E9F477FF1AC099
:100F30006DE20E94EE068C0144275527BA014C1938
:100F40005D096E097F092AE0CE010E941D07800F0E
:100F5000911FDF91CF911F910F91FF90EF90DF9044
:100F6000CF9008952AE0B701A601CE01DF91CF917D
:100F70001F910F91FF90EF90DF90CF900C941D0781
:100F80009A01AB01662757FD6095762F0C94760782
:100F90000F931F93CF93DF93EC019A01AB01662768
:100FA00057FD6095762F0E9476078C01CE010E9436
:100FB000F506800F911FDF91CF911F910F9108953A
:100FC0000F931F93CF93DF93EC010E94790E6887F4
:100FD00079878A879B87E881F9810084F185E02DF4
:100FE000CE01099597FF15C00E94790E08851985D5
:100FF0002A853B85601B710B820B930B0C811D8135
:101000002E813F81601771078207930720F38FEFCE
:101010009FEFDF91CF911F910F910895CF93DF93B1
:10102000EC01CE010E94E00797FD11C08D329105C1
:1010300071F09C01205331092A30310540F0E881DC
:10104000F9810680F781E02DCE010995EACFDF9185
:10105000CF910895CF92DF92FF920F931F93CF937A
:10106000DF9300D000D0CDB7DEB76C01062F0E9411
:101070000E08FC0197FD4BC020E030E0A901F12CE7
:10108000112707FD1095E017F107E9F0ED32F105A2
:10109000C1F0CF01C0970A97B0F4AAE0B0E00E9477
:1010A000C70F9B01AC01CF01AA2797FDA095BA2FCE
:1010B000280F391F4A1F5B1F20533109410951096D
:1010C00002C0FF24F394D601ED91FC910680F781D4
:1010D000E02DC60129833A834B835C830995C601C1
:1010E0000E94E007FC01C09729813A814B815C8115
:1010F0000A9748F2E017F10731F2FF2061F0662706
:101100007727CB01621B730B840B950B06C060E045
:1011100070E0CB0102C0CA01B9010F900F900F908F
:101120000F90DF91CF911F910F91FF90DF90CF90A3
:10113000089561E00C942A083F924F925F926F925B
:101140007F928F929F92AF92BF92CF92DF92EF9257
:10115000FF920F931F93CF93DF9300D000D0CDB7B2
:10116000DEB78B0129013A0190911101981721F006
:101170009F3F09F0DAC104C0ECE7F0E0349081C091
:1011800080931101ECE7F0E0E491EF3F09F4CDC169
:10119000E13031F1E23009F44BC0E11171C014BC0F
:1011A00015BC94B5926094BD95B5916095BD282FFE
:1011B00030E0F901EB55FF4FE491F0E0EE0FFF1F37
:1011C000E754FF4F459154915093F7024093F60234
:1011D000F901EF56FF4F24912093F502312C53C0B3
:1011E00010928000109281009091810098609093FD
:1011F000810090918100916090938100282F30E0D0
:10120000F901EB55FF4FE491F0E0EE0FFF1FE754BB
:10121000FF4F459154915093F0024093EF02F90132
:10122000EF56FF4F24912093EE02332433942BC0CA
:101230001092B0001092B1009091B0009260909323
:10124000B0009091B10091609093B100282F30E0F0
:10125000F901EB55FF4FE491F0E0EE0FFF1FE7546B
:10126000FF4F459154915093E9024093E802F901F0
:10127000EF56FF4F24912093E70252E0352E03C032
:101280003E2E37FC52C161E00E94110F4801A12C93
:10129000B12C832D8D7F09F0C7C060E072E18AE731
:1012A00090E0A50194010E94A20F29833A834B8309
:1012B0005C8369017A0181E0C81AD108E108F1086C
:1012C0009FEFC916D104E104F10409F008F49AC0B3
:1012D00060E472E48FE090E0A50194010E94A20F07
:1012E00069017A01E1E0CE1AD108E108F108F2E0E3
:1012F0003F1219C08FEFC816D104E104F10409F0C0
:1013000008F48AC060E970ED83E090E0A5019401E3
:101310000E94A20F69017A0191E0C91AD108E1087F
:10132000F10883E001C082E0EFEFCE16D104E104C2
:10133000F10409F008F467C068E478EE81E090E019
:10134000A50194010E94A20F69017A01F1E0CF1A70
:10135000D108E108F1083320E1F082E038121BC027
:101360009FEFC916D104E104F10409F008F4DBC0D1
:1013700064E274EF80E090E0A50194010E94A20F66
:1013800069017A01E1E0CE1AD108E108F10885E0AF
:1013900003C083E001C084E0FFEFCF16D104E10475
:1013A000F10489F180F162E17AE780E090E0A50143
:1013B00094010E94A20F69017A0181E0C81AD10844
:1013C000E108F108311002C084E001C086E09FEF1F
:1013D000C916D104E104F104B1F0A8F0C980DA80A3
:1013E000EB80FC809AE0F594E794D794C7949A95A3
:1013F000D1F7E1E0CE1AD108E108F108332031F04D
:1014000087E00BC081E0332011F007C085E095B57F
:10141000987F982B95BD38C082E09091B100987F5D
:10142000982B9093B10030C060E072E18AE790E0C1
:10143000A50194010E94A20F69017A01F1E0CF1A7F
:10144000D108E108F108C114D10481E0E806F104F3
:1014500088F068E478EE81E090E0A50194010E94B4
:10146000A20F69017A0191E0C91AD108E108F108D7
:1014700093E001C091E0E1E03E1206C0809181005E
:10148000887F892B80938100411451046104710489
:1014900071F0D801AA0FBB1FA30192010E94C70FD0
:1014A00028EE33E040E050E00E94800F03C02FEFB1
:1014B0003FEFA901F1E03F16A1F082E0381619F1E3
:1014C000311033C0C7BC2093F8023093F902409327
:1014D000FA025093FB0280916E00826080936E004E
:1014E00024C0D0928900C09288002093F1023093EA
:1014F000F2024093F3025093F40280916F008260F5
:1015000080936F0012C0C092B3002093EA02309320
:10151000EB024093EC025093ED02809170008260E8
:101520008093700002C084E078CF0F900F900F90EE
:101530000F90DF91CF911F910F91FF90EF90DF906F
:10154000CF90BF90AF909F908F907F906F905F9063
:101550004F903F900895813039F018F0823051F06B
:10156000089510926E00089580916F008D7F809392
:101570006F000895809170008D7F8093700081E0EE
:101580008093B0008091B100887F84608093B10027
:101590001092B3000895CF93C82F809111018C133E
:1015A00007C0ECE7F0E084919FEF9093110101C038
:1015B0008FEF0E94AB0A60E08C2FCF910C944A0F02
:1015C0001F920F920FB60F9211242F933F934F93B8
:1015D0005F936F937F938F939F93AF93BF93EF939B
:1015E000FF938091EA029091EB02A091EC02B091FE
:1015F000ED02892B8A2B8B2B51F19091E702E09120
:10160000E802F091E9028081892780838091EA02D3
:101610009091EB02A091EC02B091ED021816190620
:101620001A061B06C4F48091EA029091EB02A09185
:10163000EC02B091ED020197A109B1098093EA0291
:101640009093EB02A093EC02B093ED0204C0809162
:1016500011010E94CB0AFF91EF91BF91AF919F9131
:101660008F917F916F915F914F913F912F910F904B
:101670000FBE0F901F901895CF93DF9300D000D02E
:10168000CDB7DEB79B01AC016115710581059105F0
:1016900069F069833A834B835C830E9457112981E7
:1016A0003A814B815C810E94A20F03C060E070E030
:1016B000CB010F900F900F900F90DF91CF91089575
:1016C000FC01808191810C947910CF93DF93EC0120
:1016D00088819981009711F00E94791019821882EF
:1016E0001D821C821B821A82DF91CF9108950F9375
:1016F0001F93CF93DF93EC018B016F5F7F4F888146
:1017000099810E946511009731F0998388831B832A
:101710000A8381E001C080E0DF91CF911F910F919A
:101720000895CF93DF93EC0188819981892B29F06B
:101730008A819B818617970760F4CE010E94770B00
:10174000882341F08C819D81892B19F4E881F981EE
:10175000108281E0DF91CF910895EF92FF920F9375
:101760001F93CF93DF93EC017B018A01BA010E94A2
:10177000910B811104C0CE010E94650B07C01D832F
:101780000C83B701888199810E943812CE01DF91C4
:10179000CF911F910F91FF90EF900895FC0111825E
:1017A000108213821282158214826115710559F01C
:1017B000FB0101900020E9F7AF0141505109461BA0
:1017C000570B0C94AD0B0895CF93DF93EC01FB0105
:1017D0008617970761F0608171816115710529F0A5
:1017E000448155810E94AD0B02C00E94650BCE0161
:1017F000DF91CF910895CF93DF93EC0161157105CF
:1018000061F0FB0101900020E9F7AF01415051095F
:10181000461B570B0E94AD0B02C00E94650BCE0108
:10182000DF91CF9108950F931F93CF93DF93CDB79F
:10183000DEB762970FB6F894DEBF0FBECDBF8C0146
:10184000CB01F80111821082138212821582148258
:1018500050E0BE016F5F7F4F0E943F12BE016F5F7D
:101860007F4FC8010E94FB0B62960FB6F894DEBF53
:101870000FBECDBFDF91CF911F910F910895EF92D1
:10188000FF920F931F93CF93DF93EC017B010C81A9
:101890001D816115710511F480E016C041155105D7
:1018A00091F0040F151FB8010E94910B8823A1F33A
:1018B000288139818C819D81B701820F931F0E94FD
:1018C00038121D830C8381E0DF91CF911F910F911E
:1018D000FF90EF900895CF93DF93EC01FB014481DB
:1018E0005581608171810E943F0C811103C0CE013E
:1018F0000E94650BCE01DF91CF910895CF93DF93C6
:10190000EC0160E08E810E944A0F81E090E00E942D
:10191000850E61E08E810E944A0F81E090E00E9476
:10192000850E60E08E810E944A0F84E690E0DF9190
:10193000CF910C94850ECF92DF92EF92FF920F938E
:101940001F93CF93DF937C01C0E0D0E0C62ED12C53
:1019500087010C0F1D1F61E0F80187810E94110FA4
:10196000B6010C2E02C0759567950A94E2F7617076
:10197000F80187810E944A0F2196C430D10541F7B2
:10198000C701DF91CF911F910F91FF90EF90DF90F2
:10199000CF900C947E0CCF92DF92EF92FF920F9338
:1019A0001F93CF93DF937C01C0E0D0E0C62ED12CF3
:1019B00087010C0F1D1F61E0F80187810E94110F44
:1019C000B6010C2E02C0759567950A94E2F7617016
:1019D000F80187810E944A0F2196C830D10541F74E
:1019E000C701DF91CF911F910F91FF90EF90DF9092
:1019F000CF900C947E0C1F93CF93DF93EC01162FA6
:101A0000642F8C810E944A0F8D818F3F19F060E016
:101A10000E944A0F8F85612F84FF06C0CE01DF919F
:101A2000CF911F910C94CB0C70E084E07595679575
:101A30008A95E1F7CE010E949B0C612FCE01DF91C8
:101A4000CF911F910C949B0C40E00C94FB0C61E037
:101A50000E94240D80ED97E00C94850E443008F030
:101A600043E0FC012389421710F04FEF420FFC01C5
:101A7000E40FF11D2489260F2068622F0C94240D99
:101A8000FC016089262F2460208B6C600C94240D4F
:101A9000CF93DF93EC01423018F08F8588608F87F9
:101AA0004B8B1C8A80E48D8B6E8B70E0605C7F4F6B
:101AB0006F8B222329F0413019F48F8584608F8742
:101AC00080E593EC0E94850E60E08C810E944A0FB5
:101AD00060E08E810E944A0F8D818F3F19F060E097
:101AE0000E944A0F6F8564FD1DC063E0CE010E9415
:101AF0009B0C84E991E10E94850E63E0CE010E9477
:101B00009B0C84E991E10E94850E63E0CE010E9466
:101B10009B0C86E990E00E94850E62E0CE010E9457
:101B20009B0C16C06062CE010E94240D84E991E1F5
:101B30000E94850E6F856062CE010E94240D86E9A9
:101B400090E00E94850E6F856062CE010E94240D98
:101B50006F856062CE010E94240D84E0888BCE01E7
:101B60000E94400DCE010E94270D82E0898B66E025
:101B7000CE01DF91CF910C94240D6F927F928F92C2
:101B8000AF92CF92EF920F931F93CF93DF93CDB786
:101B9000DEB73C01162F842F5D854E853F859889E1
:101BA000F301848325830683E782C086A18682862B
:101BB000538744873587968761E00E94110FF301B0
:101BC00085818F3F19F061E00E94110F61E0F30100
:101BD00086810E94110F112319F0F301178603C0AB
:101BE00080E1F301878720E041E060E1C301DF91FC
:101BF000CF911F910F91EF90CF90AF908F907F90EA
:101C00006F900C94480D8F92AF92CF92EF920F93FA
:101C1000DC0113961C921E921297E7E0F2E0ED931E
:101C2000FC931F921F921F921F928C2CAE2CC02EE1
:101C3000E22E042F2FEF462F61E00E94BD0D0F9082
:101C40000F900F900F900F91EF90CF90AF908F90DB
:101C5000089541E00E94FB0C81E090E008951F92FE
:101C60000F920FB60F9211242F933F938F939F9350
:101C7000AF93BF938091FD029091FE02A091FF026D
:101C8000B09100033091FC0223E0230F2D3720F4A4
:101C90000196A11DB11D05C026E8230F0296A11DC6
:101CA000B11D2093FC028093FD029093FE02A0934D
:101CB000FF02B09300038091010390910203A09171
:101CC0000303B09104030196A11DB11D809301038C
:101CD00090930203A0930303B0930403BF91AF91C9
:101CE0009F918F913F912F910F900FBE0F901F905A
:101CF00018952FB7F8946091FD027091FE028091C3
:101D0000FF02909100032FBF08958230910538F0B3
:101D1000880F991F880F991F05970197F1F708956C
:101D2000789484B5826084BD84B5816084BD85B5B6
:101D3000826085BD85B5816085BDEEE6F0E080817D
:101D400081608083E1E8F0E010828081826080839E
:101D5000808181608083E0E8F0E080818160808321
:101D6000E1EBF0E0808184608083E0EBF0E0808153
:101D700081608083EAE7F0E08081846080838081F5
:101D8000826080838081816080838081806880839D
:101D90001092C10008958E3008F08E508770209107
:101DA000120190E4299F90011124822B80937C00E2
:101DB00080917A00806480937A0080917A0086FD19
:101DC000FCCF809178002091790090E0922B0895CB
:101DD000833081F028F4813099F08230A1F00895A9
:101DE0008730A9F08830B9F08430D1F48091800038
:101DF0008F7D03C0809180008F778093800008954D
:101E000084B58F7702C084B58F7D84BD089580919D
:101E1000B0008F7703C08091B0008F7D8093B000B9
:101E20000895CF93DF9390E0FC01EF56FF4F24918C
:101E3000FC01EB55FF4F8491882349F190E0880F16
:101E4000991FFC01ED53FF4FA591B49187549F4F0B
:101E5000FC01C591D4919FB7611108C0F8948C9191
:101E6000209582238C93888182230AC0623051F4AA
:101E7000F8948C91322F309583238C938881822B18
:101E8000888304C0F8948C91822B8C939FBFDF9140
:101E9000CF9108950F931F93CF93DF931F92CDB7E8
:101EA000DEB7282F30E0F901E358FF4F8491F901A4
:101EB000EF56FF4F1491F901EB55FF4F04910023AA
:101EC000C9F0882321F069830E94E80E6981E02F20
:101ED000F0E0EE0FFF1FE754FF4FA591B4919FB7BD
:101EE000F8948C91611103C01095812301C0812B5E
:101EF0008C939FBF0F90DF91CF911F910F91089509
:101F0000A1E21A2EAA1BBB1BFD010DC0AA1FBB1FFD
:101F1000EE1FFF1FA217B307E407F50720F0A21B6F
:101F2000B30BE40BF50B661F771F881F991F1A94DC
:101F300069F760957095809590959B01AC01BD0106
:101F4000CF010895052E97FB1EF400940E94B90F4F
:101F500057FD07D00E94800F07FC03D04EF40C946D
:101F6000B90F50954095309521953F4F4F4F5F4F9A
:101F7000089590958095709561957F4F8F4F9F4FF5
:101F80000895EE0FFF1F0590F491E02D09940E9433
:101F9000D20FA59F900DB49F900DA49F800D911D11
:101FA00011240895A29FB001B39FC001A39F700D9B
:101FB000811D1124911DB29F700D811D1124911D51
:101FC0000895CF93DF938230910510F482E090E082
:101FD000E0910703F091080320E030E0A0E0B0E0DA
:101FE000309739F14081518148175907B8F04817A7
:101FF000590771F482819381109729F013969C936D
:102000008E9312972CC0909308038093070327C0E8
:102010002115310531F04217530718F0A901DB01F2
:1020200001C0EF019A01BD01DF010280F381E02DC3
:10203000D7CF21153105F9F0281B390B2430310594
:1020400080F48A819B816115710521F0FB019383E6
:10205000828304C09093080380930703FE013296A5
:1020600044C0FE01E20FF31F819391932250310986
:10207000398328833AC02091050330910603232B2E
:1020800041F4209102013091030130930603209323
:10209000050320910001309101012115310541F422
:1020A0002DB73EB74091040150910501241B350B1B
:1020B000E0910503F0910603E217F307A0F42E1B4D
:1020C0003F0B2817390778F0AC014E5F5F4F24179C
:1020D000350748F04E0F5F1F5093060340930503EA
:1020E0008193919302C0E0E0F0E0CF01DF91CF91C6
:1020F0000895CF93DF93009709F487C0FC013297CE
:1021000013821282C0910703D0910803209781F4B3
:1021100020813181280F391F80910503909106039A
:102120008217930779F5F0930603E09305036DC0DA
:10213000DE0120E030E0AE17BF0750F412964D915B
:102140005C9113979D014115510509F1DA01F3CF17
:10215000B383A28340815181840F951F8A179B0707
:1021600071F48D919C911197840F951F0296918324
:10217000808312968D919C9113979383828321156E
:10218000310529F4F0930803E09307033EC0D90119
:102190001396FC93EE9312974D915D91A40FB51F8A
:1021A000EA17FB0779F480819181840F951F0296CD
:1021B000D90111969C938E938281938113969C935F
:1021C0008E931297E0E0F0E08A819B81009719F0EE
:1021D000FE01EC01F9CFCE01029628813981820FF0
:1021E000931F20910503309106032817390769F4DE
:1021F000309729F4109208031092070302C013824B
:102200001282D0930603C0930503DF91CF91089506
:102210008F929F92AF92BF92CF92DF92EF92FF92F6
:10222000CF93DF93EC01688179818A819B8161156D
:1022300071058105910521F464E279ED8BE597E064
:102240002DE133EF41E050E00E94A20F49015A0115
:102250009B01AC01A7EAB1E40E94C70F6B017C01AE
:10226000ACEEB4EFA50194010E948212C60ED71EF7
:10227000E81EF91EF7FE06C081E0C81AD108E10881
:1022800080E8F80AC882D982EA82FB82C701B601D7
:102290009F77DF91CF91FF90EF90DF90CF90BF902D
:1022A000AF909F908F9008950E940811089586E046
:1022B00091E00E9408110895609306017093070150
:1022C00080930801909309010895A0E0B0E0EBE647
:1022D000F1E10C948B12EC01CB01209719F40E94D0
:1022E000E10FB8C0FE01E60FF71F9E012250310931
:1022F000E217F30708F4ACC0D9010D911C911197B6
:1023000006171707B8F00530110508F49FC0A8019B
:10231000445051094617570708F498C00250110954
:10232000061B170B019311936D937C93CF010E94B1
:1023300079108CC05B01A01AB10A4E01800E911E6B
:10234000A0910703B0910803612C712C60E070E04C
:10235000109709F449C0A815B905C9F5ED90FC908E
:102360001197670142E0C40ED11CCA14DB0478F156
:1023700047018A189B08640142E0C40ED11C1296E2
:10238000BC9012971396AC91B5E0CB16D10440F0F7
:10239000B282A38391828082D9018D939C9309C0DC
:1023A0000E5F1F4F0E0D1F1DF90111830083EB2DD2
:1023B000FA2F6115710531F0DB011396FC93EE9352
:1023C000129744C0F0930803E09307033FC06D9158
:1023D0007C9111976616770608F43B01BD011296B1
:1023E0000D90BC91A02DB4CF6091050370910603B0
:1023F00068157905E9F468167906D0F44091000172
:10240000509101014115510541F44DB75EB76091FE
:10241000040170910501461B570BE417F507C0F442
:10242000F0930603E0930503F901918380830EC0C6
:102430000E94E10F7C01009759F0A801BE010E94A3
:102440002F12CE010E947910C70104C0CE0102C034
:1024500080E090E0CDB7DEB7EEE00C94A712FB0170
:10246000DC0102C001900D9241505040D8F7089510
:10247000FB01DC0101900D920020E1F70895453247
:10248000510520F4423010F00C944A12FB011082E6
:10249000CB010895BB274A3031F4992322F4BDE2E1
:1024A000909581959F4F0C945612BB27FB015527A1
:1024B000AA27880F991FAA1FA41710F0A41B8395A1
:1024C0005051B9F7A05DAA3308F0A95DA193009718
:1024D00079F7B111B1931192CB010C946F12DC0119
:1024E000FC01672F71917723E1F7329704C07C914B
:1024F0006D9370836291AE17BF07C8F30895B7FF5D
:102500000C94C70F0E94C70F821B930B08952F9244
:102510003F924F925F926F927F928F929F92AF9273
:10252000BF92CF92DF92EF92FF920F931F93CF93C0
:10253000DF93CDB7DEB7CA1BDB0B0FB6F894DEBF57
:102540000FBECDBF09942A88398848885F846E847D
:102550007D848C849B84AA84B984C884DF80EE80C7
:10256000FD800C811B81AA81B981CE0FD11D0FB6D0
:10257000F894DEBF0FBECDBFED01089510E0C4EDAD
:10258000D0E004C0FE010E94C30F2296C63DD107D1
:06259000C9F7F894FFCF2B
:102596000000090380000100000001FA00010001AB
:1025A60000FF0120202020507265002020202043BB
:1025B600532B002020202043532D002020547261ED
:1025C60063650020202020205553004E6F2D507546
:1025D600666600202020504F5354002020202049BA
:1025E60054490020202020454E4400205061757338
:1025F60065200013011B0123012B0133013B01431D
:10260600014B0153015B0150524553532053454C36
:10261600454354004D6F7573654B002020202020E4
:1026260020202020200053657373696F6E003A20C6
:10263600004000547269616C204E6F2E20003100FC
:10264600203A002043532B2000426C696E6B2043D6
:102656006F756E74203D20002043532D2000436E7D
:1026660074726C0044656C6179001300CE012D0113
:10267600D401000000003405A006B604CF04C1044E
:1026860012050D0A006E616E00696E66006F766651
:0C269600002E0000000000290EA006002D
:04000005008002264F
:00000001FF
