:100000000C946B000C9493000C9493000C9493004C
:100010000C9493000C9493000C9493000C94F00BAC
:100020000C9493000C942B030C9493000C94930069
:100030000C9493000C9493000C9493000C949300F4
:100040000C948A0F0C9493000C944A070C947C0730
:100050000C9493000C9493000C9493000C949300D4
:100060000C9493000C9493004C047B0497049C0420
:10007000DA04F804FD042005AC05CD0502000000FB
:100080000800020100000304070000000000000057
:100090000001020408102040800102040810200121
:1000A00002040810200404040404040404020202EC
:1000B00002020203030303030300000000250028DB
:1000C000002B0000000000240027002A0000D302BB
:1000D000FA05AC07010611241FBECFEFD8E0DEBF42
:1000E000CDBF12E0A0E0B1E0ECE3F9E202C0059080
:1000F0000D92A033B107D9F723E0A0E3B2E001C02D
:100100001D92A537B207E1F710E0C4EDD0E004C0BE
:100110002297FE010E941E11CE3CD107C9F70E9412
:10012000EB050C9491140C9400009B0190936102D8
:100130008093600260914B0270914C02C9010E9451
:10014000570210924F0210925002109251021092D8
:1001500052020E94D40F60935B0270935C02809302
:100160005D0290935E0208951F93CF93DF93809179
:10017000530290915402A0915502B09156024091C1
:100180004F02509150026091510270915202841BB3
:10019000950BA60BB70B40910B0150910C0160E041
:1001A00070E0481759076A077B0708F04AC01091AA
:1001B0000502812F0E942610EC01812F0E9426103B
:1001C0009093700280936F02BC016C0F7D1F4AE018
:1001D00050E086EB92E00E940F096FE671E086EB3B
:1001E00092E00E943B08609153027091540280910A
:1001F00055029091560220E137E240E050E00E9423
:10020000DB10AB01BC012AE030E086EB92E00E94FB
:10021000520920910B0130910C0180914F02909175
:100220005002A0915102B0915202820F931FA11D62
:10023000B11D80934F0290935002A0935102B0934E
:100240005202DF91CF911F910895CF93DF93CDB7E5
:10025000DEB762970FB6F894DEBF0FBECDBF65E183
:1002600071E086EB92E00E943B0886EB92E00E94F0
:100270000506892BD1F366EB72E0CE010D960E9444
:100280009209CE010D960E94CE0DAB01BC012AE071
:10029000CE0107960E944F0D63E271E0CE010196F8
:1002A0000E94DE0CBE01695F7F4FCE0101960E9465
:1002B000BB0DBC0183E692E00E94F40CCE010196D6
:1002C0000E94700CCE0107960E94700CCE010D9614
:1002D0000E94700C63E672E086EB92E00E94480890
:1002E0006AE271E086EB92E00E943B0886EB92E0C6
:1002F0000E940506892BD1F366EB72E0CE010196D0
:100300000E949209CE0101960E94CE0D70931201B7
:1003100060931101CE0101960E94700C6091110151
:10032000709112014AE050E086EB92E00E941709BA
:1003300060E471E086EB92E00E943B0886EB92E07D
:100340000E940506892BD1F366EB72E0CE0101967F
:100350000E949209CE0101960E94CE0D7093100169
:1003600060930F01CE0101960E94700C60910F0105
:10037000709110014AE050E086EB92E00E9417096C
:100380006BE471E086EB92E00E945A080E94A90299
:100390000497E1F70E94D40F6093690270936A0298
:1003A00080936B0290936C0281E080934A0241E05B
:1003B00060E082E392E00E94890E61EB71E082E3EB
:1003C00092E00E943B0841E061E082E392E00E94FB
:1003D000890E60910F01709110014AE050E082E3B4
:1003E00092E00E940F0941E064E082E392E00E9403
:1003F000890E6AEF71E082E392E00E943B0840E0E0
:1004000060E082E392E00E94890E63E672E082E39C
:1004100092E00E942D0840E068E082E392E00E94B2
:10042000890EE0911101F0911201EE0FFF1FEB57C1
:10043000FE4F6081718182E392E00E943B0841E0BF
:1004400066E082E392E00E94890E66E671E082E354
:1004500092E00E943B0861E771E086EB92E00E9427
:100460005A0863E771E086EB92E00E945A0867E75A
:1004700071E086EB92E00E945A0880911101909100
:100480001201029729F410920E0110920D0106C07C
:100490008AEF90E090930E0180930D0162960FB663
:1004A000F894DEBF0FBECDBFDF91CF910895CF92FC
:1004B000DF92EF92FF920F931F93CF93DF93EC01A4
:1004C0008B010E94D40FC0906902D0906A02E09024
:1004D0006B02F0906C026C197D098E099F0920E671
:1004E0003AEE40E050E00E94DB1069017A0140E002
:1004F0006EE082E392E00E94890E4AE050E0B6018D
:1005000082E392E00E940F0941E065E082E392E01D
:100510000E94890E4AE050E0B80182E392E00E9416
:100520000F0941E069E082E392E00E94890ECC0F5E
:10053000DD1FC552DE4F6881798182E392E0DF9151
:10054000CF911F910F91FF90EF90DF90CF900C947F
:100550003B088EE00E942610909331028093300277
:10056000893E23E0920794F4823691058CF08E3F09
:10057000910584F0883921E0920774F0883522E0F3
:10058000920764F0843893405CF0089585E009C0D8
:1005900080E007C081E005C082E003C083E001C0C5
:1005A00084E090E00895CF92EF920F9397E0C92EE8
:1005B00026E0E22E05E024E049E068E082E392E0F4
:1005C0000E945E0F0F91EF90CF9008950C94A510AC
:1005D000089580E090E0FC01EE0FFF1FE658FD4F0C
:1005E0001182108201968E319105A9F708950F931B
:1005F0001F93CF93DF9381E080937702109279026B
:1006000010927802C0E0D0E04AE050E0BE0186EBF4
:1006100092E00E940F096FE671E086EB92E00E9483
:100620003B088E01000F111F06581D4FF801608115
:1006300071814AE050E086EB92E00E943C09F801AB
:10064000118210822196CE31D105F1F6DF91CF9142
:100650001F910F9108951F920F920FB60F921124C0
:100660002F938F939F93EF93FF93809175029091B7
:1006700076020196909376028093750280917502BE
:1006800090917602883E9340A1F4809174028F5F2E
:100690008093740210927602109275028091740217
:1006A0008C3339F410927402809173028F5F8093BF
:1006B0007302E0917802F0917902EE0FFF1FE65885
:1006C000FD4F808191810196918380838091710299
:1006D0008093B200FF91EF919F918F912F910F9096
:1006E0000FBE0F901F901895E0E7F0E080818E7F9D
:1006F0008083A0EBB0E08C918C7F8C93A6EBB0E074
:100700008C918F7D8C9380818D7F8083A1EBB0E075
:100710008C9185608C938C918D7F8C9383E890E095
:10072000909372028093710283E88093B20080817B
:1007300081608083789408951092790210927802F3
:10074000109277020E94E90226E040E855E260E05C
:1007500070E086EB92E00E94E8061092760210921A
:10076000750210927402109273020E94740361E089
:100770008BE00E946C1020E042E060E182E392E0B6
:100780000E94A30E41E064E082E392E00E94890EA1
:100790006FEE71E082E392E00C943B085F926F92FF
:1007A0007F928F929F92AF92BF92CF92DF92EF9201
:1007B000FF920F931F93CF93DF9380914A02811191
:1007C00002C00E9425015524539498E0692E712C93
:1007D00026E0E22EF12C35E0C32ED12CC4E0D0E08F
:1007E00043E0A42EB12C52E0852E912C01E010E0C4
:1007F00080914A02882309F4DEC180914B029091D6
:100800004C02892BF9F40E94D40F60935B02709321
:100810005C0280935D0290935E020E94D40F60930D
:100820005702709358028093590290935A02109382
:100830004C0200934B0261E070E080E090E00E9487
:100840005702D6CF0E94D40F20915B0230915C02F8
:1008500040915D0250915E02621B730B840B950BFD
:100860006093530270935402809355029093560202
:100870000E94D40F0E94A902892B11F450925F02AA
:10088000E0916002F0916102EA30F10508F0B0CF2A
:10089000EC5CFF4F0C941C111093790200937802CA
:1008A0000E94B4008091530290915402A09155028D
:1008B000B0915602883E9340A105B10508F498CF47
:1008C00080910A0120E030E0A901882351F06CE119
:1008D00075E283E00E94AC0961E070E081E090E0A5
:1008E00067C160EA7FE083E00E94AC0962E070E0EB
:1008F00082E090E05DC190927902809278020E943D
:10090000B4008091530290915402A0915502B0918D
:100910005602803B9440A105B10508F469CF83E0FD
:100920000E94DB0B63E070E083E090E041C1B09295
:100930007902A0927802E3CFD0937902C093780233
:100940000E94B40080910D0190910E01AA2797FD9D
:10095000A095BA2F409153025091540260915502D4
:1009600070915602481759076A077B0708F440CF71
:100970008091110190911201892B91F080910A01CF
:10098000882371F061E08BE090E00E94E602D09352
:100990006102C093600264E070E084E090E008C10E
:1009A00060E08BE090E00E94E60265E070E085E0A8
:1009B00090E0FEC0D0927902C09278020E94B4000A
:1009C0008091530290915402A0915502B091560229
:1009D000883E9340A105B10508F40ACF60E08BE0A2
:1009E00090E00E94E60266E070E086E090E0E0C001
:1009F000F0927902E0927802E1CF87E090E0909364
:100A00007902809378020E94B40080915302909101
:100A10005402A0915502B0915602883E9340A10520
:100A2000B10508F4E5CE68EE73E080E090E00E9446
:100A30004C0C68517C4F70934E0260934D02B4C0D1
:100A4000709279026092780280915F02882329F087
:100A500069E070E089E090E0ABC080914D02909138
:100A60004E02AA2797FDA095BA2F409153025091AC
:100A700054026091550270915602481759076A074F
:100A80007B0708F4B5CE80914B0290914C02019601
:100A900090934C0280934B0210926E0210926D0262
:100AA0000B975CF061E771E086EB92E00E945A08D8
:100AB00068E070E088E090E07BC06CEF71E086EB6E
:100AC00092E00E945A0861E771E086EB92E00E9492
:100AD0005A086AE070E080E090E00E944C0C20919F
:100AE0004B0230914C02653071058105910564F02F
:100AF00050920A014AE050E0B90186EB92E00E9470
:100B00000F0964E771E00BC010920A014AE050E05F
:100B1000B90186EB92E00E940F096EEF71E086EB5F
:100B200092E00E945A0860914B0270914C0280E062
:100B300090E00E94570260E070E080E090E00E9448
:100B400095000E94D40F60935702709358028093CF
:100B5000590290935A024CCE80916202811148CE84
:100B600061E072E086EB92E00E945A0867E771E06C
:100B700086EB92E00E945A080E94F7026CEF71E047
:100B800086EB92E00E945A085092620263E072E0A3
:100B900086EB92E00E945A082BCE0E94A90203978E
:100BA00009F026CE10925F0267E070E087E090E0E7
:100BB0000E9495001DCEDF91CF911F910F91FF9064
:100BC000EF90DF90CF90BF90AF909F908F907F90ED
:100BD0006F905F9008950E94EB0F0E94E8020E94C0
:100BE0009C03C2E3D6E00E94CE032097E1F30E946B
:100BF0003206F9CF4AE061E070E083E692E00C94BF
:100C0000230D83E692E00C94700CFC01818D228D03
:100C100090E0805C9F4F821B91098F739927089504
:100C2000FC01918D828D981731F0828DE80FF11DB6
:100C3000858D90E008958FEF9FEF0895FC01918DD1
:100C4000828D981761F0828DDF01A80FB11D5D962E
:100C50008C91928D9F5F9F73928F90E008958FEF9C
:100C60009FEF089582EA97E0892B49F080E090E0B9
:100C7000892B29F00E94A20781110C94000008958D
:100C8000FC01848DDF01A80FB11DA35ABF4F2C9129
:100C9000848D90E001968F739927848FA689B789F8
:100CA0002C93A089B1898C9180648C93938D848DD1
:100CB000981306C00288F389E02D80818F7D8083A0
:100CC0000895CF93DF93EC01888D8823C9F0EA89DA
:100CD000FB89808185FD05C0A889B9898C9186FD35
:100CE0000FC00FB607FCF5CF808185FFF2CFA88932
:100CF000B9898C9185FFEDCFCE010E944006E7CFE8
:100D0000DF91CF910895CF92DF92FF920F931F93BF
:100D1000CF93DF931F92CDB7DEB76C0181E0D60190
:100D200058968C9358975B969C915B975C968C91A8
:100D30005C97981307C05096ED91FC915197808174
:100D400085FD2EC0F601038D10E00F5F1F4F0F735E
:100D50001127F02EF601848DF81211C00FB607FC92
:100D6000F9CFD6015096ED91FC915197808185FF86
:100D7000F1CFC60169830E9440066981EBCF838D64
:100D8000E80FF11DE35AFF4F6083D6015B960C9389
:100D90005B975296ED91FC915397808180620CC0D5
:100DA000D6015696ED91FC91579760835096ED9140
:100DB000FC91519780818064808381E090E00F9066
:100DC000DF91CF911F910F91FF90DF90CF90089509
:100DD000BF92CF92DF92EF92FF92CF93DF93EC011D
:100DE0006A017B01B22EE889F98982E0808341158E
:100DF00081EE580761057105A1F060E079E08DE3AF
:100E000090E0A70196010E94DB10215031094109B1
:100E100051095695479537952795211580E1380753
:100E200098F0E889F989108260E874E88EE190E032
:100E3000A70196010E94DB10215031094109510997
:100E40005695479537952795EC85FD853083EE853A
:100E5000FF852083188EEC89FD89B082EA89FB89A1
:100E6000808180618083EA89FB89808188608083BA
:100E7000EA89FB89808180688083EA89FB89808197
:100E80008F7D8083DF91CF91FF90EF90DF90CF90A7
:100E9000BF9008951F920F920FB60F9211242F93B7
:100EA0008F939F93EF93FF93E091C602F091C70257
:100EB0008081E091CC02F091CD0282FD12C0908140
:100EC0008091CF028F5F8F732091D002821751F0F3
:100ED000E091CF02F0E0EA54FD4F958F8093CF026E
:100EE00001C08081FF91EF919F918F912F910F9081
:100EF0000FBE0F901F9018951F920F920FB60F9272
:100F000011242F933F934F935F936F937F938F930E
:100F10009F93AF93BF93EF93FF9386EB92E00E9472
:100F20004006FF91EF91BF91AF919F918F917F917B
:100F30006F915F914F913F912F910F900FBE0F9046
:100F40001F90189586EB92E00E94050621E0892B00
:100F500009F420E0822F08951092B9021092B8028D
:100F600088EE93E0A0E0B0E08093BA029093BB02D9
:100F7000A093BC02B093BD028BE092E09093B702C5
:100F80008093B60285EC90E09093C3028093C202F6
:100F900084EC90E09093C5028093C40280EC90E0D2
:100FA0009093C7028093C60281EC90E09093C902AF
:100FB0008093C80282EC90E09093CB028093CA02A7
:100FC00086EC90E09093CD028093CC021092CF02F9
:100FD0001092D0021092D1021092D2020895CF92B4
:100FE000DF92EF92FF920F931F93CF93DF936C01E9
:100FF0007A01EB01E60EF71E00E010E0CE15DF05EA
:1010000061F06991D601ED91FC910190F081E02DA4
:10101000C6010995080F191FF1CFC801DF91CF91C3
:101020001F910F91FF90EF90DF90CF900895611581
:10103000710581F0DB010D900020E9F7AD01415011
:101040005109461B570BDC01ED91FC910280F381A5
:10105000E02D099480E090E00895DC01ED91FC9191
:10106000DB0114964D915C9115976D917C910280F6
:10107000F381E02D09940C941708DC01ED91FC91AB
:101080000190F081E02D099467E172E00C9417085B
:101090000F931F93CF93DF93EC010E942D088C01D7
:1010A000CE010E944408800F911FDF91CF911F91C4
:1010B0000F9108950F931F93CF93DF93EC010E943C
:1010C00017088C01CE010E944408800F911FDF9108
:1010D000CF911F910F9108958F929F92AF92BF92DF
:1010E000CF92DF92EF92FF920F931F93CF93DF93F4
:1010F000CDB7DEB7A1970FB6F894DEBF0FBECDBF58
:101100007C01C42EE52FCB01D22E19A221E02D1592
:1011100010F02AE0D22E8E010F5D1F4F8D2C912CE6
:10112000A12CB12C6C2D7E2FA50194010E94DB1007
:101130008C2DD29E80191124015011098A3014F48B
:10114000805D01C0895CF80180832115310541056E
:10115000510521F0C22EE32FCA01E4CFB801C70127
:101160000E941708A1960FB6F894DEBF0FBECDBF40
:10117000DF91CF911F910F91FF90EF90DF90CF9073
:10118000BF90AF909F908F900895CF92DF92EF9293
:10119000FF920F931F93CF93DF93EC016A017B01C2
:1011A0002115310579F4E881F9810190F081E02D74
:1011B000642FDF91CF911F910F91FF90EF90DF90FF
:1011C000CF9009942A303105E9F477FF1AC06DE217
:1011D0000E943D088C0144275527BA014C195D092E
:1011E0006E097F092AE0CE010E946C08800F911FD2
:1011F000DF91CF911F910F91FF90EF90DF90CF90F3
:1012000008952AE0B701A601CE01DF91CF911F9189
:101210000F91FF90EF90DF90CF900C946C089A01A3
:10122000AB01662757FD6095762F0C94C5080F9388
:101230001F93CF93DF93EC019A01AB01662757FD13
:101240006095762F0E94C5088C01CE010E9444084B
:10125000800F911FDF91CF911F910F91089521155C
:10126000310541F4DC01ED91FC910190F081E02D1C
:10127000642F09940C946C080F931F93CF93DF9302
:10128000EC019A01AB0160E070E00E942F098C0133
:10129000CE010E944408800F911FDF91CF911F91D2
:1012A0000F9108950F931F93CF93DF93EC010E944A
:1012B0002F098C01CE010E944408800F911FDF91FD
:1012C000CF911F910F9108950F931F93CF93DF93A9
:1012D000EC010E94D40F688779878A879B87E88111
:1012E000F9810680F781E02DCE01099597FF15C0A1
:1012F0000E94D40F088519852A853B85601B710BD8
:10130000820B930B0C811D812E813F816017710729
:101310008207930720F38FEF9FEFDF91CF911F910B
:101320000F9108950F931F93CF93DF93EC018B01DF
:1013300069E172E00E94DE0CC8010E94640997FD19
:1013400005C0682FCE010E94A80DF6CFCE01DF9117
:10135000CF911F910F9108953F924F925F926F929C
:101360007F928F929F92AF92BF92CF92DF92EF9235
:10137000FF920F931F93CF93DF9300D000D0CDB790
:10138000DEB78B0129013A0190911301981721F0E2
:101390009F3F09F0DAC104C0ECE7F0E0349081C06F
:1013A00080931301ECE7F0E0E491EF3F09F4CDC145
:1013B000E13031F1E23009F44BC0E11171C014BCED
:1013C00015BC94B5926094BD95B5916095BD282FDC
:1013D00030E0F901EB55FF4FE491F0E0EE0FFF1F15
:1013E000E754FF4F45915491509363034093620338
:1013F000F901EF56FF4F249120936103312C53C024
:1014000010928000109281009091810098609093DA
:10141000810090918100916090938100282F30E0AD
:10142000F901EB55FF4FE491F0E0EE0FFF1FE75499
:10143000FF4F4591549150935C0340935B03F90136
:10144000EF56FF4F249120935A03332433942BC03B
:101450001092B0001092B1009091B0009260909301
:10146000B0009091B10091609093B100282F30E0CE
:10147000F901EB55FF4FE491F0E0EE0FFF1FE75449
:10148000FF4F459154915093550340935403F901F4
:10149000EF56FF4F24912093530352E0352E03C0A3
:1014A0003E2E37FC52C161E00E946C104801A12C15
:1014B000B12C832D8D7F09F0C7C060E072E18AE70F
:1014C00090E0A50194010E94FD1029833A834B838B
:1014D0005C8369017A0181E0C81AD108E108F1084A
:1014E0009FEFC916D104E104F10409F008F49AC091
:1014F00060E472E48FE090E0A50194010E94FD1089
:1015000069017A01E1E0CE1AD108E108F108F2E0C0
:101510003F1219C08FEFC816D104E104F10409F09D
:1015200008F48AC060E970ED83E090E0A5019401C1
:101530000E94FD1069017A0191E0C91AD108E10801
:10154000F10883E001C082E0EFEFCE16D104E104A0
:10155000F10409F008F467C068E478EE81E090E0F7
:10156000A50194010E94FD1069017A01F1E0CF1AF2
:10157000D108E108F1083320E1F082E038121BC005
:101580009FEFC916D104E104F10409F008F4DBC0AF
:1015900064E274EF80E090E0A50194010E94FD10E8
:1015A00069017A01E1E0CE1AD108E108F10885E08D
:1015B00003C083E001C084E0FFEFCF16D104E10453
:1015C000F10489F180F162E17AE780E090E0A50121
:1015D00094010E94FD1069017A0181E0C81AD108C6
:1015E000E108F108311002C084E001C086E09FEFFD
:1015F000C916D104E104F104B1F0A8F0C980DA8081
:10160000EB80FC809AE0F594E794D794C7949A9580
:10161000D1F7E1E0CE1AD108E108F108332031F02A
:1016200087E00BC081E0332011F007C085E095B55D
:10163000987F982B95BD38C082E09091B100987F3B
:10164000982B9093B10030C060E072E18AE790E09F
:10165000A50194010E94FD1069017A01F1E0CF1A01
:10166000D108E108F108C114D10481E0E806F104D1
:1016700088F068E478EE81E090E0A50194010E9492
:10168000FD1069017A0191E0C91AD108E108F10859
:1016900093E001C091E0E1E03E1206C0809181003C
:1016A000887F892B80938100411451046104710467
:1016B00071F0D801AA0FBB1FA30192010E94221151
:1016C00028EE33E040E050E00E94DB1003C02FEF33
:1016D0003FEFA901F1E03F16A1F082E0381619F1C1
:1016E000311033C0C7BC209364033093650340932B
:1016F00066035093670380916E00826080936E0052
:1017000024C0D0928900C092880020935D0330935A
:101710005E0340935F035093600380916F0082608B
:1017200080936F0012C0C092B30020935603309391
:10173000570340935803509359038091700082607F
:101740008093700002C084E078CF0F900F900F90CC
:101750000F90DF91CF911F910F91FF90EF90DF904D
:10176000CF90BF90AF909F908F907F906F905F9041
:101770004F903F900895813039F018F0823051F049
:10178000089510926E00089580916F008D7F809370
:101790006F000895809170008D7F8093700081E0CC
:1017A0008093B0008091B100887F84608093B10005
:1017B0001092B3000895CF93C82F809113018C131A
:1017C00007C0ECE7F0E084919FEF9093130101C014
:1017D0008FEF0E94BB0B60E08C2FCF910C94A51073
:1017E0001F920F920FB60F9211242F933F934F9396
:1017F0005F936F937F938F939F93AF93BF93EF9379
:10180000FF938091560390915703A0915803B09194
:101810005903892B8A2B8B2B51F190915303E09123
:101820005403F0915503808189278083809156036A
:1018300090915703A0915803B091590318161906B7
:101840001A061B06C4F48091560390915703A09189
:101850005803B09159030197A109B1098093560328
:1018600090935703A0935803B093590304C08091F9
:1018700013010E94DB0BFF91EF91BF91AF919F91FC
:101880008F917F916F915F914F913F912F910F9029
:101890000FBE0F901F901895CF93DF9300D000D00C
:1018A000CDB7DEB79B01AC016115710581059105CE
:1018B00069F069833A834B835C830E94B212298169
:1018C0003A814B815C810E94FD1003C060E070E0B2
:1018D000CB010F900F900F900F90DF91CF91089553
:1018E000FC01808191810C94D411CF93DF93EC01A2
:1018F00088819981009711F00E94D4111982188271
:101900001D821C821B821A82DF91CF9108950F9352
:101910001F93CF93DF93EC018B016F5F7F4F888123
:1019200099810E94C012009731F0998388831B83AC
:101930000A8381E001C080E0DF91CF911F910F9178
:101940000895CF93DF93EC0188819981892B29F049
:101950008A819B818617970760F4CE010E94870CCD
:10196000882341F08C819D81892B19F4E881F981CC
:10197000108281E0DF91CF910895EF92FF920F9353
:101980001F93CF93DF93EC017B018A01BA010E9480
:10199000A10C811104C0CE010E94750C07C01D83EB
:1019A0000C83B701888199810E94BA13CE01DF911F
:1019B000CF911F910F91FF90EF900895FC0111823C
:1019C000108213821282158214826115710559F0FA
:1019D000FB0101900020E9F7AF0141505109461B7E
:1019E000570B0C94BD0C0895CF93DF93EC01FB01D2
:1019F0008617970761F0608171816115710529F083
:101A0000448155810E94BD0C02C00E94750CCE011C
:101A1000DF91CF910895CF93DF93EC0161157105AC
:101A200061F0FB0101900020E9F7AF01415051093D
:101A3000461B570B0E94BD0C02C00E94750CCE01C4
:101A4000DF91CF9108950F931F93CF93DF93CDB77D
:101A5000DEB762970FB6F894DEBF0FBECDBF8C0124
:101A6000CB01F80111821082138212821582148236
:101A700050E0BE016F5F7F4F0E94C113BE016F5FD8
:101A80007F4FC8010E940B0D62960FB6F894DEBF1F
:101A90000FBECDBFDF91CF911F910F9108950F938E
:101AA0001F93CF93DF93CDB7DEB7A2970FB6F8940D
:101AB000DEBF0FBECDBF8C01CB01BA01F801118290
:101AC0001082138212821582148230E0AE014F5FC1
:101AD0005F4F0E94D713BE016F5F7F4FC8010E9406
:101AE0000B0DA2960FB6F894DEBF0FBECDBFDF91EF
:101AF000CF911F910F910895EF92FF920F931F9333
:101B0000CF93DF93EC017B010C811D816115710581
:101B100011F480E016C04115510591F0040F151F16
:101B2000B8010E94A10C8823A1F3288139818C81FE
:101B30009D81B701820F931F0E94BA131D830C83EE
:101B400081E0DF91CF911F910F91FF90EF90089569
:101B5000CF93DF9300D0CDB7DEB769831A8241E01F
:101B600050E0BE016F5F7F4F0E947C0D0F900F9081
:101B7000DF91CF910895CF93DF93EC01FB01448176
:101B80005581608171810E947C0D811103C0CE015D
:101B90000E94750CCE01DF91CF910895FC018081E8
:101BA0009181009711F00C948A1360E070E0CB01F2
:101BB0000895CF93DF93EC0160E08E810E94A51021
:101BC00081E090E00E94E00F61E08E810E94A5100C
:101BD00081E090E00E94E00F60E08E810E94A510FD
:101BE00084E690E0DF91CF910C94E00FCF92DF92EA
:101BF000EF92FF920F931F93CF93DF937C01C0E08E
:101C0000D0E0C62ED12C87010C0F1D1F61E0F8011A
:101C100087810E946C10B6010C2E02C075956795E5
:101C20000A94E2F76170F80187810E94A51021965D
:101C3000C430D10541F7C701DF91CF911F910F91BA
:101C4000FF90EF90DF90CF900C94D90DCF92DF9260
:101C5000EF92FF920F931F93CF93DF937C01C0E02D
:101C6000D0E0C62ED12C87010C0F1D1F61E0F801BA
:101C700087810E946C10B6010C2E02C07595679585
:101C80000A94E2F76170F80187810E94A5102196FD
:101C9000C830D10541F7C701DF91CF911F910F9156
:101CA000FF90EF90DF90CF900C94D90D1F93CF93BE
:101CB000DF93EC01162F642F8C810E94A5108D817B
:101CC0008F3F19F060E00E94A5108F85612F84FF7F
:101CD00006C0CE01DF91CF911F910C94260E70E0CB
:101CE00084E0759567958A95E1F7CE010E94F60D1F
:101CF000612FCE01DF91CF911F910C94F60D40E042
:101D00000C94560E61E00E947F0E80ED97E00C94DB
:101D1000E00F443008F043E0FC012389421710F043
:101D20004FEF420FFC01E40FF11D2489260F2068BC
:101D3000622F0C947F0EFC016089262F2460208B7B
:101D40006C600C947F0ECF93DF93EC01423018F05F
:101D50008F8588608F874B8B1C8A80E48D8B6E8B80
:101D600070E0605C7F4F6F8B222329F0413019F4C3
:101D70008F8584608F8780E593EC0E94E00F60E0A0
:101D80008C810E94A51060E08E810E94A5108D813B
:101D90008F3F19F060E00E94A5106F8564FD1DC0A3
:101DA00063E0CE010E94F60D84E991E10E94E00F0C
:101DB00063E0CE010E94F60D84E991E10E94E00FFC
:101DC00063E0CE010E94F60D86E990E00E94E00FEC
:101DD00062E0CE010E94F60D16C06062CE010E9444
:101DE0007F0E84E991E10E94E00F6F856062CE0171
:101DF0000E947F0E86E990E00E94E00F6F8560628E
:101E0000CE010E947F0E6F856062CE010E947F0E20
:101E100084E0888BCE010E949B0ECE010E94820E30
:101E200082E0898B66E0CE01DF91CF910C947F0E2A
:101E30006F927F928F92AF92CF92EF920F931F93F8
:101E4000CF93DF93CDB7DEB73C01162F842F5D858E
:101E50004E853F859889F301848325830683E78235
:101E6000C086A1868286538744873587968761E03E
:101E70000E946C10F30185818F3F19F061E00E9490
:101E80006C1061E0F30186810E946C10112319F03F
:101E9000F301178603C080E1F301878720E041E06A
:101EA00060E1C301DF91CF911F910F91EF90CF902F
:101EB000AF908F907F906F900C94A30E8F92AF9203
:101EC000CF92EF920F93DC0113961C921E92129701
:101ED000ECE2F2E0ED93FC931F921F921F921F928F
:101EE0008C2CAE2CC02EE22E042F2FEF462F61E05B
:101EF0000E94180F0F900F900F900F900F91EF907E
:101F0000CF90AF908F90089541E00E94560E81E0EF
:101F100090E008951F920F920FB60F9211242F9305
:101F20003F938F939F93AF93BF9380916903909159
:101F30006A03A0916B03B0916C033091680323E0B6
:101F4000230F2D3720F40196A11DB11D05C026E8F1
:101F5000230F0296A11DB11D20936803809369038E
:101F600090936A03A0936B03B0936C0380916D030D
:101F700090916E03A0916F03B09170030196A11D23
:101F8000B11D80936D0390936E03A0936F03B09384
:101F90007003BF91AF919F918F913F912F910F90BF
:101FA0000FBE0F901F9018952FB7F894609169039A
:101FB00070916A0380916B0390916C032FBF089519
:101FC0008230910538F0880F991F880F991F059767
:101FD0000197F1F70895789484B5826084BD84B543
:101FE000816084BD85B5826085BD85B5816085BD14
:101FF000EEE6F0E0808181608083E1E8F0E010822D
:10200000808182608083808181608083E0E8F0E06D
:10201000808181608083E1EBF0E080818460808357
:10202000E0EBF0E0808181608083EAE7F0E080818E
:1020300084608083808182608083808181608083EE
:102040008081806880831092C10008958E3008F0EE
:102050008E5087702091140190E4299F90011124E3
:10206000822B80937C0080917A00806480937A0038
:1020700080917A0086FDFCCF8091780020917900D4
:1020800090E0922B0895833081F028F4813099F00C
:102090008230A1F008958730A9F08830B9F08430FB
:1020A000D1F4809180008F7D03C0809180008F7774
:1020B00080938000089584B58F7702C084B58F7DAA
:1020C00084BD08958091B0008F7703C08091B000E7
:1020D0008F7D8093B0000895CF93DF9390E0FC0153
:1020E000EF56FF4F2491FC01EB55FF4F849188235D
:1020F00049F190E0880F991FFC01ED53FF4FA59126
:10210000B49187549F4FFC01C591D4919FB7611141
:1021100008C0F8948C91209582238C938881822327
:102120000AC0623051F4F8948C91322F3095832399
:102130008C938881822B888304C0F8948C91822BA5
:102140008C939FBFDF91CF9108950F931F93CF93EF
:10215000DF931F92CDB7DEB7282F30E0F901E358A7
:10216000FF4F8491F901EF56FF4F1491F901EB55A0
:10217000FF4F04910023C9F0882321F069830E9456
:1021800043106981E02FF0E0EE0FFF1FE754FF4F8F
:10219000A591B4919FB7F8948C91611103C01095EB
:1021A000812301C0812B8C939FBF0F90DF91CF9132
:1021B0001F910F910895A1E21A2EAA1BBB1BFD01CE
:1021C0000DC0AA1FBB1FEE1FFF1FA217B307E40716
:1021D000F50720F0A21BB30BE40BF50B661F771F6E
:1021E000881F991F1A9469F760957095809590954E
:1021F0009B01AC01BD01CF010895052E97FB1EF494
:1022000000940E94141157FD07D00E94DB1007FCB8
:1022100003D04EF40C9414115095409530952195AF
:102220003F4F4F4F5F4F0895909580957095619502
:102230007F4F8F4F9F4F0895EE0FFF1F0590F49132
:10224000E02D09940E942D11A59F900DB49F900D33
:10225000A49F800D911D11240895A29FB001B39FEA
:10226000C001A39F700D811D1124911DB29F700D9F
:10227000811D1124911D0895CF93DF938230910524
:1022800010F482E090E0E0917303F091740320E099
:1022900030E0A0E0B0E0309739F14081518148173B
:1022A0005907B8F04817590771F482819381109744
:1022B00029F013969C938E9312972CC090937403DD
:1022C0008093730327C02115310531F0421753075E
:1022D00018F0A901DB0101C0EF019A01BD01DF0186
:1022E0000280F381E02DD7CF21153105F9F0281BAD
:1022F000390B2430310580F48A819B816115710589
:1023000021F0FB019383828304C090937403809334
:102310007303FE01329644C0FE01E20FF31F819366
:10232000919322503109398328833AC02091710357
:1023300030917203232B41F420910201309103016B
:1023400030937203209371032091000130910101B9
:102350002115310541F42DB73EB74091040150914C
:102360000501241B350BE0917103F0917203E21714
:10237000F307A0F42E1B3F0B2817390778F0AC01A8
:102380004E5F5F4F2417350748F04E0F5F1F509385
:102390007203409371038193919302C0E0E0F0E0F7
:1023A000CF01DF91CF910895CF93DF93009709F488
:1023B00087C0FC01329713821282C0917303D091BF
:1023C0007403209781F420813181280F391F809177
:1023D0007103909172038217930779F5F09372035A
:1023E000E09371036DC0DE0120E030E0AE17BF075F
:1023F00050F412964D915C9113979D014115510532
:1024000009F1DA01F3CFB383A28340815181840FB4
:10241000951F8A179B0771F48D919C911197840FDA
:10242000951F02969183808312968D919C911397AC
:10243000938382832115310529F4F0937403E0938B
:1024400073033EC0D9011396FC93EE9312974D91FE
:102450005D91A40FB51FEA17FB0779F48081918184
:10246000840F951F0296D90111969C938E938281B9
:10247000938113969C938E931297E0E0F0E08A810B
:102480009B81009719F0FE01EC01F9CFCE01029675
:1024900028813981820F931F20917103309172033B
:1024A0002817390769F4309729F4109274031092B1
:1024B000730302C013821282D0937203C09371031C
:1024C000DF91CF9108958F929F92AF92BF92CF925A
:1024D000DF92EF92FF92CF93DF93EC0168817981D5
:1024E0008A819B81611571058105910521F464E262
:1024F00079ED8BE597E02DE133EF41E050E00E946C
:10250000FD1049015A019B01AC01A7EAB1E40E9408
:1025100022116B017C01ACEEB4EFA50194010E9485
:102520005514C60ED71EE81EF91EF7FE06C081E040
:10253000C81AD108E10880E8F80AC882D982EA827C
:10254000FB82C701B6019F77DF91CF91FF90EF909B
:10255000DF90CF90BF90AF909F908F9008950E9492
:102560006312089586E091E00E94631208956093DB
:102570000601709307018093080190930901089563
:10258000A0E0B0E0E6ECF2E10C945E14EC01CB01CB
:10259000209719F40E943C11B8C0FE01E60FF71F06
:1025A0009E0122503109E217F30708F4ACC0D901AB
:1025B0000D911C91119706171707B8F005301105FA
:1025C00008F49FC0A801445051094617570708F462
:1025D00098C002501109061B170B019311936D93BC
:1025E0007C93CF010E94D4118CC05B01A01AB10A68
:1025F0004E01800E911EA0917303B0917403612C63
:10260000712C60E070E0109709F449C0A815B90575
:10261000C9F5ED90FC901197670142E0C40ED11C02
:10262000CA14DB0478F147018A189B08640142E070
:10263000C40ED11C1296BC9012971396AC91B5E0C3
:10264000CB16D10440F0B282A38391828082D9015B
:102650008D939C9309C00E5F1F4F0E0D1F1DF90136
:1026600011830083EB2DFA2F6115710531F0DB0129
:102670001396FC93EE93129744C0F0937403E09387
:1026800073033FC06D917C9111976616770608F42D
:102690003B01BD0112960D90BC91A02DB4CF60916D
:1026A00071037091720368157905E9F4681679066B
:1026B000D0F440910001509101014115510541F4C0
:1026C0004DB75EB76091040170910501461B570B31
:1026D000E417F507C0F4F0937203E0937103F90176
:1026E000918380830EC00E943C117C01009759F0B9
:1026F000A801BE010E94B113CE010E94D411C701EE
:1027000004C0CE0102C080E090E0CDB7DEB7EEE0BD
:102710000C947A141F93FC0199278827BC01E89434
:1027200011911032E9F3193010F01E30C8F31B324A
:1027300051F01D3249F4689406C00E94F113610FF4
:10274000711D811D911D119110531A30B0F33EF48B
:1027500090958095709561957F4F8F4F9F4F1F91FA
:102760000895FB01DC0102C001900D9241505040E0
:10277000D8F70895FB01DC0101900D920020E1F7EC
:1027800008954532510520F4423010F00C94CC13DA
:10279000FB011082CB010895BB274A3031F4992305
:1027A00022F4BDE2909581959F4F0C942914253217
:1027B000310520F4223010F00C94E213FA0110825B
:1027C000CA010895BB272A3051F4992342F4BDE28F
:1027D00090958095709561957F4F8F4F9F4F0C948A
:1027E0000714592F482F372F262F660F771F881F62
:1027F000991F660F771F881F991F620F731F841F11
:10280000951F660F771F881F991F0895BB27FA0130
:10281000A62F6217710581059105330B30FB66F019
:10282000AA27660F771F881F991FAA1FA21710F0EB
:10283000A21B63953850A9F7A05DAA3308F0A95DE3
:10284000A19336F7B111B1931082CA010C944214CE
:10285000BB27FB015527AA27880F991FAA1FA4177A
:1028600010F0A41B83955051B9F7A05DAA3308F06E
:10287000A95DA193009779F7B111B1931192CB01A2
:102880000C944214DC01FC01672F71917723E1F76E
:10289000329704C07C916D9370836291AE17BF072D
:1028A000C8F30895B7FF0C9422110E942211821BD5
:1028B000930B08952F923F924F925F926F927F9267
:1028C0008F929F92AF92BF92CF92DF92EF92FF9240
:1028D0000F931F93CF93DF93CDB7DEB7CA1BDB0BEC
:1028E0000FB6F894DEBF0FBECDBF09942A88398891
:1028F00048885F846E847D848C849B84AA84B98498
:10290000C884DF80EE80FD800C811B81AA81B981A3
:10291000CE0FD11D0FB6F894DEBF0FBECDBFED01B7
:10292000089510E0C4EDD0E004C0FE010E941E1125
:0C2930002296C63DD107C9F7F894FFCFEE
:10293C0000007503800001000000010A00FA00018C
:10294C00000100FF01234D6F757365204E616D65AD
:10295C003A20004D6F7573654B0023536573736993
:10296C006F6E205479706520496E6465783A20004A
:10297C002353657373696F6E3A200023507265732D
:10298C0073207468652053454C454354206275741C
:10299C0074626F6E21002020202020202020202017
:1029AC00004000312031005B00436E74726C0044B7
:1029BC00656C6179007901A5017F012020202050F0
:1029CC007265002020202043532B00202020204320
:1029DC00532D00202054726163650020202020209C
:1029EC005553004E6F2D5075666600202020504FB9
:1029FC0053540020202020495449002020202045F9
:102A0C004E440020506175736520008B0193019B2F
:102A1C0001A301AB01B301BB01C301CB01D3015035
:102A2C00524553532053454C454354005D002030D0
:102A3C000024003B001300000000008306EF070594
:102A4C00061E06100661060D0A006E616E00696EA8
:102A5C0066006F7666002E0000000000840FEF0702
:040000050080024A2B
:00000001FF
