:100000000C946B000C9493000C9493000C9493004C
:100010000C9493000C9493000C9493000C94130C88
:100020000C9493000C943E030C9493000C94930056
:100030000C9493000C9493000C9493000C949300F4
:100040000C94B50F0C9493000C9485070C94B7078F
:100050000C9493000C9493000C9493000C949300D4
:100060000C9493000C9493007204A104BD04C20488
:1000700000051E0523055105E805090602000000DC
:100080000800020100000304070000000000000057
:100090000001020408102040800102040810200121
:1000A00002040810200404040404040404020202EC
:1000B00002020203030303030300000000250028DB
:1000C000002B0000000000240027002A0000E402AA
:1000D0003506E7073C0611241FBECFEFD8E0DEBF90
:1000E000CDBF12E0A0E0B1E0E2E9F9E202C0059084
:1000F0000D92A433B107D9F723E0A4E3B2E001C025
:100100001D92A937B207E1F710E0C4EDD0E004C0BA
:100110002297FE010E944911CE3CD107C9F70E94E7
:1001200026060C94BC140C9400009B01909365026D
:100130008093640260914F0270915002C9010E9445
:100140005F021092530210925402109255021092C4
:1001500056020E94FF0F60935F02709360028093CB
:100160006102909362020895809157029091580223
:10017000A0915902B0915A024091530250915402F9
:100180006091550270915602841B950BA60BB70B1C
:1001900040910B0150910C0160E070E04817590745
:1001A0006A077B0708F043C0809109020E94511042
:1001B00090937402809373024AE050E0BC018AEB92
:1001C00092E00E944A0961E771E08AEB92E00E94A6
:1001D000760860915702709158028091590290916F
:1001E0005A0220E137E240E050E00E940611AB01E4
:1001F000BC012AE030E08AEB92E00E947509209170
:100200000B0130910C018091530290915402A09106
:100210005502B0915602820F931FA11DB11D80930C
:10022000530290935402A0935502B093560208953E
:10023000CF93DF93CDB7DEB762970FB6F894DEBFEA
:100240000FBECDBF65E171E08AEB92E00E947608B7
:100250008AEB92E00E944006892BD1F36AEB72E0B0
:10026000CE010D960E94B509CE010D960E94F90DA2
:10027000AB01BC012AE0CE0107960E947A0D63E231
:1002800071E0CE0101960E94090DBE01695F7F4FAA
:10029000CE0101960E94E60DBC0187E692E00E9425
:1002A0001F0DCE0101960E949B0CCE0107960E9465
:1002B0009B0CCE010D960E949B0C6AE271E0CE0170
:1002C00001960E94090D67E672E0CE0101960E9438
:1002D000E60DBC018AEB92E00E948308CE010196F4
:1002E0000E949B0C6CE271E08AEB92E00E9476081F
:1002F0008AEB92E00E944006892BD1F36AEB72E010
:10030000CE0101960E94B509CE0101960E94F90D19
:100310007093120160931101CE0101960E949B0C13
:100320006091110170911201665D7E4F8AEB92E03F
:100330000E94950862E471E08AEB92E00E947608E0
:100340008AEB92E00E944006892BD1F36AEB72E0BF
:10035000CE0101960E94B509CE0101960E94F90DC9
:100360007093100160930F01CE0101960E949B0CC7
:1003700060910F0170911001665D7E4F8AEB92E0F3
:100380000E9495086DE471E08AEB92E00E94950866
:100390000E94BA020497E1F70E94FF0F60936D027A
:1003A00070936E0280936F029093700281E080934D
:1003B0004E0241E060E086E392E00E94B40E65EBFD
:1003C00071E086E392E00E94760841E061E086E316
:1003D00092E00E94B40E60910F01709110014AE00A
:1003E00050E086E392E00E944A0941E064E086E33F
:1003F00092E00E94B40E6EEF71E086E392E00E94FC
:10040000760840E060E086E392E00E94B40E67E682
:1004100072E086E392E00E94680840E068E086E3CC
:1004200092E00E94B40EE0911101F0911201EE0FE2
:10043000FF1FE757FE4F6081718186E392E00E94C3
:10044000760841E066E086E392E00E94B40E68E63A
:1004500071E086E392E00E94760863E771E08AEB40
:1004600092E00E94950865E771E08AEB92E00E94B5
:10047000950867E771E08AEB92E00E9495086BE7C8
:1004800071E08AEB92E00E949508809111019091B1
:100490001201029729F410920E0110920D0106C06C
:1004A0008AEF90E090930E0180930D0162960FB653
:1004B000F894DEBF0FBECDBFDF91CF910895CF92EC
:1004C000DF92EF92FF920F931F93CF93DF93EC0194
:1004D0008B010E94FF0FC0906D02D0906E02E090E1
:1004E0006F02F09070026C197D098E099F0920E659
:1004F0003AEE40E050E00E94061169017A0140E0C6
:100500006EE086E392E00E94B40E4AE050E0B6014D
:1005100086E392E00E944A0941E065E086E392E0CA
:100520000E94B40EC830D10531F4B8016150710990
:100530004AE050E003C04AE050E0B80186E392E0B0
:100540000E944A0941E069E086E392E00E94B40E0D
:10055000CC0FDD1FC152DE4F6881798186E392E0C6
:10056000DF91CF911F910F91FF90EF90DF90CF908F
:100570000C9476088EE00E9451109093350280937F
:100580003402893E23E0920794F4823691058CF080
:100590008E3F910584F0883921E0920774F0883508
:1005A00022E0920764F0843893405CF0089585E07F
:1005B00009C080E007C081E005C082E003C083E09D
:1005C00001C084E090E00895CF92EF920F9397E0FE
:1005D000C92E26E0E22E05E024E049E068E086E34B
:1005E00092E00E94890F0F91EF90CF9008950C94A4
:1005F000D0100C94D010089580E090E0FC01EE0F34
:10060000FF1FE258FD4F1182108201968E31910535
:10061000A9F708950F931F93CF93DF9381E0809301
:100620007B0210927D0210927C02C0E0D0E04AE092
:1006300050E0BE018AEB92E00E944A0961E771E056
:100640008AEB92E00E9476088E01000F111F02587B
:100650001D4FF801608171814AE050E08AEB92E021
:100660000E945F09F801118210822196CE31D105D6
:10067000F1F6DF91CF911F910F9108951F920F9284
:100680000FB60F9211242F938F939F93EF93FF93A5
:100690008091790290917A02019690937A028093E8
:1006A00079028091790290917A02883E9340A1F478
:1006B000809178028F5F8093780210927A02109274
:1006C0007902809178028C3339F41092780280910B
:1006D00077028F5F80937702E0917C02F0917D0238
:1006E000EE0FFF1FE258FD4F8081918101969183AB
:1006F0008083809175028093B200FF91EF919F916A
:100700008F912F910F900FBE0F901F901895E0E7DB
:10071000F0E080818E7F8083A0EBB0E08C918C7FB5
:100720008C93A6EBB0E08C918F7D8C9380818D7F34
:100730008083A1EBB0E08C9185608C938C918D7F50
:100740008C9383E890E0909376028093750283E81F
:100750008093B200808181608083789408951092A4
:100760007D0210927C0210927B020E94FC0226E025
:1007700040E855E260E070E08AEB92E00E942307D7
:1007800010927A02109279021092780210927702F7
:100790000E94870361E08DE00E94971061E08BE08A
:1007A0000E94971020E042E060E186E392E00E9420
:1007B000CE0E41E064E086E392E00E94B40E63EF67
:1007C00071E086E392E00E94760860916D0270917C
:1007D0006E0280916F02909170020C946F0C6F9278
:1007E0007F928F929F92AF92BF92CF92DF92EF92C1
:1007F000FF920F931F93CF93DF9380914E0281114D
:1008000002C00E94180198E0692E712C26E0E22EA9
:10081000F12C35E0C32ED12CC4E0D0E043E0A42E6F
:10082000B12C52E0852E912C01E010E080914E0217
:10083000882309F4FCC180914F0290915002892BCA
:1008400031F50E94FF0F60935F0270936002809306
:100850006102909362020E94FF0F60935B027093AB
:100860005C0280935D0290935E02109350020093AD
:100870004F0261E08DE090E00E94F90260914F022A
:100880007091500280E090E00E945F02CFCF0E9402
:10089000FF0F20915F023091600240916102509100
:1008A0006202621B730B840B950B6093570270936B
:1008B00058028093590290935A020E94FF0F0E949F
:1008C000BA02892B19F481E080936302E0916402FB
:1008D000F0916502EA30F10508F0A8CFEC5CFF4F1B
:1008E0000C94471110937D0200937C020E94B40087
:1008F0008091570290915802A0915902B0915A02EA
:1009000088389341A105B10508F490CF80910A0180
:1009100020E030E0A901882351F068E873E183E02A
:100920000E94CF0961E070E081E090E07DC168EE57
:1009300073E083E00E94CF0962E070E082E090E023
:1009400073C190927D0280927C020E94B4008091DB
:10095000570290915802A0915902B0915A028E35D7
:100960009140A105B10508F461CF83E00E94FE0B20
:1009700063E070E083E090E057C1B0927D02A09206
:100980007C02E3CFD0937D02C0937C020E94B4002E
:1009900080910D0190910E01AA2797FDA095BA2F85
:1009A00040915702509158026091590270915A0239
:1009B000481759076A077B0708F438CF809111015F
:1009C00090911201892B91F080910A01882371F096
:1009D00061E08BE090E00E94F702D0936502C09343
:1009E000640264E070E084E090E01EC160E08BE0AF
:1009F00090E00E94F70265E070E085E090E014C1AD
:100A0000D0927D02C0927C020E94B4008091570275
:100A100090915802A0915902B0915A0284369105E2
:100A2000A105B10508F402CF60E08BE090E00E94E0
:100A3000F70266E070E086E090E0F6C0F0927D029A
:100A4000E0927C02E1CF87E090E090937D0280937A
:100A50007C020E94B4008091570290915802A091AC
:100A60005902B0915A0288389341A105B10508F4A2
:100A7000DDCE68E873E180E090E00E94770C605F73
:100A8000784D709352026093510267E070E087E006
:100A900090E00E94950060E08DE090E00E94F902F5
:100AA000C5CE70927D0260927C02809163028823A1
:100AB00029F069E070E089E090E0B6C080915102D1
:100AC00090915202AA2797FDA095BA2F4091570204
:100AD000509158026091590270915A024817590773
:100AE0006A077B0708F4A2CE80914F0290915002D2
:100AF00001969093500280934F02109272021092CE
:100B0000710260E072E0853691054CF08AEB92E06C
:100B10000E94950868E070E088E090E085C08AEB6C
:100B200092E00E94950865E771E08AEB92E00E94EE
:100B300095086AE070E080E090E00E94770CE09118
:100B40004F02F091500265307105810591056CF0FE
:100B500021E020930A014AE050E0BF018AEB92E0D5
:100B60000E944A0968E771E00BC010920A014AE04E
:100B700050E0BF018AEB92E00E944A0962E072E015
:100B80008AEB92E00E9495086BE771E08AEB92E0B5
:100B90000E94950860914F027091500280E090E0B1
:100BA0000E945F0260E070E080E090E00E949500AB
:100BB00061E08DE090E00E94F9020E94FF0F6093D7
:100BC0005B0270935C0280935D0290935E022ECE76
:100BD000809166028823B1F065E072E08AEB92E0D2
:100BE0000E9495086BE771E08AEB92E00E949508FD
:100BF0000E940A0360E072E08AEB92E00E9495088E
:100C00001092660267E072E08AEB92E00E9495081B
:100C1000FFCF0E94BA02039709F008CE1092630238
:100C200067E070E087E090E00E949500FFCDDF91E3
:100C3000CF911F910F91FF90EF90DF90CF90BF90D9
:100C4000AF909F908F907F906F9008950E941610A4
:100C50000E94FB020E94AF03CDE6D6E00E94EF03A4
:100C60002097E1F30E946D06F9CF4AE061E070E061
:100C700087E692E00C944E0D87E692E00C949B0C74
:100C8000FC01818D228D90E0805C9F4F821B910939
:100C90008F7399270895FC01918D828D981731F0FB
:100CA000828DE80FF11D858D90E008958FEF9FEF05
:100CB0000895FC01918D828D981761F0828DDF017E
:100CC000A80FB11D5D968C91928D9F5F9F73928F3F
:100CD00090E008958FEF9FEF08958DED97E0892BB9
:100CE00049F080E090E0892B29F00E94DD07811116
:100CF0000C9400000895FC01848DDF01A80FB11D44
:100D0000A35ABF4F2C91848D90E001968F73992741
:100D1000848FA689B7892C93A089B1898C9180642E
:100D20008C93938D848D981306C00288F389E02DEF
:100D300080818F7D80830895CF93DF93EC01888D30
:100D40008823C9F0EA89FB89808185FD05C0A889CF
:100D5000B9898C9186FD0FC00FB607FCF5CF808155
:100D600085FFF2CFA889B9898C9185FFEDCFCE019F
:100D70000E947B06E7CFDF91CF910895CF92DF925B
:100D8000FF920F931F93CF93DF931F92CDB7DEB7E0
:100D90006C0181E0D60158968C9358975B969C9194
:100DA0005B975C968C915C97981307C05096ED9179
:100DB000FC915197808185FD2EC0F601038D10E0D6
:100DC0000F5F1F4F0F731127F02EF601848DF8125D
:100DD00011C00FB607FCF9CFD6015096ED91FC91EA
:100DE0005197808185FFF1CFC60169830E947B0600
:100DF0006981EBCF838DE80FF11DE35AFF4F6083CC
:100E0000D6015B960C935B975296ED91FC915397AC
:100E1000808180620CC0D6015696ED91FC91579767
:100E200060835096ED91FC9151978081806480831E
:100E300081E090E00F90DF91CF911F910F91FF9093
:100E4000DF90CF900895BF92CF92DF92EF92FF9202
:100E5000CF93DF93EC016A017B01B22EE889F98917
:100E600082E08083411581EE580761057105A1F08C
:100E700060E079E08DE390E0A70196010E94061101
:100E800021503109410951095695479537952795C4
:100E9000211580E1380798F0E889F989108260E827
:100EA00074E88EE190E0A70196010E94061121509E
:100EB0003109410951095695479537952795EC8594
:100EC000FD853083EE85FF852083188EEC89FD89B2
:100ED000B082EA89FB89808180618083EA89FB890D
:100EE000808188608083EA89FB8980818068808333
:100EF000EA89FB8980818F7D8083DF91CF91FF908C
:100F0000EF90DF90CF90BF9008951F920F920FB691
:100F10000F9211242F938F939F93EF93FF93E09160
:100F2000CA02F091CB028081E091D002F091D1020F
:100F300082FD12C090818091D3028F5F8F732091C8
:100F4000D402821751F0E091D302F0E0E654FD4F55
:100F5000958F8093D30201C08081FF91EF919F9183
:100F60008F912F910F900FBE0F901F9018951F9289
:100F70000F920FB60F9211242F933F934F935F93CD
:100F80006F937F938F939F93AF93BF93EF93FF9351
:100F90008AEB92E00E947B06FF91EF91BF91AF91A7
:100FA0009F918F917F916F915F914F913F912F9181
:100FB0000F900FBE0F901F9018958AEB92E00E9441
:100FC000400621E0892B09F420E0822F0895109239
:100FD000BD021092BC0288EE93E0A0E0B0E08093E6
:100FE000BE029093BF02A093C002B093C1028FE0F3
:100FF00092E09093BB028093BA0285EC90E09093CC
:10100000C7028093C60284EC90E09093C90280935B
:10101000C80280EC90E09093CB028093CA0281ECEE
:1010200090E09093CD028093CC0282EC90E090937C
:10103000CF028093CE0286EC90E09093D102809311
:10104000D0021092D3021092D4021092D5021092C4
:10105000D6020895CF92DF92EF92FF920F931F93E3
:10106000CF93DF936C017A01EB01E60EF71E00E0EF
:1010700010E0CE15DF0561F06991D601ED91FC918C
:101080000190F081E02DC6010995080F191FF1CFDD
:10109000C801DF91CF911F910F91FF90EF90DF90EA
:1010A000CF9008956115710581F0DB010D9000204E
:1010B000E9F7AD0141505109461B570BDC01ED9199
:1010C000FC910280F381E02D099480E090E0089586
:1010D000DC01ED91FC91DB0114964D915C9115972B
:1010E0006D917C910280F381E02D09940C9452085B
:1010F000DC01ED91FC910190F081E02D09946BE110
:1011000072E00C9452080F931F93CF93DF93EC017E
:101110000E9468088C01CE010E947F08800F911FF9
:10112000DF91CF911F910F9108950F931F93CF934C
:10113000DF93EC010E9452088C01CE010E947F08CF
:10114000800F911FDF91CF911F910F9108958F9282
:101150009F92AF92BF92CF92DF92EF92FF920F9346
:101160001F93CF93DF93CDB7DEB7A1970FB6F89457
:10117000DEBF0FBECDBF7C01C42EE52FCB01D22E2A
:1011800019A221E02D1510F02AE0D22E8E010F5D5C
:101190001F4F8D2C912CA12CB12C6C2D7E2FA501D5
:1011A00094010E9406118C2DD29E801911240150A9
:1011B00011098A3014F4805D01C0895CF8018083D4
:1011C000211531054105510521F0C22EE32FCA0139
:1011D000E4CFB801C7010E945208A1960FB6F89457
:1011E000DEBF0FBECDBFDF91CF911F910F91FF905A
:1011F000EF90DF90CF90BF90AF909F908F90089529
:10120000CF92DF92EF92FF920F931F93CF93DF93D2
:10121000EC016A017B012115310579F4E881F9813E
:101220000190F081E02D642FDF91CF911F910F91FC
:10123000FF90EF90DF90CF9009942A303105E9F4C8
:1012400077FF1AC06DE20E9478088C014427552769
:10125000BA014C195D096E097F092AE0CE010E948E
:10126000A708800F911FDF91CF911F910F91FF90E1
:10127000EF90DF90CF9008952AE0B701A601CE014C
:10128000DF91CF911F910F91FF90EF90DF90CF9062
:101290000C94A7089A01AB01662757FD6095762F3D
:1012A0000C9400092115310541F4DC01ED91FC910C
:1012B0000190F081E02D642F09940C94A7080F93FE
:1012C0001F93CF93DF93EC019A01AB0160E070E0D4
:1012D0000E9452098C01CE010E947F08800F911F4D
:1012E000DF91CF911F910F9108950F931F93CF938B
:1012F000DF93EC010E9452098C01CE010E947F080D
:10130000800F911FDF91CF911F910F9108950F933F
:101310001F93CF93DF93EC010E94FF0F68877987BB
:101320008A879B87E881F9810680F781E02DCE01CD
:10133000099597FF15C00E94FF0F088519852A851A
:101340003B85601B710B820B930B0C811D812E81E1
:101350003F81601771078207930720F38FEF9FEF9C
:10136000DF91CF911F910F9108950F931F93CF930A
:10137000DF93EC018B016DE172E00E94090DC80161
:101380000E94870997FD05C0682FCE010E94D30DEA
:10139000F6CFCE01DF91CF911F910F9108953F922B
:1013A0004F925F926F927F928F929F92AF92BF9275
:1013B000CF92DF92EF92FF920F931F93CF93DF9321
:1013C00000D000D0CDB7DEB78B0129013A01909152
:1013D0001301981721F09F3F09F0DAC104C0ECE730
:1013E000F0E0349081C080931301ECE7F0E0E491E9
:1013F000EF3F09F4CDC1E13031F1E23009F44BC0E7
:10140000E11171C014BC15BC94B5926094BD95B542
:10141000916095BD282F30E0F901EB55FF4FE49125
:10142000F0E0EE0FFF1FE754FF4F459154915093AA
:10143000670340936603F901EF56FF4F2491209311
:101440006503312C53C0109280001092810090915E
:1014500081009860909381009091810091609093B9
:101460008100282F30E0F901EB55FF4FE491F0E0C7
:10147000EE0FFF1FE754FF4F4591549150936003C7
:1014800040935F03F901EF56FF4F249120935E03D1
:10149000332433942BC01092B0001092B10090917D
:1014A000B00092609093B0009091B10091609093E1
:1014B000B100282F30E0F901EB55FF4FE491F0E047
:1014C000EE0FFF1FE754FF4F45915491509359037E
:1014D00040935803F901EF56FF4F2491209357038F
:1014E00052E0352E03C03E2E37FC52C161E00E940F
:1014F00097104801A12CB12C832D8D7F09F0C7C016
:1015000060E072E18AE790E0A50194010E94281151
:1015100029833A834B835C8369017A0181E0C81A8D
:10152000D108E108F1089FEFC916D104E104F104E4
:1015300009F008F49AC060E472E48FE090E0A5013D
:1015400094010E94281169017A01E1E0CE1AD108C4
:10155000E108F108F2E03F1219C08FEFC816D1047C
:10156000E104F10409F008F48AC060E970ED83E059
:1015700090E0A50194010E94281169017A0191E08F
:10158000C91AD108E108F10883E001C082E0EFEF59
:10159000CE16D104E104F10409F008F467C068E450
:1015A00078EE81E090E0A50194010E942811690184
:1015B0007A01F1E0CF1AD108E108F1083320E1F017
:1015C00082E038121BC09FEFC916D104E104F10478
:1015D00009F008F4DBC064E274EF80E090E0A5015C
:1015E00094010E94281169017A01E1E0CE1AD10824
:1015F000E108F10885E003C083E001C084E0FFEF6B
:10160000CF16D104E104F10489F180F162E17AE7B7
:1016100080E090E0A50194010E94281169017A01FF
:1016200081E0C81AD108E108F108311002C084E055
:1016300001C086E09FEFC916D104E104F104B1F0C6
:10164000A8F0C980DA80EB80FC809AE0F594E794FA
:10165000D794C7949A95D1F7E1E0CE1AD108E10862
:10166000F108332031F087E00BC081E0332011F026
:1016700007C085E095B5987F982B95BD38C082E06E
:101680009091B100987F982B9093B10030C060E0AA
:1016900072E18AE790E0A50194010E942811690196
:1016A0007A01F1E0CF1AD108E108F108C114D104A0
:1016B00081E0E806F10488F068E478EE81E090E0EB
:1016C000A50194010E94281169017A0191E0C91ACB
:1016D000D108E108F10893E001C091E0E1E03E1299
:1016E00006C080918100887F892B809381004114FE
:1016F00051046104710471F0D801AA0FBB1FA3014A
:1017000092010E944D1128EE33E040E050E00E942B
:10171000061103C02FEF3FEFA901F1E03F16A1F042
:1017200082E0381619F1311033C0C7BC209368032A
:101730003093690340936A0350936B0380916E006A
:10174000826080936E0024C0D0928900C09288008D
:1017500020936103309362034093630350936403C7
:1017600080916F00826080936F0012C0C092B300BE
:1017700020935A0330935B0340935C0350935D03C3
:101780008091700082608093700002C084E078CF06
:101790000F900F900F900F90DF91CF911F910F91AD
:1017A000FF90EF90DF90CF90BF90AF909F908F9081
:1017B0007F906F905F904F903F900895813039F007
:1017C00018F0823051F0089510926E0008958091C3
:1017D0006F008D7F80936F000895809170008D7FE2
:1017E0008093700081E08093B0008091B100887F89
:1017F00084608093B1001092B3000895CF93C82FF6
:10180000809113018C1307C0ECE7F0E084919FEF07
:101810009093130101C08FEF0E94DE0B60E08C2FCC
:10182000CF910C94D0101F920F920FB60F921124EB
:101830002F933F934F935F936F937F938F939F93D8
:10184000AF93BF93EF93FF9380915A0390915B0303
:10185000A0915C03B0915D03892B8A2B8B2B51F1F6
:1018600090915703E0915803F091590380818927A3
:10187000808380915A0390915B03A0915C03B091A7
:101880005D03181619061A061B06C4F480915A0344
:1018900090915B03A0915C03B0915D030197A10956
:1018A000B10980935A0390935B03A0935C03B093B8
:1018B0005D0304C0809113010E94FE0BFF91EF9124
:1018C000BF91AF919F918F917F916F915F914F9158
:1018D0003F912F910F900FBE0F901F90189561159B
:1018E00071058105910511F00C94E2120895CF93D2
:1018F000DF9300D000D0CDB7DEB79B01AC016115FE
:1019000071058105910569F069833A834B835C8396
:101910000E94DD1229813A814B815C810E9428114D
:1019200003C060E070E0CB010F900F900F900F901C
:10193000DF91CF910895FC01808191810C94FF117A
:10194000CF93DF93EC0188819981009711F00E9479
:10195000FF11198218821D821C821B821A82DF915C
:10196000CF9108950F931F93CF93DF93EC018B01D9
:101970006F5F7F4F888199810E94EB12009731F051
:10198000998388831B830A8381E001C080E0DF9113
:10199000CF911F910F910895CF93DF93EC01888130
:1019A0009981892B29F08A819B818617970760F49A
:1019B000CE010E94B20C882341F08C819D81892B3D
:1019C00019F4E881F981108281E0DF91CF910895C7
:1019D000EF92FF920F931F93CF93DF93EC017B0164
:1019E0008A01BA010E94CC0C811104C0CE010E9470
:1019F000A00C07C01D830C83B701888199810E94C8
:101A0000E513CE01DF91CF911F910F91FF90EF90E1
:101A10000895FC01118210821382128215821482B1
:101A20006115710559F0FB0101900020E9F7AF0144
:101A300041505109461B570B0C94E80C0895CF9365
:101A4000DF93EC01FB018617970761F060817181DC
:101A50006115710529F0448155810E94E80C02C08E
:101A60000E94A00CCE01DF91CF910895CF93DF9318
:101A7000EC016115710561F0FB0101900020E9F7AF
:101A8000AF0141505109461B570B0E94E80C02C0A0
:101A90000E94A00CCE01DF91CF9108950F931F9368
:101AA000CF93DF93CDB7DEB762970FB6F894DEBF62
:101AB0000FBECDBF8C01CB01F801118210821382C1
:101AC00012821582148250E0BE016F5F7F4F0E9428
:101AD000EC13BE016F5F7F4FC8010E94360D629606
:101AE0000FB6F894DEBF0FBECDBFDF91CF911F912F
:101AF0000F9108950F931F93CF93DF93CDB7DEB768
:101B0000A2970FB6F894DEBF0FBECDBF8C01CB01FC
:101B1000BA01F80111821082138212821582148296
:101B200030E0AE014F5F5F4F0E940214BE016F5F55
:101B30007F4FC8010E94360DA2960FB6F894DEBF03
:101B40000FBECDBFDF91CF911F910F910895EF92FE
:101B5000FF920F931F93CF93DF93EC017B010C81D6
:101B60001D816115710511F480E016C04115510504
:101B700091F0040F151FB8010E94CC0C8823A1F32B
:101B8000288139818C819D81B701820F931F0E942A
:101B9000E5131D830C8381E0DF91CF911F910F919D
:101BA000FF90EF900895CF93DF9300D0CDB7DEB7CD
:101BB00069831A8241E050E0BE016F5F7F4F0E944F
:101BC000A70D0F900F90DF91CF910895CF93DF93E2
:101BD000EC01FB0144815581608171810E94A70D58
:101BE000811103C0CE010E94A00CCE01DF91CF91E4
:101BF0000895FC0180819181009711F00C94B51338
:101C000060E070E0CB010895CF93DF93EC0160E0DA
:101C10008E810E94D01081E090E00E940B1061E064
:101C20008E810E94D01081E090E00E940B1060E055
:101C30008E810E94D01084E690E0DF91CF910C94C9
:101C40000B10CF92DF92EF92FF920F931F93CF93DF
:101C5000DF937C01C0E0D0E0C62ED12C87010C0FB1
:101C60001D1F61E0F80187810E949710B6010C2EBC
:101C700002C0759567950A94E2F76170F801878153
:101C80000E94D0102196C430D10541F7C701DF91E1
:101C9000CF911F910F91FF90EF90DF90CF900C9418
:101CA000040ECF92DF92EF92FF920F931F93CF9388
:101CB000DF937C01C0E0D0E0C62ED12C87010C0F51
:101CC0001D1F61E0F80187810E949710B6010C2E5C
:101CD00002C0759567950A94E2F76170F8018781F3
:101CE0000E94D0102196C830D10541F7C701DF917D
:101CF000CF911F910F91FF90EF90DF90CF900C94B8
:101D0000040E1F93CF93DF93EC01162F642F8C8169
:101D10000E94D0108D818F3F19F060E00E94D0109A
:101D20008F85612F84FF06C0CE01DF91CF911F9177
:101D30000C94510E70E084E0759567958A95E1F7F3
:101D4000CE010E94210E612FCE01DF91CF911F9114
:101D50000C94210E40E00C94810E61E00E94AA0ECA
:101D600080ED97E00C940B10443008F043E0FC0148
:101D70002389421710F04FEF420FFC01E40FF11DD1
:101D80002489260F2068622F0C94AA0EFC0160891A
:101D9000262F2460208B6C600C94AA0ECF93DF93C7
:101DA000EC01423018F08F8588608F874B8B1C8A3E
:101DB00080E48D8B6E8B70E0605C7F4F6F8B222395
:101DC00029F0413019F48F8584608F8780E593EC8A
:101DD0000E940B1060E08C810E94D01060E08E8128
:101DE0000E94D0108D818F3F19F060E00E94D010CA
:101DF0006F8564FD1DC063E0CE010E94210E84E961
:101E000091E10E940B1063E0CE010E94210E84E953
:101E100091E10E940B1063E0CE010E94210E86E941
:101E200090E00E940B1062E0CE010E94210E16C0CD
:101E30006062CE010E94AA0E84E991E10E940B101B
:101E40006F856062CE010E94AA0E86E990E00E9432
:101E50000B106F856062CE010E94AA0E6F856062D2
:101E6000CE010E94AA0E84E0888BCE010E94C60E8D
:101E7000CE010E94AD0E82E0898B66E0CE01DF913B
:101E8000CF910C94AA0E6F927F928F92AF92CF92C5
:101E9000EF920F931F93CF93DF93CDB7DEB73C0143
:101EA000162F842F5D854E853F859889F3018483A5
:101EB00025830683E782C086A1868286538744876E
:101EC0003587968761E00E949710F30185818F3FE7
:101ED00019F061E00E94971061E0F30186810E9491
:101EE0009710112319F0F301178603C080E1F30165
:101EF000878720E041E060E1C301DF91CF911F912E
:101F00000F91EF90CF90AF908F907F906F900C9447
:101F1000CE0E8F92AF92CF92EF920F93DC01139679
:101F20001C921E921297E0E3F2E0ED93FC931F9255
:101F30001F921F921F928C2CAE2CC02EE22E042FCB
:101F40002FEF462F61E00E94430F0F900F900F90EC
:101F50000F900F91EF90CF90AF908F90089541E048
:101F60000E94810E81E090E008951F920F920FB6BB
:101F70000F9211242F933F938F939F93AF93BF930F
:101F800080916D0390916E03A0916F03B0917003E7
:101F900030916C0323E0230F2D3720F40196A11D0F
:101FA000B11D05C026E8230F0296A11DB11D209387
:101FB0006C0380936D0390936E03A0936F03B093B3
:101FC00070038091710390917203A0917303B0919B
:101FD00074030196A11DB11D809371039093720348
:101FE000A0937303B0937403BF91AF919F918F91AE
:101FF0003F912F910F900FBE0F901F9018952FB704
:10200000F89460916D0370916E0380916F039091CD
:1020100070032FBF08958230910538F0880F991F03
:10202000880F991F05970197F1F70895789484B563
:10203000826084BD84B5816084BD85B5826085BDC4
:1020400085B5816085BDEEE6F0E0808181608083AA
:10205000E1E8F0E01082808182608083808181608D
:102060008083E0E8F0E0808181608083E1EBF0E054
:10207000808184608083E0EBF0E0808181608083F8
:10208000EAE7F0E0808184608083808182608083E1
:102090008081816080838081806880831092C1000C
:1020A00008958E3008F08E5087702091140190E4CE
:1020B000299F90011124822B80937C0080917A00CB
:1020C000806480937A0080917A0086FDFCCF8091B5
:1020D00078002091790090E0922B0895833081F070
:1020E00028F4813099F08230A1F008958730A9F06A
:1020F0008830B9F08430D1F4809180008F7D03C0A6
:10210000809180008F7780938000089584B58F77C9
:1021100002C084B58F7D84BD08958091B0008F7713
:1021200003C08091B0008F7D8093B0000895CF935D
:10213000DF9390E0FC01EF56FF4F2491FC01EB553B
:10214000FF4F8491882349F190E0880F991FFC018B
:10215000ED53FF4FA591B49187549F4FFC01C5915A
:10216000D4919FB7611108C0F8948C912095822377
:102170008C93888182230AC0623051F4F8948C9148
:10218000322F309583238C938881822B888304C0DF
:10219000F8948C91822B8C939FBFDF91CF910895FF
:1021A0000F931F93CF93DF931F92CDB7DEB7282FE6
:1021B00030E0F901E358FF4F8491F901EF56FF4FEA
:1021C0001491F901EB55FF4F04910023C9F08823C6
:1021D00021F069830E946E106981E02FF0E0EE0F1C
:1021E000FF1FE754FF4FA591B4919FB7F8948C91CE
:1021F000611103C01095812301C0812B8C939FBF77
:102200000F90DF91CF911F910F910895A1E21A2EA7
:10221000AA1BBB1BFD010DC0AA1FBB1FEE1FFF1F8A
:10222000A217B307E407F50720F0A21BB30BE40BDA
:10223000F50B661F771F881F991F1A9469F7609521
:102240007095809590959B01AC01BD01CF010895DB
:10225000052E97FB1EF400940E943F1157FD07D0F6
:102260000E94061107FC03D04EF40C943F115095C8
:102270004095309521953F4F4F4F5F4F0895909572
:102280008095709561957F4F8F4F9F4F0895EE0F0A
:10229000FF1F0590F491E02D09940E945811A59F0D
:1022A000900DB49F900DA49F800D911D1124089551
:1022B000A29FB001B39FC001A39F700D811D112487
:1022C000911DB29F700D811D1124911D0895CF9312
:1022D000DF938230910510F482E090E0E091770383
:1022E000F091780320E030E0A0E0B0E0309739F1E1
:1022F0004081518148175907B8F04817590771F4C0
:1023000082819381109729F013969C938E93129754
:102310002CC0909378038093770327C02115310553
:1023200031F04217530718F0A901DB0101C0EF019A
:102330009A01BD01DF010280F381E02DD7CF211585
:102340003105F9F0281B390B2430310580F48A81DE
:102350009B816115710521F0FB019383828304C089
:102360009093780380937703FE01329644C0FE0178
:10237000E20FF31F8193919322503109398328830F
:102380003AC02091750330917603232B41F42091BC
:10239000020130910301309376032093750320915D
:1023A0000001309101012115310541F42DB73EB7EF
:1023B0004091040150910501241B350BE0917503F8
:1023C000F0917603E217F307A0F42E1B3F0B2817BA
:1023D000390778F0AC014E5F5F4F2417350748F09E
:1023E0004E0F5F1F50937603409375038193919333
:1023F00002C0E0E0F0E0CF01DF91CF910895CF93EC
:10240000DF93009709F487C0FC0132971382128290
:10241000C0917703D0917803209781F42081318196
:10242000280F391F809175039091760382179307C7
:1024300079F5F0937603E09375036DC0DE0120E03B
:1024400030E0AE17BF0750F412964D915C91139790
:102450009D014115510509F1DA01F3CFB383A28340
:1024600040815181840F951F8A179B0771F48D91CC
:102470009C911197840F951F0296918380831296E9
:102480008D919C911397938382832115310529F4B3
:10249000F0937803E09377033EC0D9011396FC9341
:1024A000EE9312974D915D91A40FB51FEA17FB07AC
:1024B00079F480819181840F951F0296D90111963C
:1024C0009C938E938281938113969C938E93129703
:1024D000E0E0F0E08A819B81009719F0FE01EC01B9
:1024E000F9CFCE01029628813981820F931F209166
:1024F0007503309176032817390769F4309729F46A
:10250000109278031092770302C013821282D09344
:102510007603C0937503DF91CF9108958F929F92B8
:10252000AF92BF92CF92DF92EF92FF92CF93DF9361
:10253000EC01688179818A819B8161157105810532
:10254000910521F464E279ED8BE597E02DE133EF1D
:1025500041E050E00E94281149015A019B01AC0161
:10256000A7EAB1E40E944D116B017C01ACEEB4EF1F
:10257000A50194010E948014C60ED71EE81EF91E04
:10258000F7FE06C081E0C81AD108E10880E8F80A21
:10259000C882D982EA82FB82C701B6019F77DF91A8
:1025A000CF91FF90EF90DF90CF90BF90AF909F9032
:1025B0008F9008950E948E12089586E091E00E9407
:1025C0008E120895609306017093070180930801AD
:1025D000909309010895A0E0B0E0E1EFF2E10C94DE
:1025E0008914EC01CB01209719F40E946711B8C03F
:1025F000FE01E60FF71F9E0122503109E217F30793
:1026000008F4ACC0D9010D911C911197061717075A
:10261000B8F00530110508F49FC0A80144505109D5
:102620004617570708F498C002501109061B170BEC
:10263000019311936D937C93CF010E94FF118CC085
:102640005B01A01AB10A4E01800E911EA091770382
:10265000B0917803612C712C60E070E0109709F460
:1026600049C0A815B905C9F5ED90FC90119767010F
:1026700042E0C40ED11CCA14DB0478F147018A1869
:102680009B08640142E0C40ED11C1296BC901297C4
:102690001396AC91B5E0CB16D10440F0B282A3837F
:1026A00091828082D9018D939C9309C00E5F1F4F48
:1026B0000E0D1F1DF90111830083EB2DFA2F6115FB
:1026C000710531F0DB011396FC93EE93129744C031
:1026D000F0937803E09377033FC06D917C9111975D
:1026E0006616770608F43B01BD0112960D90BC9169
:1026F000A02DB4CF609175037091760368157905AC
:10270000E9F468167906D0F4409100015091010176
:102710004115510541F44DB75EB7609104017091C8
:102720000501461B570BE417F507C0F4F093760339
:10273000E0937503F901918380830EC00E946711B5
:102740007C01009759F0A801BE010E94DC13CE0164
:102750000E94FF11C70104C0CE0102C080E090E0DA
:10276000CDB7DEB7EEE00C94A5141F93FC019927BA
:102770008827BC01E89411911032E9F3193010F068
:102780001E30C8F31B3251F01D3249F4689406C064
:102790000E941C14610F711D811D911D1191105318
:1027A0001A30B0F33EF490958095709561957F4F07
:1027B0008F4F9F4F1F910895FB01DC0102C00190D4
:1027C0000D9241505040D8F70895FB01DC01019073
:1027D0000D920020E1F708954532510520F4423072
:1027E00010F00C94F713FB011082CB010895BB2766
:1027F0004A3031F4992322F4BDE2909581959F4FA0
:102800000C9454142532310520F4223010F00C942D
:102810000D14FA011082CA010895BB272A3051F421
:10282000992342F4BDE290958095709561957F4F14
:102830008F4F9F4F0C943214592F482F372F262F2C
:10284000660F771F881F991F660F771F881F991FB4
:10285000620F731F841F951F660F771F881F991FB4
:102860000895BB27FA01A62F62177105810591050E
:10287000330B30FB66F0AA27660F771F881F991F5E
:10288000AA1FA21710F0A21B63953850A9F7A05DEC
:10289000AA3308F0A95DA19336F7B111B193108264
:1028A000CA010C946D14BB27FB015527AA27880F7A
:1028B000991FAA1FA41710F0A41B83955051B9F7B4
:1028C000A05DAA3308F0A95DA193009779F7B11133
:1028D000B1931192CB010C946D14DC01FC01672FB4
:1028E00071917723E1F7329704C07C916D937083E7
:1028F0006291AE17BF07C8F30895B7FF0C944D114E
:102900000E944D11821B930B08952F923F924F927C
:102910005F926F927F928F929F92AF92BF92CF926F
:10292000DF92EF92FF920F931F93CF93DF93CDB778
:10293000DEB7CA1BDB0B0FB6F894DEBF0FBECDBFF0
:1029400009942A88398848885F846E847D848C84C1
:102950009B84AA84B984C884DF80EE80FD800C81CA
:102960001B81AA81B981CE0FD11D0FB6F894DEBFAD
:102970000FBECDBFED01089510E0C4EDD0E004C05E
:10298000FE010E9449112296C63DD107C9F7F8946D
:02299000FFCF77
:1029920000007903800001000000010A00FA000132
:1029A200000100FF01234D6F757365204E616D6557
:1029B2003A20004D6F7573654B00230023536573F6
:1029C20073696F6E205479706520496E6465783A38
:1029D20020002353657373696F6E3A20002350728F
:1029E200657373207468652053454C4543542062D7
:1029F200757474626F6E2100202020202020202018
:102A02002020003C004000312031005B00436E7406
:102A1200726C0044656C6179007D01A9018301201B
:102A2200202020507265002020202043532B0020BC
:102A320020202043532D0020205472616365002022
:102A4200202020205553004E6F2D507566660020C1
:102A52002020504F53540020202020495449002068
:102A6200202020454E440020506175736520008F60
:102A72000197019F01A701AF01B701BF01C701CFB4
:102A820001D70150524553532053454C45435400FE
:102A92005D0020300024003E00130000000000BE54
:102AA200062A08400659064B069C060D0A006E616E
:102AB2006E00696E66006F7666002E0000000000F0
:042AC200AF0F2A0820
:040000050080024E27
:00000001FF
