:100000000C946B000C9493000C9493000C9493004C
:100010000C9493000C9493000C9493000C94ED0BAF
:100020000C9493000C9482010C9493000C94930014
:100030000C9493000C9493000C9493000C949300F4
:100040000C94870F0C9493000C9459070C948B0715
:100050000C9493000C9493000C9493000C949300D4
:100060000C9493000C949300F6032C04570476042C
:10007000A904CD04F0041705D405E705020000002B
:100080000800020100000304070000000000000057
:100090000001020408102040800102040810200121
:1000A00002040810200404040404040404020202EC
:1000B00002020203030303030300000000250028DB
:1000C000002B0000000000240027002A00002A0165
:1000D0003102BB07380211241FBECFEFD8E0DEBFCC
:1000E000CDBF12E0A0E0B1E0E6E3F9E202C0059086
:1000F0000D92A236B107D9F723E0A2E6B2E001C023
:100100001D92AF39B207E1F710E0C4EDD0E004C0B2
:100110002297FE010E941B11CE3CD107C9F70E9415
:1001200005060C948E140C940000809131020E94FC
:10013000231090939A02809399024AE050E0BC0108
:1001400080EE92E00E942609809197029091980299
:10015000019690939802809397020895CF92DF9230
:10016000EF92FF920F931F93CF93DF93EC018B01DC
:100170000E94D10FC0909302D0909402E09095021B
:10018000F09096026C197D098E099F0920E63AEEDF
:1001900040E050E00E94D81069017A0140E06EE032
:1001A00084E692E00E94860E4AE050E0B60184E6C2
:1001B00092E00E941E0941E065E084E692E00E9420
:1001C000860E4AE050E0B80184E692E00E941E09E3
:1001D00041E069E084E692E00E94860ECC0FDD1FCC
:1001E000CD59DE4F6881798184E692E0DF91CF912D
:1001F0001F910F91FF90EF90DF90CF900C944A08E1
:100200008EE00E9423109093630280936202893EE5
:1002100023E0920794F4823691058CF08E3F91058D
:1002200084F0883921E0920774F0883522E0920743
:1002300064F0843893405CF0089585E009C080E064
:1002400007C081E005C082E003C083E001C084E014
:1002500090E00895CF92EF920F9397E0C92E26E099
:10026000E22E05E024E049E068E084E692E00E94A6
:100270005B0F0F91EF90CF9008950C94A21008950A
:1002800080E090E0FC01EE0FFF1FEC55FD4F118266
:10029000108201968E319105A9F708950F931F934F
:1002A000CF93DF9381E08093A1021092A30210927A
:1002B000A202C0E0D0E04AE050E0BE0180EE92E051
:1002C0000E941E096EEE71E080EE92E00E944A08E4
:1002D0008E01000F111F0C551D4FF80160817181B7
:1002E0004AE050E080EE92E00E944B09F801118252
:1002F00010822196CE31D105F1F6DF91CF911F9179
:100300000F9108951F920F920FB60F9211242F9301
:100310008F939F93EF93FF9380919F029091A00200
:1003200001969093A00280939F0280919F029091EA
:10033000A002883E9340A1F480919E028F5F80933B
:100340009E021092A00210929F0280919E028C3316
:1003500039F410929E0280919D028F5F80939D02DE
:10036000E091A202F091A302EE0FFF1FEC55FD4FAA
:100370008081918101969183808380919B028093FB
:10038000B200FF91EF919F918F912F910F900FBE2F
:100390000F901F901895E0E7F0E080818E7F8083BA
:1003A000A0EBB0E08C918C7F8C93A6EBB0E08C91AD
:1003B0008F7D8C9380818D7F8083A1EBB0E08C91C9
:1003C00085608C938C918D7F8C9383E890E09093E3
:1003D0009C0280939B0283E88093B20080818160BD
:1003E0008083789408951092A3021092A202109232
:1003F000A1020E94400126E040E855E260E070E082
:1004000080EE92E00E94F70667E771E080EE92E0EE
:100410000E9469081092A00210929F0210929E0200
:1004200010929D026FE771E080EE92E00E946908F1
:100430000E94CB0161E08BE00E94691020E042E065
:1004400060E184E692E00E94A00E41E064E084E670
:1004500092E00E94860E6CE871E084E692E00C94D3
:100460004A084AE061E070E08DE892E00C94200DCB
:100470008DE892E00C946D0C8F929F92BF92CF9278
:10048000DF92EF92FF920F931F93CF93DF93CDB73D
:10049000DEB762970FB6F894DEBF0FBECDBF809176
:1004A0007C02811155C169E971E080EE92E00E9401
:1004B0004A0880EE92E00E941406892BD1F360EE88
:1004C00072E0CE010D960E948F09CE010D960E941A
:1004D000CB0DAB01BC012AE0CE0107960E944C0D6A
:1004E00066EA71E0CE0101960E94DB0CBE01695FF5
:1004F0007F4FCE0101960E94B80DBC018DE892E0BD
:100500000E94F10CCE0101960E946D0CCE0107965F
:100510000E946D0CCE010D960E946D0C6DE872E08C
:1005200080EE92E00E9457086DEA71E080EE92E062
:100530000E944A0880EE92E00E941406892BD1F3B3
:1005400060EE72E0CE0101960E948F09CE01019605
:100550000E94CB0D7093100160930F01CE010196A4
:100560000E946D0C60910F01709110014AE050E003
:1005700080EE92E00E94260962EC71E080EE92E04B
:100580000E944A0880EE92E00E941406892BD1F363
:1005900060EE72E0CE0101960E948F09CE010196B5
:1005A0000E94CB0D70930E0160930D01CE01019658
:1005B0000E946D0C60910D0170910E014AE050E0B7
:1005C00080EE92E00E9426096CEC71E080EE92E0F1
:1005D0000E9469080E9400010497E1F70E94D10F70
:1005E0006093930270939402809395029093960285
:1005F00081E080937C0241E060E084E692E00E942A
:10060000860E69E371E084E692E00E944A0841E0C8
:1006100061E084E692E00E94860E60910D01709187
:100620000E014AE050E084E692E00E941E0941E09B
:1006300064E084E692E00E94860E67E971E084E659
:1006400092E00E944A0840E060E084E692E00E9466
:10065000860E6DE872E084E692E00E943C0840E07D
:1006600068E084E692E00E94860EE0910F01F0912E
:100670001001EE0FFF1FED5CFD4F6081718184E67C
:1006800092E00E944A0841E066E084E692E00E941F
:10069000860E65EE71E084E692E00E944A086DE8FD
:1006A00072E080EE92E00E94570860EF71E080EE09
:1006B00092E00E944A0860910D0170910E014AE09B
:1006C00050E080EE92E00E941E0963EA71E080EE45
:1006D00092E00E944A08E0910F01F0911001EE0FA4
:1006E000FF1FED5CFD4F6081718180EE92E00E9402
:1006F000690868EF71E080EE92E00E9469086AEF95
:1007000071E080EE92E00E944A0865E072E080EEBF
:1007100092E00E944A0867E072E080EE92E00E9458
:100720004A086AE072E080EE92E00E9469088091D7
:100730000F0190911001029729F410920C01109270
:100740000B0106C08AEF90E090930C0180930B019F
:1007500007E010E0BB24B39480917C02882309F465
:1007600042C280917D0290917E02892BD9F40E9431
:10077000D10F6093850270938602809387029093D5
:1007800088020E94D10F609381027093820280934D
:1007900083029093840281E090E090937E028093A4
:1007A0007D02DACF0E94D10F6B017C01809185021E
:1007B00090918602A0918702B0918802C81AD90A46
:1007C000EA0AFB0A0E94D10F0E940001892B11F452
:1007D000B0928902E0918A02F0918B02EA30F10531
:1007E00008F0BACFEC5CFF4F0C9419118824839465
:1007F000912C9092A3028092A2020E949500609197
:100800007D0270917E0280E090E00E94AE0088EE52
:10081000C81683E0D806E104F10408F49DCF809166
:100820000A01882351F090928B0280928A0220E084
:1008300030E0A9016CE175E20BC082E090E090939A
:100840008B0280938A0220E030E0A90160EA7FE019
:1008500083E00E94A90920C082E090E09093A30267
:100860008093A2020E94950060917D0270917E02A9
:1008700081E090E00E94AE0088EEC81683E0D806C2
:10088000E104F10408F468CF83E090E090938B02D8
:1008900080938A020E94D80B0E94D10F6093850238
:1008A00070938602809387029093880255CF43E02D
:1008B000842E912C9092A3028092A2020E94950015
:1008C00060917D0270917E0282E090E00E94AE0015
:1008D00088EEC81683E0D806E104F10408F43CCFA2
:1008E00090928B0280928A0283E0D4CF34E0832EF0
:1008F000912C9092A3028092A2020E949500609196
:100900007D0270917E0283E090E00E94AE008091B3
:100910000B0190910C01AA2797FDA095BA2FC8163C
:10092000D906EA06FB0608F417CF80910F019091D3
:100930001001892B31F080910A01882311F061E0C8
:1009400046C060E08BE090E00E943D0185E090E0D1
:100950001FC085E090E09093A3028093A2020E94C2
:10096000950060917D0270917E0284E090E00E948B
:10097000AE0088EEC81683E0D806E104F10408F45E
:10098000EBCE60E08BE090E00E943D0186E090E0DD
:1009900090938B0280938A027FCF26E0822E912C47
:1009A0009092A3028092A2020E94950060917D0223
:1009B00070917E0285E090E00E94AE0088EEC8163D
:1009C00083E0D806E104F10408F4C6CE60E08BE0D1
:1009D00090E00E943D0190928B0280928A025CCF4F
:1009E0001093A3020093A2020E94950060917D02E1
:1009F00070917E0286E090E00E94AE0088EEC816FC
:100A000083E0D806E104F10408F4A6CE10938B022B
:100A100000938A0268EE73E080E090E00E94490C47
:100A200068517C4F7093800260937F0235CF98E0CD
:100A3000892E912C9092A3028092A2028091890229
:100A400060917D0270917E02882359F089E090E0E8
:100A50000E94AE0089E090E090938B0280938A021E
:100A60007BCE87E090E00E94AE0080917F02909163
:100A70008002AA2797FDA095BA2FC816D906EA06C4
:100A8000FB0608F469CE80917D0290917E0201966A
:100A900090937E0280937D0260E172E080EE92E0AE
:100AA0000E944A0860919702709198024AE050E0D3
:100AB00080EE92E00E94260910929802109297020E
:100AC00080917D0290917E020B975CF090928B0258
:100AD00080928A0268EF71E080EE92E00E946908DD
:100AE0003BCE10928B0210928A0268EF71E080EE8A
:100AF00092E00E9469086AE070E080E090E00E9465
:100B0000490C6530710581059105DCF0B0920A0150
:100B10006AEF71E080EE92E00E944A0860917D02E7
:100B200070917E024AE050E080EE92E00E941E0941
:100B300068E072E080EE92E00E944A086AE072E0AB
:100B40001AC010920A016AEF71E080EE92E00E94F2
:100B50004A0860917D0270917E024AE050E080EE8A
:100B600092E00E941E0968E072E080EE92E00E942E
:100B70004A086FE172E080EE92E00E9469080E94EC
:100B8000D10F6093850270938602809387029093C1
:100B900088020E94D10F6093810270938202809339
:100BA000830290938402D8CD60917D0270917E0281
:100BB0006150710988E090E00E94AE0080918C0243
:100BC0008111CACD0E944E01B0928C02C5CD0E9407
:100BD0000001039709F0C0CD1092890210938B0297
:100BE00000938A02B9CD62960FB6F894DEBF0FBEAD
:100BF000CDBFDF91CF911F910F91FF90EF90DF90CC
:100C0000CF90BF909F908F9008950E94E80F0E9410
:100C10003F010E94F301C1E4D6E00E943C0220970C
:100C2000E1F30E944106F9CFFC01818D228D90E015
:100C3000805C9F4F821B91098F7399270895FC0157
:100C4000918D828D981731F0828DE80FF11D858D81
:100C500090E008958FEF9FEF0895FC01918D828DB4
:100C6000981761F0828DDF01A80FB11D5D968C9100
:100C7000928D9F5F9F73928F90E008958FEF9FEF0B
:100C8000089581EB97E0892B49F080E090E0892B73
:100C900029F00E94B10781110C9400000895FC0115
:100CA000848DDF01A80FB11DA35ABF4F2C91848DF5
:100CB00090E001968F739927848FA689B7892C932A
:100CC000A089B1898C9180648C93938D848D9813C5
:100CD00006C00288F389E02D80818F7D808308958E
:100CE000CF93DF93EC01888D8823C9F0EA89FB89D3
:100CF000808185FD05C0A889B9898C9186FD0FC0CA
:100D00000FB607FCF5CF808185FFF2CFA889B9899E
:100D10008C9185FFEDCFCE010E944F06E7CFDF918A
:100D2000CF910895CF92DF92FF920F931F93CF93AD
:100D3000DF931F92CDB7DEB76C0181E0D6015896E4
:100D40008C9358975B969C915B975C968C915C9783
:100D5000981307C05096ED91FC915197808185FDC5
:100D60002EC0F601038D10E00F5F1F4F0F73112788
:100D7000F02EF601848DF81211C00FB607FCF9CFE2
:100D8000D6015096ED91FC915197808185FFF1CF6E
:100D9000C60169830E944F066981EBCF838DE80FFE
:100DA000F11DE35AFF4F6083D6015B960C935B976E
:100DB0005296ED91FC915397808180620CC0D601D0
:100DC0005696ED91FC91579760835096ED91FC916A
:100DD000519780818064808381E090E00F90DF9163
:100DE000CF911F910F91FF90DF90CF900895BF9208
:100DF000CF92DF92EF92FF92CF93DF93EC016A01E3
:100E00007B01B22EE889F98982E08083411581EE69
:100E1000580761057105A1F060E079E08DE390E08D
:100E2000A70196010E94D8102150310941095109AA
:100E30005695479537952795211580E1380798F005
:100E4000E889F989108260E874E88EE190E0A701F2
:100E500096010E94D8102150310941095109569537
:100E6000479537952795EC85FD853083EE85FF8581
:100E70002083188EEC89FD89B082EA89FB89808104
:100E800080618083EA89FB89808188608083EA8928
:100E9000FB89808180688083EA89FB8980818F7DDE
:100EA0008083DF91CF91FF90EF90DF90CF90BF9044
:100EB00008951F920F920FB60F9211242F938F93C4
:100EC0009F93EF93FF93E091F002F091F102808104
:100ED000E091F602F091F70282FD12C090818091BC
:100EE000F9028F5F8F732091FA02821751F0E0911F
:100EF000F902F0E0E052FD4F958F8093F90201C0B6
:100F00008081FF91EF919F918F912F910F900FBE54
:100F10000F901F9018951F920F920FB60F921124E9
:100F20002F933F934F935F936F937F938F939F93F1
:100F3000AF93BF93EF93FF9380EE92E00E944F0632
:100F4000FF91EF91BF91AF919F918F917F916F91A1
:100F50005F914F913F912F910F900FBE0F901F9077
:100F6000189580EE92E00E94140621E0892B09F486
:100F700020E0822F08951092E3021092E20288EEA0
:100F800093E0A0E0B0E08093E4029093E502A093A8
:100F9000E602B093E7028DE392E09093E102809342
:100FA000E00285EC90E09093ED028093EC0284ECFB
:100FB00090E09093EF028093EE0280EC90E09093AB
:100FC000F1028093F00281EC90E09093F302809321
:100FD000F20282EC90E09093F5028093F40286ECAA
:100FE00090E09093F7028093F6021092F90210922B
:100FF000FA021092FB021092FC020895CF92DF9247
:10100000EF92FF920F931F93CF93DF936C017A01BE
:10101000EB01E60EF71E00E010E0CE15DF0561F0F3
:101020006991D601ED91FC910190F081E02DC6010E
:101030000995080F191FF1CFC801DF91CF911F91BA
:101040000F91FF90EF90DF90CF900895611571059B
:1010500081F0DB010D900020E9F7AD01415051090D
:10106000461B570BDC01ED91FC910280F381E02DD2
:10107000099480E090E00895DC01ED91FC91DB01A2
:1010800014964D915C9115976D917C910280F3813E
:10109000E02D09940C942608DC01ED91FC9101905F
:1010A000F081E02D099469E472E00C9426080F9316
:1010B0001F93CF93DF93EC010E943C088C01CE017B
:1010C0000E945308800F911FDF91CF911F910F91C4
:1010D00008950F931F93CF93DF93EC010E9426088E
:1010E0008C01CE010E945308800F911FDF91CF9198
:1010F0001F910F9108958F929F92AF92BF92CF92BE
:10110000DF92EF92FF920F931F93CF93DF93CDB7B0
:10111000DEB7A1970FB6F894DEBF0FBECDBF7C013E
:10112000C42EE52FCB01D22E19A221E02D1510F0EF
:101130002AE0D22E8E010F5D1F4F8D2C912CA12CF9
:10114000B12C6C2D7E2FA50194010E94D8108C2DFE
:10115000D29E80191124015011098A3014F4805D47
:1011600001C0895CF80180832115310541055105D5
:1011700021F0C22EE32FCA01E4CFB801C7010E94BB
:101180002608A1960FB6F894DEBF0FBECDBFDF9143
:10119000CF911F910F91FF90EF90DF90CF90BF9074
:1011A000AF909F908F900895CF92DF92EF92FF9231
:1011B0000F931F93CF93DF93EC016A017B012115FD
:1011C000310579F4E881F9810190F081E02D642FF7
:1011D000DF91CF911F910F91FF90EF90DF90CF9013
:1011E00009942A303105E9F477FF1AC06DE20E94B4
:1011F0004C088C0144275527BA014C195D096E092A
:101200007F092AE0CE010E947B08800F911FDF91A9
:10121000CF911F910F91FF90EF90DF90CF900895A5
:101220002AE0B701A601CE01DF91CF911F910F9166
:10123000FF90EF90DF90CF900C947B089A01AB0168
:10124000662757FD6095762F0C94D4080F931F9353
:10125000CF93DF93EC019A01AB01662757FD6095B0
:10126000762F0E94D4088C01CE010E945308800F73
:10127000911FDF91CF911F910F9108952115310595
:1012800041F4DC01ED91FC910190F081E02D642F9F
:1012900009940C947B080F931F93CF93DF93EC0179
:1012A0009A01AB0160E070E00E943E098C01CE0122
:1012B0000E945308800F911FDF91CF911F910F91D2
:1012C00008950F931F93CF93DF93EC010E94D10FEA
:1012D000688779878A879B87E881F9810680F7810B
:1012E000E02DCE01099597FF15C00E94D10F08850A
:1012F00019852A853B85601B710B820B930B0C8132
:101300001D812E813F81601771078207930720F3AB
:101310008FEF9FEFDF91CF911F910F9108950F9362
:101320001F93CF93DF93EC018B016BE472E00E947B
:10133000DB0CC8010E94610997FD05C0682FCE0132
:101340000E94A50DF6CFCE01DF91CF911F910F9195
:1013500008953F924F925F926F927F928F929F92E9
:10136000AF92BF92CF92DF92EF92FF920F931F93B3
:10137000CF93DF9300D000D0CDB7DEB78B0129012A
:101380003A0190911101981721F09F3F09F0DAC1BD
:1013900004C0ECE7F0E0349081C080931101ECE7E9
:1013A000F0E0E491EF3F09F4CDC1E13031F1E230FA
:1013B00009F44BC0E11171C014BC15BC94B5926026
:1013C00094BD95B5916095BD282F30E0F901EB559E
:1013D000FF4FE491F0E0EE0FFF1FE754FF4F459100
:1013E000549150938D0340938C03F901EF56FF4FB6
:1013F000249120938B03312C53C0109280001092C3
:10140000810090918100986090938100909181007B
:10141000916090938100282F30E0F901EB55FF4F48
:10142000E491F0E0EE0FFF1FE754FF4F4591549118
:101430005093860340938503F901EF56FF4F2491A3
:1014400020938403332433942BC01092B000109265
:10145000B1009091B00092609093B0009091B10073
:1014600091609093B100282F30E0F901EB55FF4FC8
:10147000E491F0E0EE0FFF1FE754FF4F45915491C8
:1014800050937F0340937E03F901EF56FF4F249161
:1014900020937D0352E0352E03C03E2E37FC52C10F
:1014A00061E00E9469104801A12CB12C832D8D7F31
:1014B00009F0C7C060E072E18AE790E0A5019401FD
:1014C0000E94FA1029833A834B835C8369017A0175
:1014D00081E0C81AD108E108F1089FEFC916D104CC
:1014E000E104F10409F008F49AC060E472E48FE0CA
:1014F00090E0A50194010E94FA1069017A01E1E0EF
:10150000CE1AD108E108F108F2E03F1219C08FEFBE
:10151000C816D104E104F10409F008F48AC060E9B6
:1015200070ED83E090E0A50194010E94FA1069013A
:101530007A0191E0C91AD108E108F10883E001C0FD
:1015400082E0EFEFCE16D104E104F10409F008F4D3
:1015500067C068E478EE81E090E0A50194010E9404
:10156000FA1069017A01F1E0CF1AD108E108F10817
:101570003320E1F082E038121BC09FEFC916D1047E
:10158000E104F10409F008F4DBC064E274EF80E0E8
:1015900090E0A50194010E94FA1069017A01E1E04E
:1015A000CE1AD108E108F10885E003C083E001C04C
:1015B00084E0FFEFCF16D104E104F10489F180F15A
:1015C00062E17AE780E090E0A50194010E94FA10C0
:1015D00069017A0181E0C81AD108E108F1083110E7
:1015E00002C084E001C086E09FEFC916D104E10487
:1015F000F104B1F0A8F0C980DA80EB80FC809AE0B9
:10160000F594E794D794C7949A95D1F7E1E0CE1A70
:10161000D108E108F108332031F087E00BC081E008
:10162000332011F007C085E095B5987F982B95BDC4
:1016300038C082E09091B100987F982B9093B100D0
:1016400030C060E072E18AE790E0A50194010E9459
:10165000FA1069017A01F1E0CF1AD108E108F10826
:10166000C114D10481E0E806F10488F068E478EE62
:1016700081E090E0A50194010E94FA1069017A01CD
:1016800091E0C91AD108E108F10893E001C091E0A6
:10169000E1E03E1206C080918100887F892B809313
:1016A0008100411451046104710471F0D801AA0F42
:1016B000BB1FA30192010E941F1128EE33E040E0FE
:1016C00050E00E94D81003C02FEF3FEFA901F1E0D6
:1016D0003F16A1F082E0381619F1311033C0C7BCB3
:1016E00020938E0330938F03409390035093910384
:1016F00080916E00826080936E0024C0D092890039
:10170000C092880020938703309388034093890315
:1017100050938A0380916F00826080936F0012C0A3
:10172000C092B300209380033093810340938203DF
:10173000509383038091700082608093700002C098
:1017400084E078CF0F900F900F900F90DF91CF91A2
:101750001F910F91FF90EF90DF90CF90BF90AF90CF
:101760009F908F907F906F905F904F903F900895E3
:10177000813039F018F0823051F0089510926E00E7
:10178000089580916F008D7F80936F000895809100
:1017900070008D7F8093700081E08093B000809115
:1017A000B100887F84608093B1001092B3000895E7
:1017B000CF93C82F809111018C1307C0ECE7F0E0A4
:1017C00084919FEF9093110101C08FEF0E94B80B9D
:1017D00060E08C2FCF910C94A2101F920F920FB645
:1017E0000F9211242F933F934F935F936F937F93A7
:1017F0008F939F93AF93BF93EF93FF938091800359
:1018000090918103A0918203B0918303892B8A2B4D
:101810008B2B51F190917D03E0917E03F0917F033A
:101820008081892780838091800390918103A0919A
:101830008203B0918303181619061A061B06C4F416
:101840008091800390918103A0918203B0918303E2
:101850000197A109B1098093800390938103A0931C
:101860008203B093830304C0809111010E94D80BBE
:10187000FF91EF91BF91AF919F918F917F916F9168
:101880005F914F913F912F910F900FBE0F901F903E
:101890001895CF93DF9300D000D0CDB7DEB79B0172
:1018A000AC01611571058105910569F069833A8381
:1018B0004B835C830E94AF1229813A814B815C810A
:1018C0000E94FA1003C060E070E0CB010F900F900F
:1018D0000F900F90DF91CF910895FC01808191814D
:1018E0000C94D111CF93DF93EC01888199810097FB
:1018F00011F00E94D111198218821D821C821B8254
:101900001A82DF91CF9108950F931F93CF93DF93A6
:10191000EC018B016F5F7F4F888199810E94BD121E
:10192000009731F0998388831B830A8381E001C08B
:1019300080E0DF91CF911F910F910895CF93DF93B6
:10194000EC0188819981892B29F08A819B818617F6
:10195000970760F4CE010E94840C882341F08C81AB
:101960009D81892B19F4E881F981108281E0DF9152
:10197000CF910895EF92FF920F931F93CF93DF9330
:10198000EC017B018A01BA010E949E0C811104C006
:10199000CE010E94720C07C01D830C83B7018881A1
:1019A00099810E94B713CE01DF91CF911F910F91C2
:1019B000FF90EF900895FC01118210821382128231
:1019C000158214826115710559F0FB010190002008
:1019D000E9F7AF0141505109461B570B0C94BA0C63
:1019E0000895CF93DF93EC01FB018617970761F011
:1019F000608171816115710529F0448155810E94D2
:101A0000BA0C02C00E94720CCE01DF91CF910895F2
:101A1000CF93DF93EC016115710561F0FB0101903B
:101A20000020E9F7AF0141505109461B570B0E94B6
:101A3000BA0C02C00E94720CCE01DF91CF910895C2
:101A40000F931F93CF93DF93CDB7DEB762970FB697
:101A5000F894DEBF0FBECDBF8C01CB01F80111821F
:101A60001082138212821582148250E0BE016F5FD1
:101A70007F4F0E94BE13BE016F5F7F4FC8010E945F
:101A8000080D62960FB6F894DEBF0FBECDBFDF9192
:101A9000CF911F910F9108950F931F93CF93DF93D1
:101AA000CDB7DEB7A2970FB6F894DEBF0FBECDBF9D
:101AB0008C01CB01BA01F8011182108213821282CB
:101AC0001582148230E0AE014F5F5F4F0E94D41345
:101AD000BE016F5F7F4FC8010E94080DA2960FB62E
:101AE000F894DEBF0FBECDBFDF91CF911F910F9154
:101AF0000895EF92FF920F931F93CF93DF93EC0122
:101B00007B010C811D816115710511F480E016C007
:101B10004115510591F0040F151FB8010E949E0C4C
:101B20008823A1F3288139818C819D81B701820F9F
:101B3000931F0E94B7131D830C8381E0DF91CF9127
:101B40001F910F91FF90EF900895CF93DF9300D0F6
:101B5000CDB7DEB769831A8241E050E0BE016F5F06
:101B60007F4F0E94790D0F900F90DF91CF910895D4
:101B7000CF93DF93EC01FB0144815581608171813A
:101B80000E94790D811103C0CE010E94720CCE011A
:101B9000DF91CF910895FC0180819181009711F030
:101BA0000C94871360E070E0CB010895CF93DF932E
:101BB000EC0160E08E810E94A21081E090E00E9422
:101BC000DD0F61E08E810E94A21081E090E00E9412
:101BD000DD0F60E08E810E94A21084E690E0DF912C
:101BE000CF910C94DD0FCF92DF92EF92FF920F9383
:101BF0001F93CF93DF937C01C0E0D0E0C62ED12CA1
:101C000087010C0F1D1F61E0F80187810E94691098
:101C1000B6010C2E02C0759567950A94E2F76170C3
:101C2000F80187810E94A2102196C430D10541F7A6
:101C3000C701DF91CF911F910F91FF90EF90DF903F
:101C4000CF900C94D60DCF92DF92EF92FF920F932C
:101C50001F93CF93DF937C01C0E0D0E0C62ED12C40
:101C600087010C0F1D1F61E0F80187810E94691038
:101C7000B6010C2E02C0759567950A94E2F7617063
:101C8000F80187810E94A2102196C830D10541F742
:101C9000C701DF91CF911F910F91FF90EF90DF90DF
:101CA000CF900C94D60D1F93CF93DF93EC01162F9A
:101CB000642F8C810E94A2108D818F3F19F060E00B
:101CC0000E94A2108F85612F84FF06C0CE01DF9194
:101CD000CF911F910C94230E70E084E07595679569
:101CE0008A95E1F7CE010E94F30D612FCE01DF91BD
:101CF000CF911F910C94F30D40E00C94530E61E0D2
:101D00000E947C0E80ED97E00C94DD0F443008F0CB
:101D100043E0FC012389421710F04FEF420FFC0112
:101D2000E40FF11D2489260F2068622F0C947C0E8D
:101D3000FC016089262F2460208B6C600C947C0E43
:101D4000CF93DF93EC01423018F08F8588608F8746
:101D50004B8B1C8A80E48D8B6E8B70E0605C7F4FB8
:101D60006F8B222329F0413019F48F8584608F878F
:101D700080E593EC0E94DD0F60E08C810E94A21050
:101D800060E08E810E94A2108D818F3F19F060E08B
:101D90000E94A2106F8564FD1DC063E0CE010E9409
:101DA000F30D84E991E10E94DD0F63E0CE010E9412
:101DB000F30D84E991E10E94DD0F63E0CE010E9402
:101DC000F30D86E990E00E94DD0F62E0CE010E94F3
:101DD000F30D16C06062CE010E947C0E84E991E191
:101DE0000E94DD0F6F856062CE010E947C0E86E945
:101DF00090E00E94DD0F6F856062CE010E947C0E34
:101E00006F856062CE010E947C0E84E0888BCE01DB
:101E10000E94980ECE010E947F0E82E0898B66E0C0
:101E2000CE01DF91CF910C947C0E6F927F928F92B6
:101E3000AF92CF92EF920F931F93CF93DF93CDB7D3
:101E4000DEB73C01162F842F5D854E853F8598892E
:101E5000F301848325830683E782C086A186828678
:101E6000538744873587968761E00E946910F301A4
:101E700085818F3F19F061E00E94691061E0F301F4
:101E800086810E946910112319F0F301178603C09F
:101E900080E1F301878720E041E060E1C301DF9149
:101EA000CF911F910F91EF90CF90AF908F907F9037
:101EB0006F900C94A00E8F92AF92CF92EF920F93EF
:101EC000DC0113961C921E921297EEE5F2E0ED9360
:101ED000FC931F921F921F921F928C2CAE2CC02E2F
:101EE000E22E042F2FEF462F61E00E94150F0F9076
:101EF0000F900F900F900F91EF90CF90AF908F9029
:101F0000089541E00E94530E81E090E008951F92F1
:101F10000F920FB60F9211242F933F938F939F939D
:101F2000AF93BF938091930390919403A0919503F5
:101F3000B09196033091920323E0230F2D3720F4C4
:101F40000196A11DB11D05C026E8230F0296A11D13
:101F5000B11D209392038093930390939403A093D5
:101F60009503B09396038091970390919803A09165
:101F70009903B0919A030196A11DB11D8093970317
:101F800090939803A0939903B0939A03BF91AF9154
:101F90009F918F913F912F910F900FBE0F901F90A7
:101FA00018952FB7F89460919303709194038091E2
:101FB0009503909196032FBF08958230910538F0D4
:101FC000880F991F880F991F05970197F1F70895BA
:101FD000789484B5826084BD84B5816084BD85B504
:101FE000826085BD85B5816085BDEEE6F0E08081CB
:101FF00081608083E1E8F0E01082808182608083EC
:10200000808181608083E0E8F0E08081816080836E
:10201000E1EBF0E0808184608083E0EBF0E08081A0
:1020200081608083EAE7F0E0808184608083808142
:1020300082608083808181608083808180688083EA
:102040001092C10008958E3008F08E508770209154
:10205000120190E4299F90011124822B80937C002F
:1020600080917A00806480937A0080917A0086FD66
:10207000FCCF809178002091790090E0922B089518
:10208000833081F028F4813099F08230A1F00895F6
:102090008730A9F08830B9F08430D1F48091800085
:1020A0008F7D03C0809180008F778093800008959A
:1020B00084B58F7702C084B58F7D84BD08958091EB
:1020C000B0008F7703C08091B0008F7D8093B00007
:1020D0000895CF93DF9390E0FC01EF56FF4F2491DA
:1020E000FC01EB55FF4F8491882349F190E0880F64
:1020F000991FFC01ED53FF4FA591B49187549F4F59
:10210000FC01C591D4919FB7611108C0F8948C91DE
:10211000209582238C93888182230AC0623051F4F7
:10212000F8948C91322F309583238C938881822B65
:10213000888304C0F8948C91822B8C939FBFDF918D
:10214000CF9108950F931F93CF93DF931F92CDB735
:10215000DEB7282F30E0F901E358FF4F8491F901F1
:10216000EF56FF4F1491F901EB55FF4F04910023F7
:10217000C9F0882321F069830E9440106981E02F13
:10218000F0E0EE0FFF1FE754FF4FA591B4919FB70A
:10219000F8948C91611103C01095812301C0812BAB
:1021A0008C939FBF0F90DF91CF911F910F91089556
:1021B000A1E21A2EAA1BBB1BFD010DC0AA1FBB1F4B
:1021C000EE1FFF1FA217B307E407F50720F0A21BBD
:1021D000B30BE40BF50B661F771F881F991F1A942A
:1021E00069F760957095809590959B01AC01BD0154
:1021F000CF010895052E97FB1EF400940E94111143
:1022000057FD07D00E94D81007FC03D04EF40C9461
:10221000111150954095309521953F4F4F4F5F4F8D
:10222000089590958095709561957F4F8F4F9F4F42
:102230000895EE0FFF1F0590F491E02D09940E9480
:102240002A11A59F900DB49F900DA49F800D911D04
:1022500011240895A29FB001B39FC001A39F700DE8
:10226000811D1124911DB29F700D811D1124911D9E
:102270000895CF93DF938230910510F482E090E0CF
:10228000E0919D03F0919E0320E030E0A0E0B0E0FB
:10229000309739F14081518148175907B8F04817F4
:1022A000590771F482819381109729F013969C93BA
:1022B0008E9312972CC090939E0380939D0327C00A
:1022C0002115310531F04217530718F0A901DB0140
:1022D00001C0EF019A01BD01DF010280F381E02D11
:1022E000D7CF21153105F9F0281B390B24303105E2
:1022F00080F48A819B816115710521F0FB01938334
:10230000828304C090939E0380939D03FE013296C6
:1023100044C0FE01E20FF31F8193919322503109D3
:10232000398328833AC020919B0330919C03232B4F
:1023300041F4209102013091030130939C032093DA
:102340009B0320910001309101012115310541F4D9
:102350002DB73EB74091040150910501241B350B68
:10236000E0919B03F0919C03E217F307A0F42E1B6E
:102370003F0B2817390778F0AC014E5F5F4F2417E9
:10238000350748F04E0F5F1F50939C0340939B030B
:102390008193919302C0E0E0F0E0CF01DF91CF9113
:1023A0000895CF93DF93009709F487C0FC0132971B
:1023B00013821282C0919D03D0919E03209781F4D5
:1023C00020813181280F391F80919B0390919C03BC
:1023D0008217930779F5F0939C03E0939B036DC0FC
:1023E000DE0120E030E0AE17BF0750F412964D91A9
:1023F0005C9113979D014115510509F1DA01F3CF65
:10240000B383A28340815181840F951F8A179B0754
:1024100071F48D919C911197840F951F0296918371
:10242000808312968D919C911397938382832115BB
:10243000310529F4F0939E03E0939D033EC0D9013A
:102440001396FC93EE9312974D915D91A40FB51FD7
:10245000EA17FB0779F480819181840F951F02961A
:10246000D90111969C938E938281938113969C93AC
:102470008E931297E0E0F0E08A819B81009719F03B
:10248000FE01EC01F9CFCE01029628813981820F3D
:10249000931F20919B0330919C032817390769F4FF
:1024A000309729F410929E0310929D0302C013826C
:1024B0001282D0939C03C0939B03DF91CF91089528
:1024C0008F929F92AF92BF92CF92DF92EF92FF9244
:1024D000CF93DF93EC01688179818A819B816115BB
:1024E00071058105910521F464E279ED8BE597E0B2
:1024F0002DE133EF41E050E00E94FA1049015A010A
:102500009B01AC01A7EAB1E40E941F116B017C01A1
:10251000ACEEB4EFA50194010E945214C60ED71E72
:10252000E81EF91EF7FE06C081E0C81AD108E108CE
:1025300080E8F80AC882D982EA82FB82C701B60124
:102540009F77DF91CF91FF90EF90DF90CF90BF907A
:10255000AF909F908F9008950E946012089586E03A
:1025600091E00E9460120895609306017093070144
:1025700080930801909309010895A0E0B0E0E3EC96
:10258000F2E10C945B14EC01CB01209719F40E944A
:102590003911B8C0FE01E60FF71F9E012250310924
:1025A000E217F30708F4ACC0D9010D911C91119703
:1025B00006171707B8F00530110508F49FC0A801E9
:1025C000445051094617570708F498C002501109A2
:1025D000061B170B019311936D937C93CF010E94FF
:1025E000D1118CC05B01A01AB10A4E01800E911E60
:1025F000A0919D03B0919E03612C712C60E070E06E
:10260000109709F449C0A815B905C9F5ED90FC90DB
:102610001197670142E0C40ED11CCA14DB0478F1A3
:1026200047018A189B08640142E0C40ED11C12962F
:10263000BC9012971396AC91B5E0CB16D10440F044
:10264000B282A38391828082D9018D939C9309C029
:102650000E5F1F4F0E0D1F1DF90111830083EB2D1F
:10266000FA2F6115710531F0DB011396FC93EE939F
:10267000129744C0F0939E03E0939D033FC06D9179
:102680007C9111976616770608F43B01BD011296FE
:102690000D90BC91A02DB4CF60919B0370919C03D1
:1026A00068157905E9F468167906D0F440910001BF
:1026B000509101014115510541F44DB75EB760914C
:1026C000040170910501461B570BE417F507C0F490
:1026D000F0939C03E0939B03F901918380830EC0E8
:1026E0000E9439117C01009759F0A801BE010E9497
:1026F000AE13CE010E94D111C70104C0CE0102C0A9
:1027000080E090E0CDB7DEB7EEE00C9477141F9335
:10271000FC0199278827BC01E89411911032E9F354
:10272000193010F01E30C8F31B3251F01D3249F43D
:10273000689406C00E94EE13610F711D811D911DEA
:10274000119110531A30B0F33EF490958095709526
:1027500061957F4F8F4F9F4F1F910895FB01DC01C3
:1027600002C001900D9241505040D8F70895FB01EE
:10277000DC0101900D920020E1F7089545325105EA
:1027800020F4423010F00C94C913FB011082CB01ED
:102790000895BB274A3031F4992322F4BDE2909585
:1027A00081959F4F0C9426142532310520F4223058
:1027B00010F00C94DF13FA011082CA010895BB27B0
:1027C0002A3051F4992342F4BDE29095809570959A
:1027D00061957F4F8F4F9F4F0C940414592F482FB2
:1027E000372F262F660F771F881F991F660F771FB9
:1027F000881F991F620F731F841F951F660F771F15
:10280000881F991F0895BB27FA01A62F621771052B
:1028100081059105330B30FB66F0AA27660F771F01
:10282000881F991FAA1FA21710F0A21B639538508A
:10283000A9F7A05DAA3308F0A95DA19336F7B111FD
:10284000B1931082CA010C943F14BB27FB0155279A
:10285000AA27880F991FAA1FA41710F0A41B8395FD
:102860005051B9F7A05DAA3308F0A95DA193009774
:1028700079F7B111B1931192CB010C943F14DC01A3
:10288000FC01672F71917723E1F7329704C07C91A7
:102890006D9370836291AE17BF07C8F30895B7FFB9
:1028A0000C941F110E941F11821B930B08952F92ED
:1028B0003F924F925F926F927F928F929F92AF92D0
:1028C000BF92CF92DF92EF92FF920F931F93CF931D
:1028D000DF93CDB7DEB7CA1BDB0B0FB6F894DEBFB4
:1028E0000FBECDBF09942A88398848885F846E84DA
:1028F0007D848C849B84AA84B984C884DF80EE8024
:10290000FD800C811B81AA81B981CE0FD11D0FB62C
:10291000F894DEBF0FBECDBFED01089510E0C4ED09
:10292000D0E004C0FE010E941B112296C63DD107D3
:06293000C9F7F894FFCF87
:1029360000009F0380000100000001FA0001000171
:1029460000FF012020202050726500202020204317
:10295600532B002020202043532D00202054726149
:1029660063650020202020205553004E6F2D5075A2
:10297600666600202020504F535400202020204916
:1029860054490020202020454E4400205061757394
:1029960065200013011B0123012B0133013B014379
:1029A600014B0153015B017365747570282900732F
:1029B6006574757054696D657228290050524553C7
:1029C600532053454C454354004D6F757365204E57
:1029D600616D653A20004D6F7573654B00536573E5
:1029E60073696F6E205479706520496E6465783A14
:1029F600200053657373696F6E3A200050726573D9
:102A060073207468652053454C45435420627574A1
:102A1600746F6E21002020202020202020202000FE
:102A260053657373696F6E004000547269616C2060
:102A36004E6F2E20003100203A002043532B2000F9
:102A4600426C696E6B20436F756E74203D200020CA
:102A560043532D2000436E74726C0044656C61799B
:102A660000130025022D012B02000000009206FE35
:102A76000714062D061F0670060D0A006E616E000D
:102A8600696E66006F7666002E0000000000810FFA
:022A9600FE0739
:040000050080027CF9
:00000001FF
