:100000000C9463000C948B000C948B000C948B006C
:100010000C948B000C948B000C948D000C94010AB2
:100020000C948B000C948B000C948B000C948B0024
:100030000C948B000C948B000C948B000C948B0014
:100040000C94E8040C948B000C94BE060C94F006FF
:100050000C948B000C948B000C948B000C948B00F4
:100060000C948B000C948B0000000008000201002F
:100070000003040700000000000000000102040863
:100080001020408001020408102001020408102002
:10009000040404040404040402020202020203032E
:1000A00003030303000000002300260029000000D2
:1000B0000000250028002B0000000000240027007D
:1000C0002A000200200711241FBECFEFD8E0DEBFB8
:1000D000CDBF12E0A0E0B1E0E8E1F3E202C005909C
:1000E0000D92A835B107D9F723E0A8E5B2E001C029
:1000F0001D92AE36B207E1F710E0C3E6D0E004C0CF
:100100002197FE010E947511C236D107C9F70E94DE
:10011000720B0C94230D0C9400001F920F920FB6DB
:100120000F9211240F900FBE0F901F901895809181
:100130005802811101C0A8950895CF93DF93C82F6D
:10014000D62F8CEB92E00E94810B892B11F480E07A
:1001500011C08CEB92E00E948D0B2C2FCC0F330B37
:1001600028173907A1F7DD2321F08CEB92E00E94DC
:100170009B0B81E0DF91CF91089561E082E70E94BF
:100180009D00882349F06BE071E08CEB92E00E94C7
:10019000A90A81E08093580208954F925F926F926E
:1001A0007F928F929F92AF92BF92CF92DF92EF9207
:1001B000FF920F931F93CF93DF930E94970082E0EB
:1001C0000E947706182F092F83E00E947706B82E29
:1001D000A92E8BE00E947706EC018DE00E94770645
:1001E000582E492E8AE00E947706782E692E0E94AA
:1001F0003205C0905902D0905A02E0905B02F09014
:100200005C029B01AC012C193D094E095F09690193
:100210007A0186E00E947706982E892E87E00E9458
:10022000770624E031E03F932F934F925F926F92D5
:100230007F929F938F938F929F92AF92BF920F93D3
:100240001F93DF93CF938091AE028F938091AD0285
:100250008F93FF92EF92DF92CF928EE291E09F9385
:100260008F938DE592E09F938F930E942D0D6DE506
:1002700072E08CEB92E00E94A90A4DB75EB7465E31
:100280005F4F0FB6F8945EBF0FBE4DBF8CEB92E090
:10029000DF91CF911F910F91FF90EF90DF90CF9062
:1002A000BF90AF909F908F907F906F905F904F9096
:1002B0000C94400C4F925F926F927F928F929F921C
:1002C000AF92BF92CF92DF92EF92FF92CF93DF93E4
:1002D00000D000D0CDB7DEB76B017C0129833A8313
:1002E0004B835C830E9497000E94BD000E943205F0
:1002F0004B015C010E943205DC01CB018819990990
:10030000AA09BB09C816D906EA06FB0658F10E94DD
:10031000CD000E943205681979098A099B090E945B
:10032000540D2B013C01C701B6010E94540D2981D7
:100330003A814B815C810E94060E9B01AC01C30196
:10034000B2010E944F0D18164CF020E030E0A901D8
:1003500064E971E182E00E944D07CCCF82E00E9407
:10036000EC09C8CF82E00F900F900F900F90DF91B3
:10037000CF91FF90EF90DF90CF90BF90AF909F9084
:100380008F907F906F905F904F900C94EC09CF927C
:10039000DF92EF92FF920F931F936B017C010E94FB
:1003A000BD000E9432056093AF027093B00280934B
:1003B000B1029093B2020E9432050091AF021091F7
:1003C000B0022091B1023091B202DC01CB01801B5E
:1003D000910BA20BB30BC816D906EA06FB0638F040
:1003E00061E08BE00E943F060E94CD00E4CF60E018
:1003F0008BE01F910F91FF90EF90DF90CF900C94C6
:100400003F06CF92DF92EF92FF920F931F936C0102
:100410000E9432056093AF027093B0028093B102E4
:100420009093B202E12CF12C0E9432050091AF02B0
:100430001091B0022091B1023091B202DC01CB01E7
:10044000801B910BA20BB30BC816D906EA06FB065C
:1004500038F061E083E00E943F060E94CD00E4CFC7
:1004600060E083E01F910F91FF90EF90DF90CF90BD
:100470000C943F06CF936FE471E084E091E00E941A
:10048000260D0E94CD0061E083E70E949D00882335
:1004900039F064E571E08CEB92E0CF910C94A90AFD
:1004A00061E080E70E949D00882369F069E671E0C1
:1004B0008CEB92E00E94A90A62E370E080E090E099
:1004C0000E94C701DECF61E084E70E949D0088237F
:1004D00089F065E871E08CEB92E00E94A90A20E0C7
:1004E00030E040E85FE362E370E080E090E00E948B
:1004F0005A01C7CF61E08CE60E949D00882359F025
:1005000061EA71E08CEB92E00E94A90A82E390E03C
:100510000E940102B6CF8CEB92E00E949B0BC82F89
:100520008F3F09F4AECF67EB71E08CEB92E00E9455
:100530009C0A6C2F8CEB92E00E94BB0AA2CF26E0B3
:1005400040E056E960E070E08CEB92E00E94620CC3
:1005500083E10E94A106BC01990F880B990B0E94B0
:10056000290B9FE088E10FB6F894A895809360006E
:100570000FBE90936000A8950E9432056093AF0271
:100580007093B0028093B1029093B20261E082E076
:100590000E94030661E08BE00E94030661E083E0B5
:1005A0000E94030661E08AE00E94030661E08DE09C
:1005B0000E9403066EEC71E08CEB92E00E94A90AA7
:1005C00060E086E00E94030660E087E00E94030688
:1005D0000C943A02CF92DF92EF92FF920F931F9307
:1005E000CF93DF93EB01142F0E9497000E94BD0070
:1005F0000E9432056093590270935A0280935B0205
:1006000090935C020E9432056093AF027093B00237
:100610008093B1029093B20263EE71E084E091E0C6
:100620000E94260D61E08DE00E943F0660E08AE0B6
:100630000E943F0660E083E00E943F060E94320570
:10064000C0905902D0905A02E0905B02F0905C0298
:10065000DC01CB018C199D09AE09BF09813197429C
:10066000A105B10508F50E943205C090AF02D090F7
:10067000B002E090B102F090B202DC01CB018C1923
:100680009D09AE09BF098C319542A105B10548F01D
:100690008AE00E947706892B21F461E08AE00E94BB
:1006A0003F060E94CD00CACF0E9432056093AF0280
:1006B0007093B0028093B1029093B202C130D10521
:1006C000A9F40E9432056093AF027093B002809348
:1006D000B1029093B20268EE71E084E091E00E9472
:1006E000260D82E390E00E9401021CC0CD2B21F573
:1006F0000E9432056093AF027093B0028093B10202
:100700009093B20268EE71E084E091E00E94260DC1
:1007100020E030E040E05FE362E370E080E090E002
:100720000E945A010E9432056093AF027093B0029A
:100730008093B1029093B2026CEE71E084E091E09C
:100740000E94260D0E943205C090AF02D090B002E8
:10075000E090B102F090B202DC01CB018C199D094E
:10076000AE09BF098B3F9105A105B10518F40E94A0
:10077000CD00E8CF0E9432056093AF027093B002C3
:100780008093B1029093B2021123E9F061EF71E01E
:1007900084E091E00E94260D0E9432050091AF0294
:1007A0001091B0022091B1023091B202DC01CB0174
:1007B000801B910BA20BB30BC397A105B10578F475
:1007C0000E94CD00E9CF66EF71E084E091E00E94E5
:1007D000260D62E370E080E090E00E94C7010E9475
:1007E00032056093AF027093B0028093B102909390
:1007F000B2026BEF71E084E091E00E94260D0E944E
:1008000032050091AF021091B0022091B1023091F7
:10081000B202DC01CB01801B910BA20BB30B813127
:100820009742A105B105E0F40E94CD000E94320577
:100830000091AF021091B0022091B1023091B2024A
:10084000DC01CB01801B910BA20BB30B843F9140C9
:10085000A105B105A0F260E08AE00E943F06CFCF7B
:1008600060E08DE00E943F0660E072E08CEB92E079
:100870000E949C0A6091AD027091AE024AE050E085
:100880008CEB92E00E94230B6DE072E08CEB92E027
:10089000DF91CF911F910F91FF90EF90DF90CF905C
:1008A0000C94A90A0E9497002AE030E040E050E052
:1008B00065E070E080E090E00E94550BEB0101E004
:1008C00010E0C12CD12C8AE0B82E0E949700C017EE
:1008D000D10701F541E061E070E0CE010E94EA023B
:1008E00076018FEFE81AF80A82E0C80ED11CBC9C92
:1008F000B001BD9C700D11249B012D5F3F4F40E066
:1009000050E06250710980E090E00E94550BEB01CD
:10091000670106C040E061E070E0C8010E94EA02A1
:1009200029E93AE340E050E060E177E280E090E0DE
:100930000E94550B2B013C010E9432056093AF02CF
:100940007093B0028093B1029093B20264E272E0BD
:1009500084E091E00E94260D0E9432052091AF02B2
:100960003091B0024091B1025091B202DC01CB0152
:10097000821B930BA40BB50B481659066A067B061F
:1009800048F00E9497006AE070E080E090E00E94EA
:100990006305E2CF8091AD029091AE0201969093F3
:1009A000AE028093AD020F5F1F4F0235110509F0B3
:1009B0008CCF0E94970069E272E08CEB92E00E947B
:1009C000A90A68EE73E080E090E00E946305F1CF31
:1009D0001F920F920FB60F9211242F933F938F9374
:1009E0009F93AF93BF938091B4029091B502A09171
:1009F000B602B091B7023091B30223E0230F2D3736
:100A000020F40196A11DB11D05C026E8230F029612
:100A1000A11DB11D2093B3028093B4029093B5023F
:100A2000A093B602B093B7028091B8029091B90238
:100A3000A091BA02B091BB020196A11DB11D809395
:100A4000B8029093B902A093BA02B093BB02BF91CF
:100A5000AF919F918F913F912F910F900FBE0F906B
:100A60001F9018952FB7F8946091B4027091B50259
:100A70008091B6029091B7022FBF08953FB7F894C6
:100A80008091B8029091B902A091BA02B091BB02D4
:100A900026B5A89B05C02F3F19F00196A11DB11DD9
:100AA0003FBFBA2FA92F982F8827820F911DA11D14
:100AB000B11DBC01CD0142E0660F771F881F991F51
:100AC0004A95D1F708958F929F92AF92BF92CF929D
:100AD000DF92EF92FF926B017C010E943E054B0179
:100AE0005C01C114D104E104F10401F10E94A006EB
:100AF0000E943E05DC01CB0188199909AA09BB09AE
:100B0000883E9340A105B10560F321E0C21AD108E7
:100B1000E108F10888EE880E83E0981EA11CB11C44
:100B2000C114D104E104F10419F7DBCFFF90EF9079
:100B3000DF90CF90BF90AF909F908F900895789462
:100B400084B5826084BD84B5816084BD85B58260D2
:100B500085BD85B5816085BDEEE6F0E08081816070
:100B60008083E1E8F0E01082808182608083808170
:100B700081608083E0E8F0E0808181608083E1EB48
:100B8000F0E0808184608083E0EBF0E08081816030
:100B90008083EAE7F0E080818460808380818260E6
:100BA00080838081816080838081806880831092CF
:100BB000C1000895833081F028F4813099F08230AB
:100BC000A1F008958730A9F08830B9F08430D1F4CD
:100BD000809180008F7D03C0809180008F7780930B
:100BE0008000089584B58F7702C084B58F7D84BD61
:100BF00008958091B0008F7703C08091B0008F7D01
:100C00008093B0000895CF93DF9390E0FC01E45807
:100C1000FF4F2491FC01E057FF4F8491882361F13D
:100C200090E0880F991FFC01E854FF4FC591D491C3
:100C3000FC01E255FF4FA591B491611109C09FB726
:100C4000F8948881209582238883EC912E230BC011
:100C5000623061F49FB7F8948881322F30958323F6
:100C60008883EC912E2B2C939FBF06C08FB7F894EE
:100C7000E8812E2B28838FBFDF91CF9108950F93AA
:100C80001F93CF93DF931F92CDB7DEB7282F30E0AD
:100C9000F901E859FF4F8491F901E458FF4F14918D
:100CA000F901E057FF4F04910023D9F0882321F088
:100CB00069830E94DA056981E02FF0E0EE0FFF1FE3
:100CC000E255FF4FA591B4919FB7F894611105C00B
:100CD0008C91E12FE095E82302C0EC91E12BEC939D
:100CE0009FBF0F90DF91CF911F910F910895CF93E8
:100CF000DF93282F30E0F901E859FF4F8491F90183
:100D0000E458FF4FD491F901E057FF4FC491CC2331
:100D100091F081110E94DA05EC2FF0E0EE0FFF1F39
:100D2000EC55FF4FA591B491EC91ED2381E090E05B
:100D300021F480E002C080E090E0DF91CF9108953F
:100D400008958E3008F08E502091090190E4299F7B
:100D5000900111248770822B80937C0080917A000F
:100D6000806480937A0080917A0086FDFCCF809128
:100D700078002091790090E0922B08951F920F92B5
:100D80000FB60F9211242F938F939F93EF93FF939E
:100D9000E091CC02F091CD028081E091D202F091FD
:100DA000D30282FD12C090818091D5028F5F8F7334
:100DB0002091D602821751F0E091D502F0E0E45480
:100DC000FD4F958F8093D50201C08081FF91EF91F7
:100DD0009F918F912F910F900FBE0F901F9018959C
:100DE0001F920F920FB60F9211242F933F934F93A0
:100DF0005F936F937F938F939F93AF93BF93EF9383
:100E0000FF938CEB92E00E94BD0BFF91EF91BF919D
:100E1000AF919F918F917F916F915F914F913F9192
:100E20002F910F900FBE0F901F9018958CEB92E0B2
:100E30000E94810B21E0892B09F420E0822F089584
:100E4000ECEBF2E01382128288EE93E0A0E0B0E0D7
:100E500084839583A683B7838BE492E09183808318
:100E600085EC90E09587848784EC90E0978786876F
:100E700080EC90E0918B808B81EC90E0938B828B67
:100E800082EC90E0958B848B86EC90E0978B868B40
:100E9000118E128E138E148E08953F924F925F9290
:100EA0006F927F928F929F92AF92BF92CF92DF927A
:100EB000EF92FF920F931F93CF93DF9300D000D058
:100EC000CDB7DEB78B0129013A0190910A0189174C
:100ED00021F09F3F09F04AC204C0E2ECF0E03490F8
:100EE00084C080930A01E2ECF0E0E491EF3F09F462
:100EF0003DC2E13009F44DC058F1E23009F074C050
:100F00001092B0001092B1009091B0009260909356
:100F1000B0009091B10091609093B100282F30E023
:100F2000F901E057FF4FE491F0E0EE0FFF1FE255AB
:100F3000FF4F4591549150935B0340935A03F9013D
:100F4000E458FF4FE491E093590362E0362E0AC261
:100F500014BC15BC94B5926094BD95B5916095BDD7
:100F6000282F30E0F901E057FF4FE491F0E0EE0F59
:100F7000FF1FE255FF4F45915491509369034093F1
:100F80006803F901E458FF4FE491E0936703312CC3
:100F9000E9C11092800010928100909181009860C8
:100FA0009093810090918100916090938100282F0F
:100FB00030E0F901E057FF4FE491F0E0EE0FFF1F42
:100FC000E255FF4F45915491509362034093610362
:100FD000F901E458FF4FE491E093600361E00E945F
:100FE00003063324339487C03E2E37FCBFC161E033
:100FF0000E940306832D8D7F09F07DC04801A12C3E
:10100000B12C60E072E18AE790E0A50194010E94B2
:101010000C1129833A834B835C8369017A0121E0B7
:10102000C21AD108E108F1088FEFC816D104E10413
:10103000F10409F008F44DC060E472E48FE090E040
:10104000A50194010E940C1169017A0191E0C91A6D
:10105000D108E108F108E2E03E1221C0FFEFCF160F
:10106000D104E104F10409F008F443C160E970ED32
:1010700083E090E0A50194010E940C1169017A01BE
:1010800081E0C81AD108E108F1089FEFC916D10420
:10109000E104F10411F008F0B9C083E025C0EFEFDE
:1010A000CE16D104E104F104B1F0A8F068E478EEC2
:1010B00081E090E0A50194010E940C1169017A0180
:1010C000F1E0CF1AD108E108F108332009F413C187
:1010D000DCC081E001C082E0311006C095B5987F88
:1010E000892B85BD44C085E09091B100987F892B04
:1010F0008093B1003CC04801A12CB12C60E072E1AA
:101100008AE790E0A50194010E940C1169017A011F
:10111000F1E0CF1AD108E108F108C114D10421E0AF
:10112000E206F10488F068E478EE81E090E0A50141
:1011300094010E940C1169017A0181E0C81AD1085A
:10114000E108F10883E001C081E091E039120FC0AD
:1011500090918100987F892B8093810041145104E4
:101160006104710449F42FEF3FEFA9012DC0411430
:1011700051046104710471F0D801AA0FBB1FA301CF
:1011800092010E942B1128EE33E040E050E00E94D3
:10119000EA1003C02FEF3FEFA901E1E03E16A1F0F6
:1011A000F2E03F1619F13110E1C0C7BC20936A0389
:1011B00030936B0340936C0350936D0380916E00EA
:1011C000826080936E00D2C0D0928900C092880065
:1011D0002093630330936403409365035093660345
:1011E00080916F00826080936F00C0C0C092B30096
:1011F00020935C0330935D0340935E0350935F0341
:1012000080917000826080937000B0C068E478EED6
:1012100081E090E0A50194010E940C1169017A011E
:1012200081E0C81AD108E108F1089FEFC916D1047E
:10123000E104F10441F138F164E274EF80E090E000
:10124000A50194010E940C1169017A0181E0C81A7C
:10125000D108E108F1089FEFC916D104E104F104B7
:1012600009F008F440CF62E17AE780E090E0A50160
:1012700094010E940C1169017A01E1E0CE1AD108B3
:10128000E108F10819C084E02FCF2FEFC216D10476
:10129000E104F10409F008F463C062E17AE780E058
:1012A00090E0A50194010E940C1169017A01F1E01E
:1012B000CF1AD108E108F1082FEFC216D104E104DA
:1012C000F104A9F0A0F089819A81AB81BC812AE068
:1012D000B595A795979587952A95D1F76C017D01CE
:1012E000F1E0CF1AD108E108F10887E0FDCE86E0F1
:1012F000FBCE82E0F9CEEFEFCE16D104E104F1048B
:1013000069F160F162E17AE780E090E0A501940183
:101310000E940C1169017A0181E0C81AD108E10824
:10132000F1089FEFC916D104E104F104A9F0A0F07F
:1013300089819A81AB81BC813AE0B595A795979553
:1013400087953A95D1F76C017D01E1E0CE1AD1087D
:10135000E108F10885E0C2CE84E0C0CE83E0BECED5
:1013600084E0BACE61E00E94030648CE0F900F9051
:101370000F900F90DF91CF911F910F91FF90EF9001
:10138000DF90CF90BF90AF909F908F907F906F90A5
:101390005F904F903F900895813039F018F082307F
:1013A00051F0089510926E00089580916F008D7F26
:1013B00080936F000895809170008D7F80937000FE
:1013C00081E08093B0008091B100887F8460809339
:1013D000B1001092B3000895CF93C82F80910A01F5
:1013E000C81307C0E2ECF0E084919FEF90930A01EC
:1013F00001C08FEF0E94CC0960E08C2FCF910C943C
:101400003F061F920F920FB60F9211242F933F9316
:101410004F935F936F937F938F939F93AF93BF93FC
:10142000EF93FF9380915C0390915D03A0915E0325
:10143000B0915F03892B8A2B8B2B51F1909159032B
:10144000E0915A03F0915B0380818927808380912A
:101450005C0390915D03A0915E03B0915F03181649
:1014600019061A061B06C4F480915C0390915D0373
:10147000A0915E03B0915F030197A109B109809328
:101480005C0390935D03A0935E03B0935F0304C07D
:1014900080910A010E94EC09FF91EF91BF91AF91F9
:1014A0009F918F917F916F915F914F913F912F917C
:1014B0000F900FBE0F901F901895CF92DF92EF9272
:1014C000FF920F931F93CF93DF936C017A018B01EF
:1014D000C0E0D0E0CE15DF0581F0D8016D918D011F
:1014E000D601ED91FC910190F081E02DC6010995A6
:1014F000892B11F02196EECF7E01C701DF91CF91AC
:101500001F910F91FF90EF90DF90CF90089561159C
:10151000710579F0FB0101900020E9F73197AF01E7
:10152000461B570BDC01ED91FC910280F381E02D0D
:10153000099480E090E008950C94870ADC01ED9115
:10154000FC910190F081E02D099466E372E00C9427
:10155000870A0F931F93CF93DF93EC010E94870AB2
:101560008C01CE010E94A50A800F911FDF91CF91BF
:101570001F910F9108950F931F93CF93DF93EC0169
:101580000E949E0A8C01CE010E94A50A800F911F25
:10159000DF91CF911F910F9108958F929F92AF92FB
:1015A000BF92EF92FF920F931F93CF93DF93CDB72C
:1015B000DEB7A1970FB6F894DEBF0FBECDBF7C019A
:1015C000FA01CB0119A2223008F42AE08E010F5D46
:1015D0001F4F822E912CA12CB12CBF01A50194018B
:1015E0000E94EA10F901CA01015011096A3014F48D
:1015F000605D01C0695CD8016C93232B242B252BE3
:1016000061F7B801C7010E94870AA1960FB6F89446
:10161000DEBF0FBECDBFDF91CF911F910F91FF9025
:10162000EF90BF90AF909F908F9008952115310556
:1016300041F4DC01ED91FC910190F081E02D642FEB
:1016400009940C94CD0A9A01AB0160E070E00C940F
:10165000160B611571058105910511F00C941A0D99
:101660000895CF93DF9300D000D0CDB7DEB79B01B4
:10167000AC01611571058105910569F069833A83B3
:101680004B835C830E94150D29813A814B815C81DB
:101690000E940C1103C060E070E0CB010F900F902E
:1016A0000F900F90DF91CF910895CF92DF92EF923C
:1016B000FF926B017C01621773078407950764F43E
:1016C000CA01B9016C197D098E099F090E94310B6D
:1016D0006C0D7D1D8E1D9F1DFF90EF90DF90CF90B4
:1016E000089508950E949F050E94710B0E949F0219
:1016F000CFEADBE00E9452042097E1F30E94AF0B97
:10170000F9CFFC01918D228D892F90E0805C9F4F55
:10171000821B91098F7399270895FC01918D828D09
:10172000981731F0828DE80FF11D858D90E00895B6
:101730008FEF9FEF0895FC01918D828D981761F0D6
:10174000828DDF01A80FB11D5D968C91928D9F5FF8
:101750009F73928F90E008958FEF9FEF089586E139
:1017600097E0892B49F080E090E0892B29F00E94D6
:10177000160781110C9400000895FC01848DDF018F
:10178000A80FB11DA35ABF4F2C91848D90E00196F4
:101790008F739927848FA689B7892C93A089B189E3
:1017A0008C9180648C93938D848D981306C00288ED
:1017B000F389E02D80818F7D80830895CF92DF9221
:1017C000FF920F931F93CF93DF931F92CDB7DEB796
:1017D0006C0181E0D60158968C9358975B969C914A
:1017E0005B975C968C915C97981307C05096ED912F
:1017F000FC915197808185FD2BC0D6015B960C91A1
:1018000010E00F5F1F4F0F731127F02EF601848D2C
:10181000F8120FC00FB607FCF9CF0088F189E02D50
:10182000808185FFF3CFC60169830E94BD0B69816A
:10183000EDCF838DF601E80FF11DE35AFF4F608372
:10184000F601038F0288F389E02D808180620CC04D
:10185000D6015696ED91FC91579760835096ED9185
:10186000FC91519780818064808381E090E00F90AB
:10187000DF91CF911F910F91FF90DF90CF9008954E
:10188000CF93DF93EC01888D8823C9F0EA89FB8927
:10189000808185FD05C0A889B9898C9186FD0FC01E
:1018A0000FB607FCF5CF808185FFF2CFA889B989F3
:1018B0008C9185FFEDCFCE010E94BD0BE7CFDF916C
:1018C000CF910895CF92DF92EF92FF921F93CF9323
:1018D000DF93EC016A017B01122FE889F98982E02C
:1018E00080834115514E61057105B1F060E079E0EA
:1018F0008DE390E0A70196010E94EA10DA01C90188
:101900000197A109B109B695A795979587959C016F
:10191000211580E13807A8F0E889F989108260E88C
:1019200074E88EE190E0A70196010E94EA10DA01C6
:10193000C9010197A109B109B695A7959795879512
:101940009C01EC85FD853083EE85FF852083188E14
:10195000EC89FD891083EA89FB898081806180831D
:10196000EA89FB89808188608083EA89FB8980819C
:1019700080688083EA89FB8980818F7D8083DF9105
:10198000CF911F91FF90EF90DF90CF9008958F92AD
:101990009F92AF92BF92CF92DF92EF92FF92CF933E
:1019A000DF93EC01688179818A819B8161157105E2
:1019B0008105910521F464E279ED8BE597E02DE155
:1019C00033EF41E050E00E940C1149015A019B01A4
:1019D000AC01A7EAB1E40E942B116B017C01ACEED3
:1019E000B4EFA50194010E943911DC01CB018C0DEB
:1019F0009D1DAE1DBF1DB7FF03C00197A109B048D3
:101A000088839983AA83BB83BC01CD019F77DF9133
:101A1000CF91FF90EF90DF90CF90BF90AF909F90CD
:101A20008F9008950E94C70C089580E091E00E9475
:101A3000C70C089560930001709301018093020127
:101A4000909303010895F8940C948A11FB01DC0132
:101A500001900D920020E1F70895AEE0B0E0E3E3DD
:101A6000FDE00C944C110D891E8986E08C831A834D
:101A700009838FEF9FE79E838D83AE01475E5F4FA3
:101A80006F89788DCE0101960E94730EEF81F885E3
:101A9000E00FF11F10822E96E4E00C9468110E9472
:101AA000910D08F481E00895E89409C097FB3EF495
:101AB00090958095709561957F4F8F4F9F4F99239B
:101AC000A9F0F92F96E9BB279395F6958795779519
:101AD0006795B795F111F8CFFAF4BB0F11F460FFD9
:101AE0001BC06F5F7F4F8F4F9F4F16C0882311F031
:101AF00096E911C0772321F09EE8872F762F05C045
:101B0000662371F096E8862F70E060E02AF09A95DF
:101B1000660F771F881FDAF7880F9695879597F9D4
:101B20000895990F0008550FAA0BE0E8FEEF16166E
:101B30001706E807F907C0F012161306E407F507C1
:101B400098F0621B730B840B950B39F40A2661F035
:101B5000232B242B252B21F408950A2609F4A140D8
:101B6000A6958FEF811D811D089597F99F6780E8E5
:101B700070E060E008959FEF80EC089500240A94DF
:101B80001616170618060906089500240A94121658
:101B90001306140605060895092E0394000C11F48B
:101BA000882352F0BB0F40F4BF2B11F460FF04C038
:101BB0006F5F7F4F8F4F9F4F089557FD9058440F91
:101BC000551F59F05F3F71F04795880F97FB991F9C
:101BD00061F09F3F79F08795089512161306140659
:101BE000551FF2CF4695F1DF08C0161617061806E6
:101BF000991FF1CF86957105610508940895E894C1
:101C0000BB2766277727CB0197F908950E94190E05
:101C10000C94CC0D0E94BE0D38F00E94C50D20F032
:101C2000952311F00C94B50D0C94BB0D11240C945C
:101C3000000E0E94DD0D70F3959FC1F3950F50E0EB
:101C4000551F629FF001729FBB27F00DB11D639F6E
:101C5000AA27F00DB11DAA1F649F6627B00DA11D14
:101C6000661F829F2227B00DA11D621F739FB00DBA
:101C7000A11D621F839FA00D611D221F749F33272A
:101C8000A00D611D231F849F600D211D822F762FC3
:101C90006A2F11249F5750409AF0F1F088234AF0A0
:101CA000EE0FFF1FBB1F661F771F881F915050400C
:101CB000A9F79E3F510580F00C94B50D0C94000ED1
:101CC0005F3FE4F3983ED4F3869577956795B79593
:101CD000F795E7959F5FC1F7FE2B880F911D9695AD
:101CE000879597F90895ACE0B0E0E9E7FEE00C9441
:101CF0003E116C017B018A01FC01178216828381EF
:101D000081FFBEC1CE0101964C01F6019381F7011E
:101D100093FD859193FF81917F01882309F4ACC1E4
:101D2000853239F493FD859193FF81917F0185324E
:101D300029F4B60190E00E945C10E7CF512C312CC1
:101D400020E02032A0F48B3269F030F4803259F078
:101D5000833269F420612CC08D3239F0803339F43C
:101D6000216026C02260246023C0286021C027FD96
:101D700027C030ED380F3A3078F426FF06C0FAE07D
:101D80005F9E300D1124532E13C08AE0389E300D13
:101D90001124332E20620CC08E3221F426FD6CC13A
:101DA000206406C08C3611F4206802C0883641F4E5
:101DB000F70193FD859193FF81917F018111C1CF3F
:101DC000982F9F7D9554933028F40C5F1F4F9FE30D
:101DD00099830DC0833631F0833771F0833509F074
:101DE0005BC022C0F801808189830E5F1F4F4424AD
:101DF0004394512C540115C03801F2E06F0E711C50
:101E0000F801A080B18026FF03C0652D70E002C0FC
:101E10006FEF7FEFC5012C870E9451102C018301C9
:101E20002C852F77222E17C03801F2E06F0E711C1F
:101E3000F801A080B18026FF03C0652D70E002C0CC
:101E40006FEF7FEFC5012C870E9446102C012C8577
:101E50002068222E830123FC1BC0832D90E04816AE
:101E60005906B0F4B60180E290E00E945C103A940A
:101E7000F4CFF50127FC859127FE81915F01B60122
:101E800090E00E945C1031103A94F1E04F1A510832
:101E90004114510471F7E6C0843611F0893639F5E2
:101EA000F80127FF07C060817181828193810C5FF7
:101EB0001F4F08C060817181072E000C880B990BA1
:101EC0000E5F1F4F2F76722E97FF09C09095809559
:101ED000709561957F4F8F4F9F4F2068722E2AE03B
:101EE00030E0A4010E948C10A82EA81844C08537A9
:101EF00029F42F7EB22E2AE030E025C0F22FF97FA0
:101F0000BF2E8F36C1F018F4883579F0B5C0803710
:101F100019F0883721F0B0C02F2F2061B22EB4FE07
:101F20000DC08B2D8460B82E09C024FF0AC09F2FDE
:101F30009660B92E06C028E030E005C020E130E010
:101F400002C020E132E0F801B7FE07C06081718174
:101F5000828193810C5F1F4F06C06081718180E098
:101F600090E00E5F1F4FA4010E948C10A82EA818AD
:101F7000FB2DFF777F2E76FE0BC0372D3E7FA514FD
:101F800050F474FE0AC072FC08C0372D3E7E05C0B6
:101F9000BA2C372D03C0BA2C01C0B52C34FF0DC0AC
:101FA000FE01EA0DF11D8081803311F4397E09C0F4
:101FB00032FF06C0B394B39404C0832F867809F02F
:101FC000B39433FD13C030FF06C0B31498F43A0C39
:101FD000532C5B1810C0B31470F4B60180E290E08B
:101FE0003C870E945C10B3943C85F5CFB31418F481
:101FF0003B1802C05A2C312C34FF12C0B60180E3CA
:1020000090E03C870E945C103C8532FF17C031FD98
:1020100003C088E790E002C088E590E0B6010CC0FC
:10202000832F867859F031FF02C08BE201C080E235
:1020300037FD8DE2B60190E00E945C10A51438F4E3
:10204000B60180E390E00E945C105A94F7CFAA9406
:10205000F401EA0DF11D8081B60190E00E945C1050
:10206000A110F5CF332009F450CEB60180E290E004
:102070000E945C103A94F6CFF6018681978102C0E7
:102080008FEF9FEF2C96E2E10C945A11FC01059022
:10209000615070400110D8F7809590958E0F9F1F6A
:1020A0000895FC016150704001900110D8F78095AF
:1020B00090958E0F9F1F08950F931F93CF93DF93DB
:1020C000182F092FEB018B8181FD03C08FEF9FEF4C
:1020D0001EC082FF0FC02E813F818C819D812817F9
:1020E000390774F4E881F981CF01019699838883D7
:1020F000108306C0E885F985812F0995892B31F772
:102100008E819F8101969F838E83812F902FDF91F7
:10211000CF911F910F910895FA01AA27283051F10C
:10212000203181F1E8946F936E7F6E5F7F4F8F4F08
:102130009F4FAF4FB1E03ED0B4E03CD0670F781F67
:10214000891F9A1FA11D680F791F8A1F911DA11D4C
:102150006A0F711D811D911DA11D20D009F4689485
:102160003F912AE0269F11243019305D3193DEF62D
:10217000CF010895462F4770405D4193B3E00FD0E3
:10218000C9F7F6CF462F4F70405D4A3318F0495DCE
:1021900031FD4052419302D0A9F7EACFB4E0A695B1
:1021A0009795879577956795BA95C9F700976105D3
:1021B000710508959B01AC010A2E06945795479529
:1021C00037952795BA95C9F7620F731F841F951F1E
:1021D000A01D0895A1E21A2EAA1BBB1BFD010DC074
:1021E000AA1FBB1FEE1FFF1FA217B307E407F507C7
:1021F00020F0A21BB30BE40BF50B661F771F881FA3
:10220000991F1A9469F760957095809590959B0138
:10221000AC01BD01CF010895052E97FB1EF400947B
:102220000E94231157FD07D00E94EA1007FC03D03B
:102230004EF40C94231150954095309521953F4FC5
:102240004F4F5F4F089590958095709561957F4FA2
:102250008F4F9F4F08950E947B11A59F900DB49FB3
:10226000900DA49F800D911D11240895B7FF0C942B
:102270002B110E942B11821B930B08952F923F92DA
:102280004F925F926F927F928F929F92AF92BF9286
:10229000CF92DF92EF92FF920F931F93CF93DF9332
:1022A000CDB7DEB7CA1BDB0B0FB6F894DEBF0FBE8F
:1022B000CDBF09942A88398848885F846E847D84DC
:1022C0008C849B84AA84B984C884DF80EE80FD80DE
:1022D0000C811B81AA81B981CE0FD11D0FB6F89454
:1022E000DEBF0FBECDBFED010895EE0FFF1F0590BD
:1022F000F491E02D0994A29FB001B39FC001A39F68
:10230000700D811D1124911DB29F700D811D11242E
:08231000911D0895F894FFCF20
:10231800010000005052455F0001FF3E3E3E5265FD
:1023280063656976656420722E205265626F6F74EA
:1023380020696E2032207365636F6E647300256CAC
:10234800752C25642C25642C25642C25642C2533B8
:10235800642C2533642C25642C25642C25730049B2
:102368004E5641003E3E3E5265636569766564207F
:10237800722E205374617274003E3E3E526563654E
:102388006976656420702E20506C6179696E6720CB
:1023980070756666003E3E3E5265636569766564A3
:1023A80020742E20506C6179696E6720746F6E6599
:1023B800003E3E3E5265636569766564206C2E205A
:1023C8004C4544204F4E003E3E3E20556E6B6E6F8E
:1023D800776E20636F6D6D616E64203A20005573CF
:1023E800696E67204C45442F44494F44452070612D
:1023F8006972005052455F0043532B0054524143C9
:102408000050524F42005055464600504F5354001A
:102418003E3E454E4420547269616C200020697329
:10242800206F7665722E205374617274696E67200E
:102438006E6577004954495F003E3E3E20416C6C12
:1024480020646F6E65000D0A006E616E00696E662D
:10245800006F7666002E0000000000DE0B5D0A812A
:082468000B9B0B8D0B400C00D7
:00000001FF
